:020000040800F2
:1000000000000220DD2A0208912102089321020843
:10001000952102089721020899210208000000009A
:100020000000000000000000000000009113020822
:100030009B21020800000000211402089D210208F3
:100040002D2B02082D2B02082D2B02082D2B020828
:100050002D2B02082D2B02082D2B02082D2B020818
:100060002D2B02082D2B02082D2B02082D2B020808
:100070002D2B02082D2B02082D2B02082D2B0208F8
:100080002D2B02082D2B02082D2B0208000000004A
:100090000000000000000000000000002D2B0208FE
:1000A0002D2B02082D2B02082D2B02082D2B0208C8
:1000B0002D2B02082D2B02082D2B02082D2B0208B8
:1000C0002D2B02082D2B02082D2B02082D2B0208A8
:1000D0002D2B0208B52102082D2B0208000000007C
:1000E0002D2B02082D2B02082D2B020800000000EA
:1000F0000000000000000000000000002D2B02089E
:1001000000000000C12102082D2B02082D2B02083F
:1001100000000000000000000000000000000000DF
:100120002D2B02082D2B0208CD210208D92102080F
:100130002D2B02080000000000000000000000005D
:10014000000000000000000000000000E52102089F
:10015000F12102082D2B0208FD2102082D2B020897
:100160002D2B02082D2B02080000000000000000CB
:10017000000000000000000000000000000000007F
:10018000000000002D2B020800000000000000000D
:080190002D2B02082D2B0208A3
:1001A00010B5054C237833B9044B13B10448AFF3B1
:1001B00000800123237010BD100300200000000008
:1001C000687B020808B5034B1BB103490348AFF332
:1001D000008008BD0000000014030020687B0208B6
:1001E00010F8012B11F8013B012A28BF9A42F7D0E1
:1001F000D01A7047034613F8012B002AFBD1181AB6
:1002000001387047000000000000000000000000FE
:1002100001F0FF01102A2BDB10F0070F08D010F8B7
:10022000013B013A8B422DD010F0070F42B3F6D1BB
:10023000F0B441EA012141EA014122F007047FF0D4
:1002400000070023F0E80256083C85EA010586EA2B
:10025000010685FA47F5A3FA87F586FA47F6A5FA67
:1002600087F68EB9EED1F0BC01F0FF0102F0070273
:1002700032B110F8013B013A83EA010313B1F8D11E
:100280000020704701387047002D06BF35460338FF
:10029000073815F0010F07D1013015F4807F02BF38
:1002A000013015F4C03F0130F0BC0138704700BF89
:1002B00081F0004102E000BF83F0004330B54FEA17
:1002C00041044FEA430594EA050F08BF90EA020F84
:1002D0001FBF54EA000C55EA020C7FEA645C7FEA17
:1002E000655C00F0E2804FEA5454D4EB5555B8BF3A
:1002F0006D420CDD2C4480EA020281EA030382EAAB
:10030000000083EA010180EA020281EA0303362D3C
:1003100088BF30BD11F0004F4FEA01314FF4801C0F
:100320004CEA113102D0404261EB410113F0004F21
:100330004FEA03334CEA133302D0524263EB4303D8
:1003400094EA050F00F0A780A4F10104D5F1200E76
:100350000DDB02FA0EFC22FA05F2801841F10001D1
:1003600003FA0EF2801843FA05F359410EE0A5F1A5
:1003700020050EF1200E012A03FA0EFC28BF4CF0D6
:10038000020C43FA05F3C01851EBE37101F000458C
:1003900007D54FF0000EDCF1000C7EEB00006EEB99
:1003A0000101B1F5801F1BD3B1F5001F0CD3490823
:1003B0005FEA30004FEA3C0C04F101044FEA44527A
:1003C00012F5800F80F09A80BCF1004F08BF5FEA01
:1003D000500C50F1000041EB045141EA050130BDE1
:1003E0005FEA4C0C404141EB0101013C28BFB1F5F3
:1003F000801FE9D291F0000F04BF01460020B1FA3E
:1004000081F308BF2033A3F10B03B3F120020CDA10
:100410000C3208DD02F1140CC2F10C0201FA0CF0EE
:1004200021FA02F10CE002F11402D8BFC2F1200C53
:1004300001FA02F120FA0CFCDCBF41EA0C01904009
:10044000E41AA2BF01EB0451294330BD6FEA040452
:100450001F3C1CDA0C340EDC04F11404C4F120023D
:1004600020FA04F001FA02F340EA030021FA04F34F
:1004700045EA030130BDC4F10C04C4F1200220FAA6
:1004800002F001FA04F340EA0300294630BD21FAE4
:1004900004F0294630BD94F0000F83F4801306BFAA
:1004A00081F480110134013D4EE77FEA645C18BF9E
:1004B0007FEA655C29D094EA050F08BF90EA020F35
:1004C00005D054EA000C04BF1946104630BD91EA2D
:1004D000030F1EBF0021002030BD5FEA545C05D130
:1004E0004000494128BF41F0004130BD14F580046F
:1004F0003CBF01F5801130BD01F0004545F0FE41E3
:1005000041F470014FF0000030BD7FEA645C1ABF17
:10051000194610467FEA655C1CBF0B46024650EA4E
:10052000013406BF52EA033591EA030F41F400217A
:1005300030BD00BF90F0000F04BF0021704730B500
:100540004FF4806404F132044FF000054FF00001D5
:1005500050E700BF90F0000F04BF0021704730B596
:100560004FF4806404F1320410F0004548BF40426B
:100570004FF000013EE700BF42004FEAE2014FEAC0
:1005800031014FEA02701FBF12F07F4393F07F4F9B
:1005900081F06051704732F07F4208BF704793F09E
:1005A0007F4F04BF41F40021704730B54FF46074B1
:1005B00001F0004521F000411CE700BF50EA0102B4
:1005C00008BF704730B54FF000050AE050EA01025D
:1005D00008BF704730B511F0004502D5404261EBCD
:1005E00041014FF4806404F132045FEA915C3FF40E
:1005F000D8AE4FF003025FEADC0C18BF03325FEAAB
:10060000DC0C18BF033202EBDC02C2F1200300FA5B
:1006100003FC20FA02F001FA03FE40EA0E0021FA80
:1006200002F11444BDE600BF70B54FF0FF0C4CF46E
:10063000E06C1CEA11541DBF1CEA135594EA0C0F20
:1006400095EA0C0F00F0DEF82C4481EA030621EA5B
:100650004C5123EA4C5350EA013518BF52EA033596
:1006600041F4801143F4801338D0A0FB02CE4FF048
:100670000005E1FB02E506F00042E0FB03E54FF078
:100680000006E1FB03569CF0000F18BF4EF0010E70
:10069000A4F1FF04B6F5007F64F5407404D25FEA6C
:1006A0004E0E6D4146EB060642EAC62141EA55511F
:1006B0004FEAC52040EA5E504FEACE2EB4F1FD0C61
:1006C00088BFBCF5E06F1ED8BEF1004F08BF5FEADF
:1006D000500E50F1000041EB045170BD06F0004691
:1006E00046EA010140EA020081EA0301B4EB5C043E
:1006F000C2BFD4EB0C0541EA045170BD41F4801136
:100700004FF0000E013C00F3AB8014F1360FDEBF5A
:10071000002001F0004170BDC4F10004203C35DA36
:100720000C341BDC04F11404C4F1200500FA05F3B9
:1007300020FA04F001FA05F240EA020001F000425A
:1007400021F0004110EBD37021FA04F642EB0601D0
:100750005EEA430E08BF20EAD37070BDC4F10C04FA
:10076000C4F1200500FA04F320FA05F001FA04F2BE
:1007700040EA020001F0004110EBD37041F10001AA
:100780005EEA430E08BF20EAD37070BDC4F12005B5
:1007900000FA05F24EEA020E20FA04F301FA05F21D
:1007A00043EA020321FA04F001F0004121FA04F2C5
:1007B00020EA020000EBD3705EEA430E08BF20EA95
:1007C000D37070BD94F0000F0FD101F000464000CF
:1007D00041EB010111F4801F08BF013CF7D041EA51
:1007E000060195F0000F18BF704703F00046520055
:1007F00043EB030313F4801F08BF013DF7D043EA26
:100800000603704794EA0C0F0CEA135518BF95EADB
:100810000C0F0CD050EA410618BF52EA4306D1D162
:1008200081EA030101F000414FF0000070BD50EA81
:10083000410606BF1046194652EA430619D094EA0B
:100840000C0F02D150EA013613D195EA0C0F05D1F5
:1008500052EA03361CBF104619460AD181EA030149
:1008600001F0004141F0FE4141F470014FF0000001
:1008700070BD41F0FE4141F4780170BD70B54FF09C
:10088000FF0C4CF4E06C1CEA11541DBF1CEA13551C
:1008900094EA0C0F95EA0C0F00F0A7F8A4EB0504FE
:1008A00081EA030E52EA03354FEA013100F08880F5
:1008B0004FEA03334FF0805545EA131343EA1263BE
:1008C0004FEA022245EA111545EA10654FEA002673
:1008D0000EF000419D4208BF964244F1FD0404F52C
:1008E000407402D25B084FEA3202B61A65EB030588
:1008F0005B084FEA32024FF480104FF4002CB6EB45
:10090000020E75EB030E22BFB61A754640EA0C00C4
:100910005B084FEA3202B6EB020E75EB030E22BF04
:10092000B61A754640EA5C005B084FEA3202B6EB45
:10093000020E75EB030E22BFB61A754640EA9C0004
:100940005B084FEA3202B6EB020E75EB030E22BFD4
:10095000B61A754640EADC0055EA060E18D04FEA92
:10096000051545EA16754FEA06164FEAC30343EA32
:1009700052734FEAC2025FEA1C1CC0D111F4801FFF
:100980000BD141EA00014FF000004FF0004CB6E7F8
:1009900011F4801F04BF01430020B4F1FD0C88BF97
:1009A000BCF5E06F3FF6AFAEB5EB030C04BFB6EBA2
:1009B000020C5FEA500C50F1000041EB045170BD95
:1009C0000EF0004E4EEA113114EB5C04C2BFD4EBC2
:1009D0000C0541EA045170BD41F480114FF0000E46
:1009E000013C90E645EA060E8DE60CEA135594EAC2
:1009F0000C0F08BF95EA0C0F3FF43BAF94EA0C0FC5
:100A00000AD150EA01347FF434AF95EA0C0F7FF439
:100A100025AF104619462CE795EA0C0F06D152EA8D
:100A200003353FF4FDAE1046194622E750EA410671
:100A300018BF52EA43067FF4C5AE50EA41047FF482
:100A40000DAF52EA43057FF4EBAE12E74FF0FF3CE7
:100A500006E000BF4FF0010C02E000BF4FF0010CB8
:100A60004DF804CD4FEA410C7FEA6C5C4FEA430C31
:100A700018BF7FEA6C5C1BD001B050EA410C0CBF80
:100A800052EA430C91EA030F02BF90EA020F0020E2
:100A9000704710F1000F91EA030F58BF994208BF49
:100AA00090422CBFD8176FEAE37040F00100704706
:100AB0004FEA410C7FEA6C5C02D150EA013C07D15D
:100AC0004FEA430C7FEA6C5CD6D152EA033CD3D0A8
:100AD0005DF8040B704700BF8446104662468C46A2
:100AE0001946634600E000BF01B5FFF7B7FF0028D5
:100AF00048BF10F1000F01BD4DF808EDFFF7F4FFFE
:100B00000CBF012000205DF808FB00BF4DF808ED88
:100B1000FFF7EAFF34BF012000205DF808FB00BFAB
:100B20004DF808EDFFF7E0FF94BF012000205DF8CD
:100B300008FB00BF4DF808EDFFF7CEFF94BF012082
:100B400000205DF808FB00BF4DF808EDFFF7C4FF7B
:100B500034BF012000205DF808FB00BF4FEA410CC4
:100B60007FEA6C5C02D150EA013C0AD14FEA430CA7
:100B70007FEA6C5C02D152EA033C02D14FF00000E4
:100B800070474FF0010070474FEA410212F5001222
:100B900015D211D56FF47873B3EB625212D94FEAC4
:100BA000C12343F0004343EA505311F0004F23FAAE
:100BB00002F018BF404270474FF00000704750EA03
:100BC000013005D111F0004008BF6FF000407047C0
:100BD0004FF00000704700BF4A0011D212F500121A
:100BE00011D20DD56FF47873B3EB62520ED44FEA85
:100BF000C12343F0004343EA505323FA02F0704705
:100C00004FF00000704750EA013002D14FF0FF3042
:100C100070474FF0000070474FEA4102B2F1E043E5
:100C200024BFB3F5001CDCF1FE5C0DD901F0004CD3
:100C30004FEAC0024CEA5070B2F1004F40EB830023
:100C400008BF20F00100704711F0804F21D113F14F
:100C50003872BCBF01F00040704741F480114FEA88
:100C60005252C2F11802C2F1200C10FA0CF320FA11
:100C700002F018BF40F001004FEAC1234FEAD3232E
:100C800003FA0CFC40EA0C0023FA02F34FEA430398
:100C9000CCE77FEA625307D150EA01331EBF4FF021
:100CA000FE4040F44000704701F0004040F0FE403C
:100CB00040F40000704700BF53B94AB9002908BF8B
:100CC00000281CBF4FF0FF314FF0FF3000F0BEB9DD
:100CD000ADF1080C6DE904CE00F03CF8DDF804E05D
:100CE000DDE9022304B0704738B500220023044632
:100CF0000D46FFF70BFF28B920462946BDE83840CE
:100D000000F00AB8204605F1004100F005F8404225
:100D100061EB410138BD00BFD0B50C4B0022064647
:100D20000F46FFF781FCFFF757FF0446FFF702FC71
:100D3000074B0022FFF778FC02460B463046394647
:100D4000FFF7BAFAFFF748FF2146D0BD0000F03D9B
:100D50000000F0412DE9F047089D0F4604468C46FF
:100D6000002B48D18A42164661D9B2FA82F34BB1C0
:100D7000C3F1200201FA03FC20FA02F29E4042EA8B
:100D80000C0C9C404FEA164EB7B2BCFBFEF1220C95
:100D90000EFB11CC42EA0C4201FB07F0904209D94C
:100DA000B21801F1FF3C80F0EE80904240F2EB80FF
:100DB00002393244121AA4B2B2FBFEF00EFB10222A
:100DC00044EA024400FB07F7A74209D9341900F1AD
:100DD000FF3280F0DA80A74240F2D78034440238F4
:100DE00040EA0140E41B00211DB1DC400023C5E9BD
:100DF0000043BDE8F0878B4206D90DB1C5E900017B
:100E000000210846BDE8F087B3FA83F1002948D1F4
:100E1000BB4202D3824200F20781841A67EB0302CD
:100E200001209446002DE4D0C5E9004CE1E7002AFA
:100E300000F09280B2FA82F3002B40F0A8808A1A68
:100E40004FEA164E1FFA86FC0121200CB2FBFEF77A
:100E50000EFB172240EA02420CFB07F0904207D932
:100E6000B21807F1FF3802D2904200F2E280474602
:100E7000121AA4B2B2FBFEF00EFB102244EA0244A6
:100E80000CFB00FCA44507D9341900F1FF3202D253
:100E9000A44500F2CB801046A4EB0C0440EA0740C6
:100EA000A2E7C1F120068B4022FA06FC4CEA030CB3
:100EB00007FA01F420FA06F3F7404FEA1C492343EE
:100EC00000FA01F81FFA8CFEB7FBF9F01C0C09FBC5
:100ED000107744EA074400FB0EF7A74202FA01F23A
:100EE0000AD91CEB040400F1FF3A80F09B80A74272
:100EF00040F2988002386444E41B9FB2B4FBF9F3DB
:100F000009FB134447EA044403FB0EFEA64509D936
:100F10001CEB040403F1FF3780F08280A6457FD9E3
:100F2000023B644443EA0040A4EB0E04A0FB02E74A
:100F3000BC427346B94663D360D05DB1B8EB0302DF
:100F400064EB090404FA06F622FA01F31E43CC40CE
:100F5000C5E9006400214CE76208480842EAC17113
:100F60000B0C43EA00438AB242EA0342B3FBF6F1B8
:100F7000E407B4463746B6461F23B0FBF6F0D21B53
:100F800041EA004161E7614614E7104628E7C3F1F2
:100F9000200120FA01F29E4027FA01F19F403A43D6
:100FA0004FEA164E1FFA86FCB1FBFEF70EFB171038
:100FB000110C41EA004107FB0CF8884504FA03F4E0
:100FC0003AD9711807F1FF3001D288451FD8A1EB3B
:100FD0000801B1FBFEF808FB0CF70EFB181192B2EA
:100FE00042EA0142BA422FD2B21808F1FF31C6D20A
:100FF000BA42C4D2A8F102013244C0E7F0459CD203
:10100000BEEB020367EB0C070138B94695E7A6EB88
:1010100008084144B81EB1FBFEF808FB0CF7DCE7FA
:101020003B467FE7504667E70846FBE63444023814
:1010300032E7023F32441BE7A1EB08013846B1FB1F
:10104000FEF808FB0CF7C8E7414698E7704700BF79
:1010500003798B4228BF0431C91AC9B24171704764
:10106000036810B504461B6998476379003B18BFB5
:1010700001231B1A5842584110BD000038B5124CCC
:10108000236800255D622946204619F0A1FE294605
:10109000204619F0E9FA226813699907FCD50A4835
:1010A000002119F0E1FA2268054613699B07FCD577
:1010B0000021054819F0D8FA00210446024819F029
:1010C000EDFE601B38BD00BF94D6012010B5144B57
:1010D0001A689403FCD59A6822F0030242F00102D8
:1010E0009A60104A002414661A689201FCD45A6867
:1010F00022F48002104358605A6822F03F021143E4
:101100005960084B01221A66054A13689B01FCD5F9
:10111000936823F0030343F00203936010BD00BF04
:1011200000380240000047427FB510210020FFF741
:10113000CDFFFFF7A3FF134B134A1B6803EB4303D9
:10114000B3FBF2F398421AD91422002101A824F02B
:1011500050FB0223009368460C4B049317F092FD5A
:1011600008B120F0D1FD0A4B0122C3F83C2E082122
:101170004FF4800007B05DF804EBFFF7A7BF19211B
:10118000F6E700BFDC00002080841E00000308009A
:101190000000474270B510210020FFF797FF0F4D68
:1011A0000F4E1F24FFF76AFF2B6832680D49B2FB10
:1011B000F1F28242C3F3C4030BD243B1013B2A686C
:1011C00022F0F80242EAC302013C2A60EAD1184642
:1011D00070BDFCD91F2BFAD00133F0E70038024074
:1011E000DC00002040420F0013B5FFF7D3FF044698
:1011F00017F0EAFD15F09AF9114A136823F0F80385
:1012000043EAC40313604FF0E02300221A615A61DD
:101210009A610C4B0193019B596862B60A4B1A689C
:1012200022F003021A601A6842F001021A60019B60
:101230001B6883F3088802B0BDE81040084700BF70
:10124000003802400000FF1F0038014010B5FFF7D2
:101250006BFF1848FFF704FF08B1FFF7C5FF09F05F
:1012600011FB154909F030FB10F0ECFF134A14494B
:1012700011F072F814F0C4FD036812491B6A984714
:1012800006F03CFE1049002206F098FE0F48FFF7DA
:10129000E7FE30B110F062F90368BDE810401B684A
:1012A000184704F04BFE0A4904F0F4FE00F034FD48
:1012B000F2E700BF480400202C0300204403002074
:1012C0006403002038040020DCD6012058040020EC
:1012D0009003002000BEFEE7704700002DE9F047B4
:1012E0004249DFF86091424FDFF85C814148424B50
:1012F000C9F800301022C9E902120822FA603F4AF8
:10130000DFF848A1906001250024C8E902054FF4E8
:101310008060C2E90034D060394AB960C2E9021580
:10132000C2E90034374AC9F80450C8E90035C7E9B2
:101330000035354B1360354B94801046C2E90234BA
:1013400013F04EFE4FF06413CAF80430304B314EA8
:10135000CAF80030304BCAF808304FF005137360FC
:101360002E4B336006F10C002D4BB36014F0C8F91E
:101370002C4B2D4A1A602D4AC3F88420A3F88840CC
:101380002B4B2C4818604FF4F0722B481C7603212D
:10139000C3E901124FF4A071C3E903125961057149
:1013A000C180264D0281C3E907A9C3E90987214607
:1013B000234B03604471C6600474C0F81240C0F847
:1013C0001640C0F81A40FFF743FE4FF40040402398
:1013D000C5E900030A234220C5E903462B726C616C
:1013E00010F0EEFEE860BDE8F08700BF00000240AC
:1013F0006804002000040240DC2103085804002097
:1014000048040020380400204822030824D7012083
:101410007C2203081C04002038D601200022030887
:101420009CD4012090030020CC2203082CD801205A
:101430006403002008B60208440300202C030020A7
:10144000E0B5020888040020780400202C04002065
:1014500008B5074BD86810B1012110F0B7FE054858
:10146000054B40F80C3BBDE8084014F053B900BFF1
:101470002C0300201C040020002203084FF0000071
:1014800070474FF0000070474FF0000070474FF07A
:10149000000070474FF00000704700F50050007EDC
:1014A000003818BF012080007047000010B5074BBE
:1014B000044640F8283B14F02AFB04F1140014F011
:1014C00082F9201D14F07FF9204610BDB89802085B
:1014D00010B50446FFF7EAFF20464C2110F076FED7
:1014E000204610BD13F098BF38B570B30B784D7817
:1014F000DBB900F5AA540834236820465B69984795
:1015000088B1236820465B6C984760B12946204625
:1015100014F0BCFF3DB9236820465B6C984710B1BE
:10152000204614F0C2FF002038BD012B03D100F586
:10153000B5541834E0E7062BF5D1002DF3D003683D
:1015400000F6A8319B699847EDE70220ECE708B563
:101550001FF07CFBBDE808401FF04EBA10B50446F2
:1015600013F008FA044B23600023C4E9083384F81D
:101570002830E362204610BD14BF020810B50446AF
:1015800013F0F8F9054B23600023C4E90833C4E9DC
:101590000A334FF480332363204610BD1CC0020879
:1015A00010B5044613F0E6F9094B23604FF0FF3203
:1015B0000023C4E90B234FF48032A2630122A287E7
:1015C000C4E90833636384F83E30204610BD00BF91
:1015D000BCBE020810B5044613F0CCF90A4B2360D8
:1015E0006FF07F420023C4E90833C4E90A33226361
:1015F000A38604F13800FFF7D3FF04F17800FFF76A
:10160000CFFF204610BD00BF2427030810B5034BB1
:101610000360044613F0C0F9204610BD14BF020851
:1016200010B50446FFF7F2FF2046302110F0CEFD42
:10163000204610BD10B5034B0360044613F0ACF90F
:10164000204610BD1CC0020810B50446FFF7F2FF8B
:101650002046342110F0BAFD204610BD38B50446AE
:1016600013F088F91C4B236000254FF47F420123BF
:10167000C4E90D234FF00041C4E90F536FF000435C
:10168000C4E911134FF0FF33E364C4E90855A562C0
:1016900084F82C50256304F15000FFF75FFF04F13C
:1016A0008000FFF76BFF04F1B400FFF767FF2946E6
:1016B000182204F1E80024F09CF81022294604F5D1
:1016C000807024F096F884F8105110F0BBFDC4F837
:1016D0001401204638BD00BF0899020838B5094BEF
:1016E000094D0360044640F8785F13F055F9204631
:1016F00040F8385F13F050F9204613F04DF92046BA
:1017000038BD00BF24270308BCBE020810B504463C
:10171000FFF7E4FF2046B82110F058FD204610BD29
:101720002DE9F8430446002613F024F9C4E90866BD
:10173000C4E90A662D4BDFF8C0902360266304F1EC
:10174000340504F5DA774FF0FF38284613F012F924
:10175000C5F80090C5F8288085F82C6085F82D60C4
:10176000C5E908663035BD42EFD104F55576284607
:101770003435FFF703FFAE42F9D1354604F61416AF
:101780002846B835FFF726FFB542F9D1284613F0B1
:10179000F1F80025164BC4F81439C4F8345904F68E
:1017A0003810FFF717FF04F51F60FFF713FF04F66B
:1017B000A820FFF7D3FE04F6D82013F0DBF80D4B7A
:1017C000C4F8D83AC4F8F85AC4F8FC5AC4F8005B14
:1017D00084F8045BC4F8085BC4F80C5B10F032FDBD
:1017E000C4F8100B2046BDE8F88300BF3CA00208F7
:1017F000C4BF02086CBF020864B6020810B5094BEA
:10180000044640F8B43BFFF715FF04F18000FFF7F2
:1018100011FF04F15000FFF7F9FE204613F0BCF869
:10182000204610BD0899020810B50446FFF7E6FFF0
:1018300020464FF48C7110F0C9FC204610BD00000A
:101840000A22002370B5C0E905230446C0E900332D
:10185000C0E902330374C361203012F04FFF04F17A
:101860004C00FFF77BFE04F17C0013F083F8284B5B
:10187000E36704F19C00FFF781FE04F1D000FFF75D
:10188000EDFE04F5F470FFF7A5FE04F52870FFF7F0
:10189000A1FE04F55670FFF79DFE1E4B93E807006E
:1018A00004F5826585E8070004F21C4603F10C028A
:1018B0003C3310685168354603C508329A422E46BB
:1018C000F7D104F24C40FFF785FE04F20450FFF715
:1018D00081FE10F0B7FC002384F8CC3584F8E435A1
:1018E000C4F8BC05C4F8C035C4F8C435C4F8C8355C
:1018F000C4F8D035C4F8D435C4F8D835C4F8DC35CC
:10190000C4F8E035C4F8E835C4F8EC35204670BDBD
:101910006CBF0208807B0208F8B5204B0360204BA7
:10192000C0F8D83A044600F6D82013F035F804F68B
:10193000A820FFF76BFE04F51F60FFF7CFFE04F64B
:101940003810FFF7CBFE04F61415164BC4F8143903
:10195000284613F021F804F55576AE4204D0B83D80
:101960002846FFF7BBFEF8E704F5DA75B54204D068
:10197000343E3046FFF75EFEF8E70B4E04F13407C5
:10198000BD4205D045F8306D284613F005F8F7E75D
:10199000204613F001F82046F8BD00BF3CA0020825
:1019A0006CBF0208C4BF020864B602082DE9F0410A
:1019B000534B036000F5D055044605F5A360FFF7CF
:1019C0008DFE04F5F350FFF789FE04F5EB500C3063
:1019D000FFF784FE04F5E5501430FFF77FFE04F5B1
:1019E000DF501C30FFF77AFE05F1E40004F5805665
:1019F000FFF704FF05F1B000FFF71CFEDFF80C81D4
:101A0000C6F8908A04F5D450103012F0C5FF04F5E2
:101A1000D350FFF7FBFD3B4FC6F8347A04F5D150A5
:101A200004F5BB55143012F0B7FF05F5E470FFF76D
:101A300055FE05F58870FFF751FE334BC6F8303878
:101A400004F5C150103012F0A7FF05F19C00FFF71C
:101A5000F1FD04F5BE50C6F8DC871C3012F09CFF87
:101A600005F14C00FFF7D2FDC6F8807704F5BC50B5
:101A700012F092FF04F5B5501830FFF72FFE04F571
:101A8000B050FFF72BFE04F5A75604F5AA50083016
:101A90001436FFF723FE3046FFF7CCFD04F59D55C5
:101AA0001C35B54204D0343E3046FFF7C3FDF8E79D
:101AB00004F62C56B54205D0A5F58C752846FFF7DF
:101AC0009DFEF7E704F6F840FFF7B4FD04F6C440C6
:101AD000FFF7B0FD04F54960FFF7ACFD04F5466083
:101AE000FFF794FD04F6A830FFF7F8FD04F1940029
:101AF000FFF712FF2046FFF7D9FC2046BDE8F08132
:101B0000E098020874C00208BCBE02086CBF02085C
:101B100008B50248FFF74AFF08BD00BF9C0400203B
:101B200010B50446FFF742FF204642F2380110F09C
:101B30004DFB204610BD10B50446FFF7EDFE2046D4
:101B400040F6143110F042FB204610BDF8B56D4B45
:101B50000446102240F8043B2221002313F02BFE00
:101B600000230822202104F1140013F024FE04F5C0
:101B700000531833002563621423C4E90A53624BEF
:101B800084F83050C4E90D344FF4C063A4F84430F5
:101B9000032384F8463020465C4BA3645C4B84F8F6
:101BA0003C5029464022256440F84C3B23F021FE5E
:101BB000C4E9235504F19400FFF7B2FD04F6A83000
:101BC000FFF708FD04F54660FFF7C8FC04F549601F
:101BD000FFF7D4FC04F6C440FFF7D0FC04F6F8404D
:101BE000FFF7CCFC04F59D5604F62C551C36284610
:101BF00005F58C75FFF732FDB542F8D104F5A7560F
:101C0000143628463435FFF7B9FCB542F9D12846D9
:101C1000FFF7B4FC04F5AA500830FFF7DBFC04F52D
:101C2000B050FFF7D7FC04F5B55004F580561830D6
:101C30000025FFF7CFFC4FF4807304F5BB57C6F8BF
:101C40007C37C6F87057C6F87457C6F8785704F54D
:101C5000BC5012F053FD07F14C00FFF77FFC04F578
:101C6000BE501C3012F086FE2A4BC6F8DC3707F156
:101C70009C00FFF783FC07F1D000FFF791FC07F50C
:101C80008870FFF7A7FC07F5E470FFF7A3FC10F0DE
:101C9000D9FAC6F8E00904F5D050C6F8E459C6F8F8
:101CA000E859C6F8EC5986F8F059C6F8F459C6F860
:101CB000F859C6F8FC59C6F8005AC6F8045A86F80E
:101CC000085AC6F80C5AC6F8105A143004F50056D3
:101CD000FFF7B6FD0323337110F0B4FAB06006F0DD
:101CE0000DF9F06004F02AF9306108F0CBFD86F8B8
:101CF0002C507061C6E90855C6E90C55B5622046FE
:101D0000F8BD00BFB8980208CF5501082881020825
:101D1000E09802086CBF020810B50A4C2368BFF3B4
:101D20005B8FDB070CD4204620F001FF40B1064852
:101D3000FFF70CFF054822F0AFFC204620F003FF20
:101D4000014810BD980400209C040020111B0008CD
:101D50002DE9F04F00F5005785B0BB680546D3F874
:101D600088400E46002970D0083C032294FBF2F410
:101D7000D3F88CB012F048FF0368DB6898478046C0
:101D800012F042FF0368DB68984705F5AA5909F18C
:101D9000080908EB480800EB40004FF0010AABEBE4
:101DA00008032C49CDF808A00022CDE900404846A0
:101DB00014F0CEF9FFF7CBFB002301461A46484644
:101DC00014F06FFB484614F02AFB05F58058DEB18D
:101DD000B8F95025CDF808A0B8F956351D49CDE918
:101DE000004305F5B056B8F94E350532304614F0CB
:101DF000AFF9FFF7ACFB002301461A46304614F05A
:101E000050FB304614F00BFBBB681249D3F8882016
:101E100001230293B8F95635CDE9004305F5B555D0
:101E20001835B8F94E35121B284614F091F9FFF712
:101E30008EFB002301461A46284614F032FB284642
:101E400005B0BDE8F04F14F0EABA04EBD4746410A6
:101E5000043C8DE7AA83020800F5005300F5AA5060
:101E60001B6993F87033022B0CBF024902490830FA
:101E700014F015BA348102083981020800F50052C5
:101E8000126992F87023012A05D821B100F5AA50F1
:101E9000083014F004BAFFF7DFBF000000F500536C
:101EA00000F5B5501A6992F87033052B00F118004F
:101EB00008D192F8F1334F2B02D1054914F0EFB954
:101EC0000449FBE7002BF8D0092BF6D00249F5E7CF
:101ED000F88E02083D810208198C020800F50052B4
:101EE000126992F87023012A05D121B100F5B5508D
:101EF000183014F0D4B9FFF7D1BF70B500F1480322
:101F00000446002553F8042F8A4218D1D4F89030A3
:101F100004EB8303D86C03681B69984704F19400B1
:101F2000C4F89050294605F0BFFED4F8903004EB79
:101F30008303BDE87040D86C0368DB68184701353F
:101F4000102DDFD170BD000070B504468AB004F5D5
:101F5000A955083503A804F5A7561FF06BFC1436E5
:101F6000049B144A2021284623F074FB294630465E
:101F7000012212F06AF904F5005304F580549B68BD
:101F8000D3F88820B4F9003503EBD37302EBD27297
:101F90005C10C4EB620412F0FBFD6FF07F43019014
:101FA000009322461E232946304612F0CEF80AB08E
:101FB00070BD00BF44810208D0F8903000EB83036D
:101FC00070B50446D86C03680D461B699847C4F881
:101FD000905004F19400294605F066FED4F8903044
:101FE00004EB8304E06C0368BDE87040DB681847CD
:101FF00000F6A833994237B504460D460BD190F848
:10200000B83B43B100F50054206990F8523363B9EE
:1020100004F09CF90BE004F194039D420BD194F879
:10202000C0102046FFF7C8FF01E004F0C7F94FF0E9
:10203000000003B030BDD4F8903004EB8303294690
:10204000D86C03689B699847C0B20928EFD104F5A2
:10205000AA5308339D420BD104F50054206990F82F
:102060007033022B14BF8121822104F061F9DEE775
:1020700004F5B55318339D42D9D104F500542069B5
:1020800090F87013D0F86823052913D190F8F13334
:10209000C0F86C234F2B4FF0000380F8F13380F829
:1020A000563301D11821E0E70B49019301AA04F04E
:1020B000C7FEBCE7002339B1092905D080F85633A3
:1020C000C0F86C231921D0E780F8F13380F856333B
:1020D000C0F86C23E6E700BF5A810208F7B5044652
:1020E00000F1940504F50056284605F030FC28223E
:1020F0000821B368CDE9002100221146D3F88830C9
:102100000027284605F0E6FDC4F88C7012F006FDA5
:1021100039460346634A284605F058FD624AD4F81A
:102120008C10284605F0EFFCD4F88C707B1CC4F8AA
:102130008C3002F09FFE04EB8707F864D4F88C70B3
:1021400012F0ECFC3946594A0346284605F03EFD9C
:10215000D4F88C707B1CC4F88C3009F07DF804EB4B
:102160008707F864D4F88C7012F0D8FC394603461F
:102170004F4A284605F02AFDD4F88C707B1CC4F821
:102180008C3001F067FE04EB87073369F86493F83D
:102190001D34022B13D0D4F88C7012F0BFFC3946DA
:1021A0000346444A284605F011FDD4F88C707B1C88
:1021B000C4F88C300DF066FD04EB8707F864D4F8A2
:1021C0008C7012F0ABFC39463B4A0346284605F0BA
:1021D000FDFCD4F88C707B1CC4F88C300CF09CFF98
:1021E00004EB8707F864D4F88C7012F097FC39463A
:1021F0000346324A284605F0E9FCD4F88C707B1C73
:10220000C4F88C3003F0A6FD04EB87073369F8644B
:1022100093F81D349BB9D4F88C7012F07FFC3946CA
:102220000346274A284605F0D1FCD4F88C707B1C65
:10223000C4F88C300AF0E6FB04EB8707F864D4F8A6
:102240008C7012F06BFC39461E4A0346284605F096
:10225000BDFCD4F88C707B1CC4F88C300EF0EAFD09
:1022600004EB8707D4F88C20B368F8640192282225
:10227000009200221146D3F88830284605F02AFD46
:10228000284605F0D7FD0023214628461A4605F0CA
:10229000CDFD4FF4FA61284603B0BDE8F04005F0EB
:1022A00016BB00BF5E810208140000206281020894
:1022B0006B810208768102088381020890810208FE
:1022C000A0810208A68102082DE9F04F8BB00446D8
:1022D00008F0D8FA08F0FCFA04F500558DF81B0058
:1022E000AE6808F0CFFAC168003918BF0121304646
:1022F00010F055F82979A86810F069FBAB68B54A69
:10230000C3F88020D3F88C7012F07EFC0368DB6881
:102310009847064612F002FC0368DB689847AB68F2
:10232000D3F888300593824612F0F8FB0268926871
:102330009047834612F0F2FB0268D268904706EBA2
:102340004606A549059BBA1E4FF0060804F54669E6
:10235000921B4000002608FB1B33A2EB4A02CDE98A
:10236000011600903146484611F012FD4FF47A7183
:10237000484612F0E2FA04F5BB57984A1037114666
:102380000223384608F0DCF8214633463246384608
:1023900008F0D1F8286904F011F8AB68D3F8882068
:1023A000059212F0BBFB03689B689847B4F966BCC2
:1023B000824612F0B3FB03689B689847059A8849E8
:1023C0000123029304F6A839B4F96E3C019308FB8B
:1023D00000F0013A08FB1A225B460090484613F0D1
:1023E000B7FE324633464846214614F05AF8314685
:1023F000484614F04BF84FF47A71484612F09DFAB3
:10240000B4F96E3CB4F9669C03EBD37309EB630932
:1024100012F084FB0368DB689847804612F07EFB6D
:102420006FF07F4B04F5496A0422A9EB58036B490E
:102430000190CDF800B0504611F087FEB4F9941C1D
:10244000099112F06BFB03689B689847804612F075
:10245000DBFB03689B689847B4F96A3C05930890D6
:1024600012F0D2FB0368DB689847079012F0CCFBB0
:10247000DDE90821059BA3F1020C079B04F6C44982
:1024800008EB88080A44ACEB03035449CDE900B0DB
:102490004244484611F059FEB4F9AC2B079212F0B1
:1024A000EDFB03689B689847B4F966BC059012F091
:1024B000E5FB0599079A019004F6F848FF230B20E5
:1024C0000BF1040B00FB1122009340465B4643498D
:1024D00011F03BFE40F2E931504612F02EFA40F284
:1024E000EA31484612F029FA40F2EB31404612F048
:1024F00024FA2B462033019343230093394AE8689A
:102500002346214605F07BFD31462046FFF720FC9F
:102510002046FFF7E3FD04F59D5804F62C5608F11C
:102520001C083046002106F58C7600F032FD464549
:10253000F7D112F02DFB6FF07F430190009304F56B
:10254000A951002304F5A7501A460831143011F0A0
:10255000FCFD04F148080026D4F88C30B3422DD895
:102560009DF81B100023C4F8903079B11E4A1F4912
:102570000223384607F0E4FF42F21071384608F0B3
:10258000E1F8D4F88C100139C4F8901004F19400EB
:1025900005F08AFBD4F8903004EB8304E06C036808
:1025A000DB68984708F06EF9036913B1286903F0F6
:1025B000CDFE4FF000000BB0BDE8F08F58F8040FCF
:1025C000B4F9662C0368283A9B682821984701369D
:1025D000C2E700BF4040400080808000AA8302081C
:1025E0005E810208E9140008AF810208F881020840
:1025F000F8B500F500550446286990F8701303F00B
:1026000077FD0022014604F5496011F01EFE28699D
:1026100090F8F11303F074FD0022014604F6C44063
:1026200011F013FE296991F8E923134623F0800382
:1026300081F8E933D20901F2F23104F6F84011F0E1
:1026400004FE04F62C570026F1B2286903F096FD2B
:1026500001360146384600F09CFC062E07F58C77C3
:10266000F2D12B6993F8521304F6A83600295BD0F7
:102670000121304613F00AFF2B6993F8E333002B56
:102680000CBFFF214FF47F41304613F04BFE2B6906
:1026900093F80F24002183F80F149AB304F5D05057
:1026A00004F5BB561430103600F088FA304608F0B6
:1026B00087F82B69D3F818349B060AD42649274A91
:1026C0000223304607F03CFF42F21071304608F01A
:1026D00039F8D4F8903004EB830304F14807D86C40
:1026E00003681B6998472046FFF7F8FC0026D4F8DA
:1026F0008C30B34224D8E06C0023C4F890300368D7
:10270000DB689847D4F8903004EB83041421E06C24
:1027100003685B699847A86800F5C150043013F05E
:10272000A0F94FF00000F8BD304613F0AFFE2B6962
:1027300093F8E333002B0CBF6FF07F41FF21A3E739
:1027400057F8040FB4F9662C0368283A9B682821CF
:1027500098470136CBE700BF908202080282020848
:1027600038B50446B8B109B9002038BDD0F81C31DD
:10277000426900F1D00501FB0231284600F009FC56
:10278000A369002BF0D0D4F81C21284653F822105E
:1027900000F046FCE8E70220E7E7C0E900128360AA
:1027A000704741694B1E10B559420446594100F526
:1027B000F47013F06BFE6169A1F10A0251425141BC
:1027C00004F5287013F062FE6169A1F164004142D2
:1027D000414104F55670BDE8104013F057BE32B9C0
:1027E00001207047484301339342FBD170470846AC
:1027F0000123F9E737B504460D467C3012F09DF809
:10280000691C04F1200012F098F8A91C04F24C4055
:1028100012F093F8E91C04F2045012F08EF805F05F
:102820006DFB0546FEF793FE04F5B86301460D4ABD
:1028300000932846234605F02CFC05F05FFB054677
:10284000FEF785FE04F5BB6301937F2301460093E9
:102850002846054A234605F0D2FB4FF0000003B09E
:1028600030BD00BF61270008FF2B00082DE9F04FA5
:102870008BB01E460023CB4D079204460F46836162
:102880002B68BFF35B8F13F0010FDFF82CA30CD183
:10289000284620F04CF940B1D4F8BC352846D3F88E
:1028A0008830CAF8003020F04EF912F037F96FF096
:1028B0007F4304F19C05009300231A46394601909A
:1028C000284611F042FC28469DF85C1011F0A2FC4D
:1028D000B4F9A830DAF80010C91A08220023490810
:1028E000284604F1200912F071F84946284611F0F3
:1028F000E7FF0121284612F020F8DAF80030B4F999
:10290000A670A3F1100812F07FF90368DB689847FE
:10291000169B029304F1D00508370D2300EB8000CD
:102920003A460193009043460821284600F062FA97
:102930004FF47F420421284600F01EFB12F064F998
:1029400002220146284600F05DFCDDE9141228460B
:1029500000F060FB3146284600F01BFB12F054F9F2
:102960000026034605220799284600F061FC4946E7
:1029700084F8E060284611F0A3FF0121284611F0F9
:10298000DCFF04F20C43069304F21C47A346B4F99F
:10299000DC300322083BB3FBF2F3059303F0CEFADD
:1029A000169A05460A212046FFF719FF069A00905D
:1029B00052F8043F069239461022284603F044FD9F
:1029C0003846FDF717FC079B774AC0F110013844E1
:1029D00022F040FE059BB4F9D420043306FB032209
:1029E000B4F9DA3009920833089312F00DF901684E
:1029F000C96888470BF5F478059B0093012500EB27
:102A00008000DDE90832394601900295404613F016
:102A10009FFBFEF79CFD654A23460146404613F0A6
:102A200040FD0021404613F031FD0321404613F0E4
:102A3000C1FCDBF8E83149469B6840469847DBF823
:102A4000E8312946DB6840462E449847032E07F1BB
:102A500010070BF1B80B9AD1169A022A28BF02224E
:102A60000A212046FFF7BBFE6061B82000FB024050
:102A70000026294600F5F47013F008FD0295019632
:102A8000B4F9F231083304F14C070093DAF800305E
:102A900032463146384611F07BF93846042111F0B0
:102AA000A7F938464FF6FF7111F0B9F931463846AB
:102AB00011F0CCF94946384611F002FF314638464C
:102AC00011F03BFFD4F8BC25B4F95A30D2F88C2071
:102AD0000093D21A02EBD272DAF800302A41314662
:102AE000484611F046FED4F8BC35D3F88C2000924D
:102AF0003146324604F17C00D3F8883011F0BAF93F
:102B0000D4F8BC3584F88C50D3F88CA012F07CF843
:102B10000368DB689847D4F8BC35D3F8882002EB0B
:102B2000D27242FA05F7814612F06EF80368DB684C
:102B3000984704F24C48043F09EB490900EB400078
:102B4000CDE90070AAEB09033246194902954046C7
:102B500013F0FEFAFEF7FBFC23460146134A4046FB
:102B600013F09FFCD4F8BC35B4F95824D3F888107E
:102B70000295B4F95A34CDE9002304F20457B4F9AC
:102B800052348A1A38460B4913F0E2FAFEF7DFFC9A
:102B9000064A01462346384613F083FC30460BB004
:102BA000BDE8F08FD42400209C820208FF2B00088F
:102BB000A0820208A3820208D824002010B504468F
:102BC00005F09CF904F5B86105F084FA05F096F972
:102BD00004F5BB6105F037FA04F1200011F0BDFEE9
:102BE00004F17C0011F0B9FE04F24C4011F0B5FE86
:102BF00004F2045011F0B1FE4FF0000010BDF8B522
:102C0000044600284CD000F24C458D4203D000F21F
:102C100004578F4219D16B1A5D425D4125742046DD
:102C2000FFF7CCFFD4E9000548B1A2682346294646
:102C300012F079FC2046FFF7B4FD0020F8BD002D0E
:102C4000F8D0A0682146A847F4E700F5F47399424C
:102C500002D101236361EDE700F52873994201D1A8
:102C60000A23F7E700F55673994201D16423F1E78F
:102C70000B784E7853B93146284613F007FC002EE6
:102C8000D8D129462046FFF7BAFFD3E7012BD1D18F
:102C90003146384613F0FAFB002ECBD13946F1E726
:102CA0000220CBE7B0F904007047B0F90600704786
:102CB000B0F908007047B0F90A007047B0F90C008D
:102CC0007047B0F90E007047007C70470174704780
:102CD0002DE9F341089E04461D46B0F90630B0F9CF
:102CE0000400301A0090EB1A04F1500090460F4691
:102CF00010F06DFEB4F90420B4F90630B21A009257
:102D0000EB1A4246394604F1B40011F086F994F802
:102D100010317BB1B4F90420B4F90630B61AEB1ABD
:102D20004246394604F18000089602B0BDE8F04101
:102D300011F073B902B0BDE8F0812DE9F341089EAE
:102D400004461D46B0F90430B0F90600301A009070
:102D5000EB1A04F1500090460F4610F08DFEB4F9C6
:102D60000620B4F90430B21A0092EB1A42463946F2
:102D700004F1B40011F0EBF894F810317BB1B4F920
:102D80000620B4F90430B61AEB1A4246394604F16B
:102D90008000089602B0BDE8F04111F0D8B802B04A
:102DA000BDE8F08110B50446052919D8DFE801F027
:102DB000030F181803160B4904F1500011F046F8E0
:102DC00023682046DB6CBDE8104000211847006AEC
:102DD00020B1D4E90912234612F0A5FB0021EBE74C
:102DE00010BD00BF8080800010B103689B68184749
:102DF000704700002DE9FF470446DDE90C651F46DA
:102E00004FF0FF30E0643818A18001440E9B21810F
:102E1000711EE2800A446281EA1AC4E90E23A78186
:102E2000E681012100204FF00A0C83426BDC216413
:102E300004F58070002B6AD0009310211346374AA6
:102E400022F008FC013504F1E8094846FDF7D2F903
:102E5000A8420CD004F1E70100239D4294BF002258
:102E6000012201335201182B01F8012FF5D1002561
:102E700001232A462946CDE9015300963B4604F139
:102E8000500010F085FF11F0BFFE04F1B4086FF0A0
:102E90007F47494601902B462A464046009711F04D
:102EA00054F9D4E90E3203EB0209D4F8D800B4F98E
:102EB0000CA009F10109AA4218BF09F10109FFF7A5
:102EC00093FFB4F9C2305FFA89F9F61A00FB19A131
:102ED00006EBD6762B4672104908404611F076FD77
:102EE00011F092FE2B46CDE900700D4904F18000EF
:102EF0002A4611F02AF92368DB6C2946204604B0E3
:102F0000BDE8F04718470CFB01F101308DE713468F
:102F10001021044A22F09EFB95E700BFAA82020816
:102F2000AA830208BB820208C36F994210B5044607
:102F300009D0503010F05CFF23682046DB6CBDE800
:102F400010400021184710BD10B5036FC0E90C12E6
:102F5000044690F82C00002818BF114699420AD068
:102F600004F1500010F05BFF23682046DB6CBDE8E5
:102F700010400021184710BD38B515460446FFF72C
:102F8000D3FF294620464FF47F42BDE83840FFF783
:102F9000DBBF436C99420A46B8BF1A46836C9A421B
:102FA000A8BF1A46C36C934273B5044630D0C56BB4
:102FB000C26400F5807300F1E801B4305DB900929D
:102FC000182211F084F923682046DB6C0021984711
:102FD000012002B070BD266C92FBF6F506FB1522AF
:102FE000002AB8BF5242CDE90052182211F06FF901
:102FF000E36C002BE7DA226C93FBF2F3002BE2D1B7
:10300000A36B012BC2BF1B192D2283F8E620DAE740
:103010000020DEE7C0E91112C16CFFF7BABF000063
:1030200037B5044600F1B40500910E4B00F1E801FC
:103030001822284611F04BF9B4F9C230B4F90E2029
:10304000B4F90C10D21AB4F9C03002EBD272C91A1A
:10305000521000234908284603B0BDE8304011F063
:10306000B5BC00BF9D8202082DE9F041D0E90E53A6
:103070001D44002B18BF013590F81031013B044668
:10308000042B00F2AA80DFE803F03A3303618600E4
:10309000B0F90C60D0F8D800FFF7A6FEB4F9C23042
:1030A000B4F90E20D21AB4F98C30B11EC91A94F8B2
:1030B000E6306B4300FB131102EBD2720023521077
:1030C000490804F1B40011F081FCB4F9BC50D4F803
:1030D000A400B4F9BE7004F18006023510B1036893
:1030E000DB6898473A1A00232946304611F06EFCF7
:1030F00023682046DB6CBDE8F04100211847B0F999
:10310000C230B0F90E20B0F90C10D21AB0F98E30DE
:10311000D21AB0F98C3002EBD272C91A52100023C5
:103120004908803011F052FCD4F8D800B4F90C6092
:10313000FFF75AFE94F8E630B4F98A206B4300FB9F
:1031400013610023490804F1B400CFE7B0F90C6023
:10315000D0F8D800FFF748FEB4F9C230B4F90E2019
:10316000D21A94F8E6306B4300FB136102EBD27283
:1031700000235210490804F1B40011F027FCB4F9FF
:103180008C30B4F90C10B4F9BE20C91A49080023D8
:1031900004F18000AAE7B0F90C60D0F8D800FFF77E
:1031A00023FEB4F9C230B4F90E20D21A94F8E630F6
:1031B0006B4300FB136102EBD272002352104908EB
:1031C00004F1B40011F002FCB4F9BC00B4F98C10A5
:1031D000B4F9BE200023411ADAE7B0F90C60D0F848
:1031E000D800FFF701FEB4F9C230B4F90E20D21AAC
:1031F00094F8E63002EBD2726B4300FB136152107D
:1032000000239FE770B500F1B4060446154630462A
:1032100010F0E4FFE9B2304610F0FCFF2046FFF763
:1032200023FF23682046DB6CBDE87040002118476F
:1032300070B500F1800604460D4680F8102119464D
:10324000304610F0CBFF29463046002210F0FDFF3B
:103250002046FFF709FF23682046DB6CBDE870407D
:103260000021184790F82C308B4210B5044611D03D
:10327000D0E90C2380F82C1000290CBF1146194608
:10328000503010F0CCFD23682046DB6CBDE81040C8
:103290000021184710BDC0E908128362704710B5BD
:1032A000D0B109B9002010BD0379052B0ED84FF419
:1032B0008C725343C2188468D2F8942103F5A47326
:1032C00001FB04211844FFF764FEEBE7D0F8E83E69
:1032D00000F69C601944F6E70220E4E72DE9F0418E
:1032E000044604F00BFE04F5935104F0F3FE04F5DC
:1032F000A47504F1100700264FF48C782B6828463B
:103300001B699847FEF708FD08FB06F303F62C52ED
:1033100003441044D3F82C3D1B699847D5F89036E8
:1033200005F5D2601B6998473B6838461B69013632
:103330009847062E05F58C7507F13407DED140F667
:10334000B47541F2DC16635960191B69B8359847AA
:10335000B542F8D104F69C6011F0FFFA04F66860FB
:1033600011F0FBFA04F5905004F580541C3011F074
:10337000F4FAD4F8500203681B699847D4F8540251
:1033800003681B6998474FF00000BDE8F08100001A
:1033900010B5044602F08BFE034B08B1987810BDBF
:1033A00094F81C24985CFAE70CA0020800F58053FE
:1033B0002DE9F04FD3F85C32D3F81034062B8FB0E0
:1033C00028BF06230233B2FBF3F2A2F108030D1D5E
:1033D0000593044611F018FC0368DB689847059BC9
:1033E00000EB8000984207D211F00EFC0368DB6806
:1033F000984700EB80030593059B089508330B93D2
:103400000023264604F11008069304F5805BDBE9EF
:103410009630D3F88890D0F81034069A062B28BF3F
:1034200006239A4206F58C7708F1340AC0F0F6803C
:1034300004F58E5804F58F5708F11C08173704F669
:10344000B47600254FF0030A4FF00109DBF85C3237
:1034500093F81C24D3F81034002A14BF394641468F
:10346000DBF858220791062BD2F8882092FBFAF25B
:1034700005FB02F228BF062304320692013B4FF4FB
:103480008C72534303F5A47023442044D3F848318D
:103490009B6B9847059BCDF808900193DBF8583259
:1034A000D3F8883093FBFAF3083BDDE9062100935B
:1034B00000F10803304612F04BFEFEF748F80023F7
:1034C00001461A46304612F0ECFF01353046032122
:1034D00012F070FF032D08F1090807F10C0706F13F
:1034E000B806B3D111F01AFB03689B689847DBF864
:1034F0005832B4F9BEAFD3F88880064611F00EFBFF
:1035000003689B689847A8F110034FF00A0808FB6E
:1035100006F10522002604F69C67CDE901260AF192
:10352000080A059A009208FB1033524638460C31BF
:10353000FFF760FCFF2204213846FFF71DFD11F064
:1035400063FB022201463846FFF75CFE42F210722E
:1035500038460121FFF75EFD4FF496713846FFF7BC
:1035600018FDDBF85C3293F81C24A14B53F822A021
:1035700011F04AFB2A46034651463846FFF758FEEB
:10358000FDF7E5FF3346014632463846FFF783FE36
:1035900084F8AC9E11F0C2FA04F668656FF07F47BC
:1035A00033463246019093490097284610F0CDFDEE
:1035B0002846022110F02EFEB4F9AA3EB4F9A21E4C
:1035C00003EBD37301EB6301B4F9763E03EBD372E3
:1035D000A1EB620233460421284611F0F7F904F505
:1035E0008350C4F8088001210C3012F04FFFB4F969
:1035F0004C51B4F94E8111F007FB0835CDE900704C
:1036000008F1080804F590507B4943462A461C30CF
:1036100010F09BFD30460FB0BDE8F08F9DF81830DC
:1036200007931946FFF7B4FEA9F10803072206F530
:10363000A475019203EBD373059A02905B102846A0
:1036400000920621089A99FBF1F1FFF7D3FBFF22C4
:1036500004212846FFF790FC11F0D6FA0222014619
:103660002846FFF7CFFD0799DBF85C0202F086FDE4
:1036700001462846FFF78DFCDBF85C325F4A93F881
:103680001C3452F8239011F0BFFA49460346032236
:103690002846FFF7CDFDFDF75AFF00231A460146E5
:1036A0002846FFF7F8FD3B6B012128469B6C9847A5
:1036B0003B6B28465B6B98473B6B09909B6B28469E
:1036C0009847059B0A90A3F10409DBF85832D3F818
:1036D00088203B6B0D925B6B2846984707990C90AE
:1036E000DBF85C02FFF754FEDDE90C320A99029028
:1036F0004FEA5909D31A0822CDE90092A1EB090239
:10370000099906F5FB66083B30460431FFF772FB6A
:103710003B4A02213046FFF72FFC11F075FA0122D7
:1037200001463046FFF76EFD00213046FFF731FCC1
:10373000DBF85C32314A93F81C3452F8239011F0D4
:1037400027FA0322034649463046FFF771FD0799E1
:10375000DBF85C0202F0A1FC064611F0DFF96FF025
:103760007F43009300231A4631460190404610F0F3
:10377000ECFC0221404610F04DFD5AF8343CDE6965
:103780003B6B2846DB6A98475AF8343C8146DB6B32
:103790004046984700EBD07009EBD9734FEA6009B7
:1037A000C9EB63013B6B07911B6B284698473B6B4A
:1037B00081461B6C284698475AF8343C00EBD07081
:1037C0001B6C09EB60054046984700EBD070A5EBF9
:1037D0006002002340460799B047069B0B9A0133CD
:1037E0000693089B13440893D0463E460FE600BF5D
:1037F0001CA00208C3820208AA83020828A00208AB
:10380000808080002DE9F04F04468BB000F1100A53
:1038100006464FF0000900F58058D8F85C32D3F81E
:103820001034062B28BF0623994506F58C753AD32C
:1038300040F6B47541F2DC1663596019DB68652106
:10384000B8359847B542F7D1642104F69C6011F071
:1038500074F8642104F6686011F06FF804F5905074
:1038600065211C3011F069F8D8F850020368662110
:10387000DB689847D8F8540203686621DB689847EC
:1038800004F03CFB0546FDF762FE04F59353014648
:10389000009328463D4A234604F0FBFB4FF000000E
:1038A0000BB0BDE8F08FFEF737FA4FF48C7303FBD3
:1038B00009F3059303F62C57D5F8C036049006F5A6
:1038C000FB6B0744DB6A584698472B6B069006F55E
:1038D000A4761B6B30469847D5F8C0360790DB6B53
:1038E00058469847D5F8C0260990126C584690471C
:1038F0005FFA89F10890D8F85C02FFF749FD089A51
:10390000099B02900821019100923846DDE90612D8
:10391000FFF770FA1E4A02213846FFF72DFB11F01F
:1039200073F9012201463846FFF76CFCD8F85C3287
:1039300093F81C24174B53F82210069111F028F924
:103940000322034606993846FFF772FC2B6B64216D
:10395000DB6830469847DDE9043213446421D3F82C
:103960002C3D3846DB689847D5F8C0366421DB68C3
:1039700058469847DAF800305046DB68642198478B
:1039800009F101090AF1340A2E4646E79F32000880
:103990008080800028A002081F4B70B50446036099
:1039A00000F590501C30FDF745FE04F589500430B9
:1039B000FDF794FE04F583500C30FDF78FFE04F6FE
:1039C000B470FDF78BFE04F6686504F69C60FDF7A5
:1039D00015FF2846FDF72EFE04F5FB66AE4205D026
:1039E000A5F58C752846FDF709FFF7E704F5A475E2
:1039F000B54205D0A6F58C763046FDF7FFFEF7E719
:103A000004F11006B54204D0343D2846FDF712FEFD
:103A1000F8E7204670BD00BF6099020808B502486B
:103A2000FFF7BAFF08BD00BFE024002010B5044630
:103A3000FFF7B2FF204641F278210EF0C7FB204687
:103A400010BD017905292DE9F84398BF00210446EE
:103A500088BF012100F69C60FFF704FC04F5A47602
:103A6000002504F580594FF6FF77E9B2D9F85C02DA
:103A7000D6F84C8002F082FB4FF47F42404514BFE1
:103A80003946FF213046FFF75FFA2179A1EB050C9B
:103A9000DCF1000141EB0C0130460135FFF7E2FBA0
:103AA000062D06F58C76E0D1A1684B1E594259418E
:103AB00004F6B47012F0EAFCA168A1F10A025142C6
:103AC00004F5835051410C3012F0E0FCA168A1F1E3
:103AD00064004142414104F589500430BDE8F84397
:103AE00012F0D4BC2DE9F04700F580570446D7F812
:103AF0005C3293F81D2400F59050022A00F11C005E
:103B000034D193F8E4132F4D2F4B0022914218BF6C
:103B10001D46294610F099FB02F010FA237B90F81D
:103B20007063B34202D0032B23D02673FEF7F4F860
:103B30002649FEF7A3F9FEF7EFF82549FEF7CEF97F
:103B40000025A0462E46D7F85C02D0F81034062B8C
:103B500028BF06239D4208F58C7923D316B1204651
:103B6000FFF76FFF4FF00000BDE8F0871949002212
:103B7000D0E7012ED9D104F5A4780025D7F85C024E
:103B8000D0F81034062B28BF06239D42CDD2E9B2CF
:103B900002F0F4FA01464046FFF7FBF9013508F55B
:103BA0008C78EBE7E9B2D9F87CA002F0E7FAAAEB4F
:103BB000000108F5FB60FFF7ECF93043C6B20135B0
:103BC000C846C0E7D2820208C9820208D982020828
:103BD000DD820208AA83020800F6B4739942F7B5A1
:103BE000044608D10123A36000252046FFF729FFE2
:103BF000284603B0F0BD00F583530C33994201D140
:103C00000A23F0E700F589530433994201D1642374
:103C1000E9E700F58055D5F850328B4214D1D5F83C
:103C20005C0290F87033012B44D10193D4F8E83E44
:103C3000642253430093D4F8C433D4F8AC22D4F8AC
:103C4000941103F087FACFE7D5F854328B421FD195
:103C5000D5F85C3293F87033012B2BD100F5A477A3
:103C60000026D5F85C02D0F81034062B28BF0623B6
:103C70009E42B9D297F82C3033B1F1B202F07EFAFD
:103C800001463846FFF785F9013607F58C77E8E7F6
:103C900000F69C63994202D106232371A4E700F544
:103CA000A47200239142F8D00133062B02F58C72E6
:103CB000F8D199E7092598E72DE9F84F604B0360A3
:103CC000062303710A23836000230646037300F171
:103CD000100400F5A47520463434FDF74FFCAC42C7
:103CE000F9D106F5FB65204604F58C74FDF7B6FCAA
:103CF000AC42F8D106F66865204604F58C74FDF7F1
:103D0000ADFCAC42F8D12046FDF738FC06F69C60CD
:103D1000FDF7A4FC06F58E58DFF830B1DFF830A1CE
:103D200006F6B47408F11C080025204610F022FEA7
:103D30006FF07F4323630127C4F800B084F8345048
:103D400084F83550C4E90855C4E90A5504F138002F
:103D50004FF0FF3910F00EFEC4F838A0E566A4F865
:103D6000705084F8727084F8735084F8747084F81A
:103D7000755084F87650C4E91655C4E9199504F1D4
:103D8000780010F0F7FDC4F878A0C4F8AC50A4F89F
:103D9000B05084F8B27084F8B35084F8B47084F8EA
:103DA000B55084F8B650C4E92655C4E92995B8340D
:103DB0004445BAD1234B06F5805404F5EE7203F165
:103DC000180718685968154603C50833BB422A46C8
:103DD000F7D119889B78AB701B4B298004F2F7123E
:103DE00003F1240153F8040B42F8040B8B42F9D180
:103DF00006F590501C30FDF7C1FBFDF78DFF00F577
:103E0000AA500830C4F85002FDF786FF00F5B550FF
:103E10001830C4F854020EF015FAC4F8580202F033
:103E20008DF8002384F86C32C4F85C02C4E998333E
:103E3000C4E99C33C4F868323046BDE8F88F00BF4F
:103E400060990208BC7B0208D77B0208242703087C
:103E5000BCBE020810B50A4C2368BFF35B8FDB07BA
:103E60000CD420461EF063FE40B10648FFF724FF45
:103E7000054820F011FC20461EF065FE014810BDEB
:103E8000DC240020E02400201D3A0008A0B190F8B6
:103E90009430052B06D800EB8300436E0B44436639
:103EA0000020704700F5805393F8F030002BF7D0D6
:103EB000036E0B440366F3E7022070472DE9F843D5
:103EC000044604F01BF804F59C51183104F58056A3
:103ED00004F000F9201D10F040FDD6F88C03FEF729
:103EE0006DFE04F1A00804F668074FF4EC7540F687
:103EF0006809635960191B699847D8F80030404633
:103F00001B6998473B6838461B6905F58C759847CF
:103F10004D4508F1340807F1B807EAD140F6A45539
:103F200041F28407635960191B69B8359847BD424F
:103F3000F8D104F6B84010F010FD04F5576010F009
:103F40000CFD04F58650043010F007FD04F58E508A
:103F50001C3010F002FD04F59050103010F0FDFC04
:103F600004F59650083010F0F8FCD6F8800303688A
:103F70001B699847D6F8840303681B699847D6F8ED
:103F8000880303681B699847FDF7C6FE0021FDF70B
:103F9000DFFE4FF00000BDE8F88300002DE9F74395
:103FA000044604F58059FDF7B7FEFDF755FFFDF710
:103FB000B3FEFDF773FFD9F8943393F81D24022A5A
:103FC0000CD193F8E4138848884B0022914218BF23
:103FD0001846014604F5576010F037F904F5EC7601
:103FE0000025D9F89403D0F81034062B28BF0623F7
:103FF0009D42C0F0B68004F16003002653F8045FD0
:10400000002D00F0C780D4F898305D4326B990F8B1
:104010001D34022B08BF6D42F7B2394604EB860609
:1040200002F045F8724AF16F4EF66023002818BF7F
:1040300013460029726E80F29F80002A80F2A380CE
:1040400003F05CFF436FD4F89820142B38BF14237F
:1040500053433C2253430A22B3FBF2F34FF00008D0
:10406000CDF800802A46D9F89403394602F0AEFF15
:10407000C6F86480C5B2D9F8943393F8053404F5D2
:1040800090561036002B00F08A805A49304612F0C4
:1040900006F9D9F8943393F8043404F596570837A1
:1040A000002B7ED05449384612F0F9F8D4F89C0021
:1040B0004FF47A7111F00DFD68B1D9F89433D3ED56
:1040C000FF7AFCEEE77A04F5865017EE903A04305A
:1040D00099B2FEF75EFF236EDBB1D9F81021D4F858
:1040E000981004F5865001FB03210430FEF751FFC0
:1040F0000023236611F0EBFCC4F89C00D9F894036C
:1041000090F804342BB190F80524D9F8101103F07D
:1041100069FBD9F8943393F8E33304F6B84804F60E
:104120006804002B42D0D9F8943393F8703303F02D
:10413000FD03012B3FD1404612F071F92046B834FF
:1041400012F06DF9A045F9D1384612F068F9D9F8A6
:10415000943393F804343046002B3ED012F07AF9B1
:104160003DE0E9B202F00AF801463046FEF711FFE1
:10417000013506F58C7634E705D0002A3FF760AFAD
:104180004FF0FF3204E0002ACCBF01224FF0FF3293
:10419000F26763E70136062E7FF430AF6BE717490D
:1041A00074E71749384612F07AF894E706F06AFB8C
:1041B0008368032BB7D0D9F88C03FEF7FFFC404689
:1041C00012F048F92046B83412F044F9A045F9D16C
:1041D000384612F03FF93046C0E712F020F9284681
:1041E00003B0BDE8F08300BFD2820208C982020892
:1041F00080F52000E5820208E9820208E6820208D2
:10420000EE82020810B5044601F051FF044B08B1DC
:10421000986810BD94F81C2453F82200F9E700BFF9
:1042200028A002082DE9F04FD14B5B688FB003F056
:104230003F03CDE909120F1D04460B9310F0E4FC77
:104240000368DB6898470A9B1D1F04F580532D1AED
:10425000D3F89433D3F81034062B28BF0623023347
:10426000B5FBF3F5A5F10803049310F0CDFC03684A
:10427000DB689847049B00EB8000984207D210F05F
:10428000C3FC0368DB68984700EB80030493049B3E
:10429000089708330C9304F66803079300230693EA
:1042A00004F58053264604F1A0080593059B069A61
:1042B000D3E9E430D3F888B0D0F81034062B28BF07
:1042C00006239A4206F58C7708F13409C0F05E8126
:1042D00004F5845A04F6A4590AF1040A002704F5E7
:1042E00080564FF48C7BD6F89033D3F88810D6F8EC
:1042F0009433D3F81034062B28BF0623013B0BFB65
:1043000003F303F5EC7023441439D3F8D83189084A
:104310009B6B0591204498470599049B0A1D7A439D
:104320004FF00108CDE90013043200F108035146B3
:104330004846CDF8088011F00BFFFDF708F900237F
:1043400001461A46484612F0ACF84846032112F0DE
:1043500031F847444846002112F098F8042F09F13B
:10436000B8090AF10C0ABED1414604F6147012F0E5
:104370008DF8CDF80880B4F9E6310193B4F9DC3159
:104380007C49083B04F6B8490093B4F9DE313A465B
:10439000484611F0DDFEFDF7DAF8002301461A4623
:1043A000484612F07EF8B4F9DC91B4F9DEB110F0B1
:1043B0002BFC6FF07F4A09F108090BF1080B019003
:1043C0005B464A4604F557606A49CDF800A00FF0F5
:1043D000BCFED6F89033DDE90921D3F888304FF0E0
:1043E000000B0A440521CDE9011B04F58659049907
:1043F000009103EBD37309F1040943FA08F3043A7B
:10440000063B521A48463946FEF7F4FC3946FF226D
:104410004846FEF7B1FD10F0F7FB02220146484680
:10442000FEF7F0FED6F894334846B3F82214FEF7B0
:10443000B0FDD6F894334846B3F82024B3F82214DC
:10444000FEF7E8FD10F0E0FB4B4903460322484627
:10445000FEF7EEFEFDF77BF85B465A4601464846FE
:10446000FEF719FF414686F8D4804846FEF7FAFE6B
:1044700010F0CAFB04F58E5909F11C09CDE900A022
:104480005B465A4648463D490FF05FFEB6F9CA20E2
:10449000B6F9C8105B4608320831484610F096FA63
:1044A000049BB6F9CC20CDF808800193B6F9D03042
:1044B0003349043B03EBD37343FA08F304F59059F3
:1044C00009F110090093B6F9CA300532484611F0D7
:1044D0003FFEFDF73CF85B4601465A46484611F060
:1044E000E0FF049BB6F91822CDF808800193B6F9D5
:1044F0001C32009304F5965909F10809B6F91632F1
:1045000020490532484611F023FEFDF720F85B46AE
:1045100001465A46484611F0C4FF0B9B1A4ACDE9A2
:10452000018304F1380525232821009328465B46A2
:1045300021F090F8B4F9AE9DB6F9CA6010F064FBB2
:104540000368DB689847804610F05EFBA6EB09061F
:10455000A6EB0806CDE900A009EB5603201D3A465C
:1045600029460FF0F2FD58460FB0BDE8F08F00BFAE
:1045700000380240AA830208F8820208FC8202087E
:10458000E6820208EE820208048302089DF818A061
:104590005146FEF7FDFE08220192049A009206F5AC
:1045A000EC760622ABF108030290114630469BFBE5
:1045B000F1F19B0093FBF2F3089AFEF71BFCFF223C
:1045C00004213046FEF7D8FC10F01EFB0222014603
:1045D0003046FEF717FE00213046FEF7DAFC059B59
:1045E0005146D3F89403FFF70DFE834610F00CFB01
:1045F0005946034603223046FEF71AFEFCF7A7FF92
:1046000000231A4601463046FEF745FED7F8C03073
:1046100030469B6C01219847059B5146D3F8940383
:1046200001F03BFD824610F079FA6FF07F43009372
:1046300000231A465146019040460FF086FD0221A4
:1046400040460FF0E7FD59F8343CDB691D46D7F8CA
:10465000C0303046DB6A984759F8343C8346DB6B00
:104660004046984700EBD0700BEBDB734FEA600BD2
:10467000CBEB630BD7F8C03030461B6B9847D7F8AD
:10468000C03082461B6C3046984759F8343C00EBEA
:10469000D0700AEB600A1B6C4046984700EBD07064
:1046A000AAEB6002594600234046A847D7F8C0301D
:1046B00030465B6B9847D7F8C03082461B6B30465C
:1046C0009847059BD3F89033D3F88810D7F8C030BB
:1046D0000D915B6B834630469847D7F8C0208046E3
:1046E000126C304690470D99A1EB0808A8F1080319
:1046F0000122CDE901020E49079800930AF1040254
:104700005B4611F025FDFCF722FF00231A46014607
:10471000079811F0C6FE069B0C9A01330693089B7E
:1047200013440893079BB8330793C8463E46BDE53C
:10473000F4820208264B70B50446036000F59650DB
:104740000830FCF7CBFF04F590501030FCF7C6FFA3
:1047500004F58E501C30FCF76DFF04F586500430D4
:10476000FDF74CF804F58455043504F6A456B5421B
:1047700004D0B83D2846FCF7B1FFF8E704F55760D0
:1047800004F6B845FCF756FF2846FCF7A7FF04F6E9
:104790006806AE4204D0B83D2846FCF79FFFF8E714
:1047A00004F5EC75B54205D0A6F58C763046FDF7DC
:1047B00025F8F7E704F1A006B54204D0343D2846B9
:1047C000FCF738FFF8E7201DFCF734FF204670BDEA
:1047D0008499020808B50248FFF7ACFF08BD00BF86
:1047E0005C37002010B50446FFF7A4FF204641F2D5
:1047F000B0310DF0EBFC204610BD10B50021044691
:1048000000F6A45011F042FE04F65C60002111F0A5
:104810003DFE04F61470002111F038FE04F6CC7051
:104820000021BDE8104011F031BE00002DE9F04F2D
:1048300000F5845500F5855687B0044604351036DA
:1048400000F6A458002700F5805900232B606B6008
:10485000AB6094F89410D9F89403052967D890F8C0
:104860001C34002B14BF4FF0090A4FF0050A01F069
:104870001EFC002818BF4FF00D0A06F003F8BA44DA
:104880005FFA8AFA00EB8A00D9F894A3D0F804B052
:1048900094F89410C6F804B0504601F008FC2E4B72
:1048A00000283FD09A6894F89410D9F894030592A0
:1048B000FFF7A8FC94F894100490D9F8940301F041
:1048C000F6FB049B059A0290019300925B460C2232
:1048D0002946504601F034FE6B1E002213F8011FDA
:1048E000202934D10C2303FB0743134441F28402F3
:1048F0000A219954D8F800306421DB684046984773
:1049000098F8343013B17368C4F898300137042F25
:1049100005F10C0506F1040608F1B80895D107B0B9
:10492000BDE8F08F9AF81C2453F82220BBE767B14A
:1049300033680A225343002273600292074A0192AD
:104940000122009229460C22C4E70123F3E7013239
:104950000C2AC3D1CEE700BF10A0020823830208AF
:104960002DE9F74F0446012104300FF0E6FF04F56E
:10497000EC7604F6680704F1A008B1464FF0000B8E
:10498000BA4604F58055D5F89433D3F81034062B85
:1049900028BF06239B4578D3062384F894303046FD
:1049A000002106F58C76FEF75DFCB245F7D1204676
:1049B000FFF73CFF3022002104F1640020F019FFD2
:1049C00000232366D5F8943393F81D34022B09D1C4
:1049D000652104F557600FF0B0FF632104F6B8407D
:1049E0000FF0ABFF04F586560436642130460FF015
:1049F000A4FF00213046FEF735FC04F58E506521FA
:104A00001C300FF09AFF04F59050642110300FF025
:104A100094FF04F59650642108300FF08EFFD5F80E
:104A20009433B3F81E34DB070FD5FDF775F9012178
:104A3000FDF78EF92149D5F8840311F030FCD5F843
:104A4000840303686621DB689847D5F88003036810
:104A50006621DB689847D5F8880303686621DB6820
:104A6000984703F04BFA0546FCF771FD04F59C539B
:104A70001833014600932846114A234603F009FBE8
:104A80004FF0000003B0BDE8F08FD9F8003064218A
:104A9000DB6848469847D8F800306421DB68404618
:104AA00098473B683846DB68642198470BF1010B57
:104AB00009F58C7908F13408B83764E727830208D0
:104AC0008D3E00082DE9F04F00F580558BB0D5F8EC
:104AD00080338B4204460E4600F01E81D5F88833A1
:104AE0008B4200F01981D5F884338B420BD100231F
:104AF0008A49D5F89403099309AA02F0A1F9002084
:104B00000BB0BDE8F08F00F6B84399420DD1D5F84F
:104B1000940390F8E43323B100238149099309AA4F
:104B2000EBE78049099309AAE7E7D5F88C338B4274
:104B30000AD11A7C002AE2D0D3F81C21197BD5F8BF
:104B4000940302F071FCDAE700F5965308339942BA
:104B50000ED1D5F8940390F8043413B102F094FE0A
:104B6000CDE790F80524D5F8101102F03BFEC6E71A
:104B700000F590531033994211D000F6A457B94272
:104B800016D000F65C67B94222D000F61477B9421D
:104B900020D000F6CC77B9421ED1032509E0D5F824
:104BA000940390F8051481F0010102F04BFEA6E792
:104BB000002505F22C45204604EB8505FFF71DFE78
:104BC0000121384611F062FC6B68C4F8983096E712
:104BD0000125EEE70225ECE700F5EC7700F6680A20
:104BE000B9464FF00008B14540F08D8099F82C305F
:104BF0005FFA88FB002B3FD0D5F88C33D5F89403AF
:104C00000493594601F049FA0590D5F89403464BB0
:104C100090F81C24594653F82220D9F84C300792BA
:104C20000693FEF7B5FB0221CDE902013F4B404957
:104C3000CDE90013DDE90632DDE90401FDF716FEDA
:104C4000D5F88CB3FCF783FC002301461A4658467E
:104C5000FDF7A3FDD5F88C0342F21071C0F80C806B
:104C6000FDF7C8FD08F10108B8F1060F09F58C79C8
:104C70000AF1B80AB7D119E004F6680AB846404606
:104C8000002108F58C78FEF7EDFAD045F7D104F550
:104C9000865000210430FEF7E5FA48460121FEF770
:104CA000E1FA84F894B02046FFF7C0FD04F5865879
:104CB00008F10408B0457FF422AFD5F89403D0F88A
:104CC0000834642B0AD0992101F032FBD5F8940303
:104CD000D5F8101190F8052402F084FD012140461A
:104CE000FEF7C0FA062384F8943004F668053846C7
:104CF000002107F58C77FEF7B5FAAF42F7D12046D1
:104D0000FFF794FDFBE65645ACD1D5F894035FFA66
:104D100088F102F05BFBA5E70920F1E62C8302088D
:104D2000308302083483020828A002088096980085
:104D3000806967FF4E4B70B5044640F8043BFCF7B2
:104D40001DFC00252822002104F1380020F051FD2F
:104D500029462566182204F1640020F04AFD294600
:104D6000182204F17C0020F044FD062384F89430DE
:104D70000123C4E9263504F5EC7604F1A0052846A4
:104D80003435FCF7FBFBB542F9D104F6680628463A
:104D900005F58C75FCF762FCB542F8D104F6B8460F
:104DA0002846B835FCF716FCAE42F9D13046FCF780
:104DB00011FC04F55760FCF7E1FB04F5845604F69A
:104DC000A45504362846B835FCF704FCAE42F9D1A8
:104DD00004F580553022002105F1840020F009FD02
:104DE0001022002105F1B40020F003FD04F58650E7
:104DF0000430FCF733FC04F58E501C30FCF7BEFB8E
:104E000004F590501030FCF7E5FB04F5965008309F
:104E1000FCF7E0FBFCF780FF00F5AA500830C5F86E
:104E20008003FCF779FF00F5B050C5F88403FCF768
:104E300073FF00F5B5501830C5F88803FCF76CFF18
:104E400000F5D0501430C5F88C030DF0FBF9C5F80F
:104E5000900301F073F8002385F8A433C5F8940398
:104E6000C5E9E633C5E9EA33C5F8A033204670BD8D
:104E70008499020810B50A4C2368BFF35B8FDB07E7
:104E80000CD420461DF053FE40B10648FFF752FFF8
:104E900005481FF001FC20461DF055FE014810BDDD
:104EA000583700205C370020D54700084FF000003D
:104EB000704738B50446FCF72FFF0546FDF744F868
:104EC00005F5A75004F58B5542F2107114301435D6
:104ED0000FF033FD4FF4FA6128460BF0C8FF63680A
:104EE0001BB9012128460CF03BFA236829469B692F
:104EF000204698474FF0000038BD10B50446FCF737
:104F00000BFF00F5A75014300FF027FD04F50053F8
:104F1000D3F87002FDF752FE04F50150103005F091
:104F20001CFA04F58B5014300BF0B0FF4FF000006A
:104F300010BD00002DE9F04385B0044688461546B3
:104F400000F58B560DF07EF928230222CDE90032C0
:104F50001436D0F888304246002130460BF0D5FF99
:104F60000FF0A2FD002319462D4A009030460CF0A8
:104F70002AF90FF099FD2B4A0090002301213046B9
:104F80000CF021F9FCF7E3FA002301461A463046FB
:104F900004F5C6570CF007FA103704F5A55304F5CD
:104FA000015210333E4610322121C6E900313C3611
:104FB000964203F12103F8D1FCF7C9FA04F58059B0
:104FC000194B0093014622463046184B05F0CDF8A8
:104FD00004F50054B9F982319844D4F8A432D3F8D6
:104FE00088400FF011FE0368DB689847B9F98231F9
:104FF000CDF80080083DED1AA5EB400500232022E6
:105000003946CDE90145304605F09AF93046002190
:1050100005F0D4F94FF0000005B0BDE8F08300BF03
:10502000948F0208388302080D5500084D57000878
:1050300010B50446FCF78BFAA04205D1BDE810403C
:105040000021283010F097BD10BD10B50446FCF7C4
:105050007EFA844206D104F128000021BDE8104008
:1050600010F0C1BD4FF00D0010BD0000204B2DE928
:10507000F041044603601F4BC0F8F8321E4FDFF8C2
:10508000808000F53E7004F532750FF085FCC4F8A1
:10509000C87228460FF080FC04F5C876AE4205D0F1
:1050A00045F8348D28460FF077FCF7E7DFF8548099
:1050B00004F58075B54205D046F8308D30460FF0C6
:1050C0006BFCF7E704F17006B54205D045F8307D7A
:1050D00028460FF061FCF7E72046084B40F8443FB4
:1050E0000FF05AFC20460FF057FC2046BDE8F08137
:1050F000D8AE02086CBF020814BF020874C00208D0
:105100001CC0020864B60208F8B5194B03600446D7
:1051100000F5015500F50650FCF7E0FA04F50056DD
:1051200005F18800FCF7DAFA124BC6F8943004F562
:10513000025014300FF030FC0F4B336604F5015071
:1051400020300FF029FC04F5C6560C4F10351036F0
:10515000B54206D03C3D284640F8087F0FF01CFCC5
:10516000F6E704F58B501430FFF780FF2046F8BDBA
:10517000A899020814BF020874C002081CC00208E3
:1051800008B50248FFF7C0FF08BD00BF104B002064
:1051900010B50446FFF7B8FF204642F2AC210DF0EF
:1051A00015F8204610BD10B50446FFF75FFF2046F6
:1051B0004FF447710DF00AF8204610BD08B50022E3
:1051C0001146083003F063F809F0A6FFBDE8084077
:1051D00009F0E8BB13B50446FFF7F0FF606818B1AB
:1051E0000CF0F2FF002363600022114604F1080076
:1051F00003F048F80FF058FC0023009004F58B50A2
:10520000054A194614300BF0DEFFFCF785FD02B0AD
:10521000BDE81040FCF798BE948F020838B50D46E3
:105220000446FFF7D7FF074928460CF0CBFF606024
:1052300008B100230370FCF76FFDFCF785FE606882
:1052400038BD00BFE42B030870B50D460646FFF7D6
:10525000B5FF09F061FF294609F022FD2A680446DE
:10526000014606F1080003F012F8204670BD000068
:10527000F7B51446002501AA0830089F01951E467F
:1052800003F031F820BB002003B0F0BD3B2B08BF7A
:1052900001320131019101990B780D2B1BD9BA42D2
:1052A000F4D30B78202B0A4601F101011AD0092B07
:1052B00018D00D2B05D842F2014121FA03F3DD0786
:1052C000E1D4013AA519AC420ED1002EDCD016E093
:1052D0002A460F4DDFE745FA03F3DB07E1D5BA4273
:1052E000D7D3DEE70191DCE712F8013F0D2B0AD896
:1052F00042F20141D940C90707D50023237000239A
:1053000005F8013CC0E73B2BF7D004F8013BDAE796
:10531000FEDBFFFF2DE9F3410024009405460E4615
:1053200017469846FFF7A4FF044630B943463A466D
:10533000314605F1080003F019F9204602B0BDE836
:10534000F08137B5022500951446FFF791FF00B9AB
:10535000207003B030BD37B5069D02350095144668
:10536000FFF786FF08B904B1207003B030BD73B5F4
:1053700005460E460024002300941A46314628466E
:10538000FFF7E9FF10B9204602B070BD0134F2E723
:10539000F7B51646002401AA08301F46019402F012
:1053A000A2FF054648B90025284603B0F0BD3B29B9
:1053B00000F1010008BF01340190019801780A2929
:1053C00006D00D2904D019B1BC42F0D30D2904D860
:1053D00042F20143CB40DB07E5D41FF066F93060B1
:1053E000E2E710B501231446FFF7D2FF08B9012305
:1053F000236010BD07B5002301AA0193FFF7F1FF59
:1054000018B10198B0FA80F0400903B000BD000067
:105410002DE9F04F95B005461822002108A820F08C
:10542000E8F90DF11809182200210EA820F0E1F981
:105430000024012305F5C65605F50157D5F87CA0D3
:105440000694C9F8044004931036A3461037544517
:1054500043D01F2C02D115B0BDE8F08F05AA21461C
:1054600005F10800CDF814B002F020FF182308AAB7
:1054700021462846FFF74EFF21462846FFF7BAFF90
:10548000804680B1059B00930EAA1823214628462A
:10549000FFF761FF0EAB314608AA384604F06CFEF8
:1054A00001343C36D3E704AA21462846FFF799FF8A
:1054B00008234A4621462846FFF743FFCDE90198D5
:1054C000049B009305F50050059BD0F8A802182214
:1054D0000EA901F035F80346DDE71F2CBBD03C23B5
:1054E00003FB045105F50156103601F5C651054B75
:1054F000054A1031304604F03FFE611C304604F08E
:105500005DFFA8E7AA8302084083020810B504469D
:1055100090B100F58052D2F8AC2152B9C26F9142DD
:1055200005D2083003F09EFC2046FFF771FF0020F3
:1055300010BDFFF74FFEFAE70220F9E72DE9F04131
:1055400000F58B5514358D429AB0044640F0BF806B
:1055500000F58053D3F8AC31012B40F0A480FBF769
:10556000F6FFFFF772FD1CF0EDF96749674800226E
:1055700019F09EF9E0B1002604F5A5523346103229
:1055800000211F2B40F28A8004F50154FBF7DFFF56
:105590001034FFF74DFD3146204604F00FFF642123
:1055A000204604F059FF4FF000001AB0BDE8F0812A
:1055B00057490DA819F0E5FD06460028DBD102AFDA
:1055C00039460DA819F03EFE0546002855D19DF834
:1055D0001E30002B51D00DF11D0313F8012F72B1B5
:1055E0000135152DF9D10323ED1A05F11708B8443B
:1055F000E5B118F8013D2E2B06D0013DF8E7032D4B
:1056000034BF00230323EFE798F802001FF054FF94
:105610007328F2D100F092FC90F81D348BBB98F8FF
:1056200001001FF049FF6D282BD101259DF8103096
:10563000DB06C5D4002DC3D03C21714301F5C65013
:10564000029B01931830251821440DF11E0341F6E9
:10565000D00041F6D40200938A582E4B09580136E7
:1056600028460EF034FE202EAAD104F50051D1E9CF
:105670000512294B28460EF02AFE0DA819F0CAFD86
:105680007AE700F05BFC90F81D34022BB5D198F856
:1056900001001FF011FF6C28AFD1C6E703EB4310E8
:1056A000013311546DE7436800F50154103453B1D0
:1056B000FFF7AEFE6421204604F0CEFE002128460E
:1056C0000BF04EFE6FE7204604F047FE6BE700F557
:1056D0000052D2F870328B420DD11A7C002A3FF46E
:1056E00062AFD3F81C21D968083002F0EEFD2046E5
:1056F000FFF78EFE57E7D2F86C328B427FF453AF40
:10570000FFF75CFD4FE700BF48CD012010CB012023
:1057100038830208498302085883020810B503231E
:105720001446FFF735FE08B9014B236010BD00BFDA
:10573000806967FF10B504231446FFF729FE08B9F6
:10574000014B236010BD00BF809698002DE9F04307
:105750000D4691B00446002800F0D78100F5805333
:10576000D3F8AC61002E40F0E4804368002B60D099
:10577000C36F8B426FD100F50055D5F8A83293F86E
:105780007033012B08D807A90796FFF75DFD074680
:1057900080B9B84A022301E0B74A0223B749D5F8D5
:1057A0006C0204F0CDFED5F86C0242F2107104F0E8
:1057B000C9FF3EE00834204604F00AF800283CD037
:1057C00005F060F8436933B3FBF7C1FEFFF73DFC1A
:1057D000AB49AC48324619F06BF8C0B9AA49AB489E
:1057E0000A2219F0A1F890B909F096FC056909F0B0
:1057F00093FC006910B1FAF7FDFC0646A34808AB1C
:105800003246294619F065FAA04819F091FBFBF7DA
:105810009EFEFFF70DFCFCF77FFA054609F07CFCC5
:1058200001462846FCF769FB00221146204602F09B
:105830002EFD002011B0BDE8F0839049D5F86C0230
:1058400002233A4604F07CFED5F86C0242F2107155
:1058500004F078FFE8E700F1080904F5095801238E
:1058600005AA484608F134080693059602F01EFD85
:105870002023424629462046FFF74CFD06AA29462A
:105880002046FFF7AEFD069FA7B9059B29460133C9
:1058900020460593FFF76BFD059A9042D8BF3A4624
:1058A00029464846D8BF059702F00FFD2046FFF76E
:1058B000AFFDBEE707AA2946204604F50A59CDE9FF
:1058C000076609F11409FFF729FF08AA29462046AF
:1058D000FFF730FF10234A4629462046FFF731FDE7
:1058E0000A23092F21DC0123CDE90263089B0193E0
:1058F00004F50057079B00934A46059BD7F87002B2
:105900004146FCF7B3FFD7F87062FBF720FE002397
:1059100001461A463046FCF740FFD7F8700242F2C3
:105920001071C560FCF766FFC0E7013697FBF3F71F
:10593000D7E708AE2022564930461FF081FF304697
:10594000FAF758FC3C2305FB034303F5C65337180D
:105950000022C0F1200010331968895CB954B1B934
:1059600000228DF83F200DF13F0313F80119202983
:1059700011D9DFF8188131460122404618F0D4FFD2
:10598000064660B1434A04F500540223ACE00132FC
:105990009042E1D1E4E7B3425A70E6D1E9E7D8F8A2
:1059A0000C9009F1010739462046FFF737FC002823
:1059B00000F0A68006AB3A4661680696404619F0AC
:1059C000C1F86268069BD65420B9069EA6EB09036F
:1059D0005E425E4104F108093A466168484602F0B9
:1059E00051FC002707A920460797FFF72DFC8046AA
:1059F00000286ED0002E6CD0484604F013FA0646FC
:105A0000002849D03C2305FB034341F6D0029858B7
:105A100004F5A4520F323B46C15C02F8011F21B1CC
:105A20002E2902D001331F2BF6D1E11841F2904705
:105A30000026CE550FF038F804F58B551435334653
:105A4000E2193146009028460BF0BDFB2046FFF7D7
:105A5000DFFC04F501506421103004F0FDFC284601
:105A600031460BF07DFC2046FFF7A8FB074819F0F4
:105A70005FFADEE66E830208AB830208C38C02087D
:105A800048CD012010CB0120D6830208E0C80120B8
:105A9000E08302081284020804F5095504F5005752
:105AA000343541461F2228461FF0CAFE02232A46EB
:105AB0001749D7F86C0287F8936204F041FDD7F8D4
:105AC0006C0242F2107104F03DFE2046FFF782FBAB
:105AD000CCE72046FFF77EFB0E4A0F4904F5005441
