:020000040800F2
:10000000000002201D2D0208D1230208D32302087C
:10001000D5230208D7230208D923020800000000D4
:10002000000000000000000000000000D1150208E0
:10003000DB2302080000000061160208DD2302082D
:100040006D2D02086D2D02086D2D02086D2D020820
:100050006D2D02086D2D02086D2D02086D2D020810
:100060006D2D02086D2D02086D2D02086D2D020800
:100070006D2D02086D2D02086D2D02086D2D0208F0
:100080006D2D02086D2D02086D2D02080000000084
:100090000000000000000000000000006D2D0208BC
:1000A0006D2D02086D2D02086D2D02086D2D0208C0
:1000B0006D2D02086D2D02086D2D02086D2D0208B0
:1000C0006D2D02086D2D02086D2D02086D2D0208A0
:1000D0006D2D0208F52302086D2D020800000000B6
:1000E0006D2D02086D2D02086D2D02080000000024
:1000F0000000000000000000000000006D2D02085C
:1001000000000000012402086D2D02086D2D020878
:1001100000000000000000000000000000000000DF
:100120006D2D02086D2D02080D2402081924020805
:100130006D2D02080000000000000000000000001B
:10014000000000000000000000000000252402085C
:10015000312402086D2D02083D2402086D2D02088D
:100160006D2D02086D2D0208000000000000000047
:10017000000000000000000000000000000000007F
:10018000000000006D2D02080000000000000000CB
:080190006D2D02086D2D02081F
:1001A00010B5054C237833B9044B13B10448AFF3B1
:1001B00000800123237010BD100300200000000008
:1001C000A87D020808B5034B1BB103490348AFF3F0
:1001D000008008BD0000000014030020A87D020874
:1001E00010F8012B11F8013B012A28BF9A42F7D0E1
:1001F000D01A7047034613F8012B002AFBD1181AB6
:1002000001387047000000000000000000000000FE
:1002100001F0FF01102A2BDB10F0070F08D010F8B7
:10022000013B013A8B422DD010F0070F42B3F6D1BB
:10023000F0B441EA012141EA014122F007047FF0D4
:1002400000070023F0E80256083C85EA010586EA2B
:10025000010685FA47F5A3FA87F586FA47F6A5FA67
:1002600087F68EB9EED1F0BC01F0FF0102F0070273
:1002700032B110F8013B013A83EA010313B1F8D11E
:100280000020704701387047002D06BF35460338FF
:10029000073815F0010F07D1013015F4807F02BF38
:1002A000013015F4C03F0130F0BC0138704700BF89
:1002B00081F0004102E000BF83F0004330B54FEA17
:1002C00041044FEA430594EA050F08BF90EA020F84
:1002D0001FBF54EA000C55EA020C7FEA645C7FEA17
:1002E000655C00F0E2804FEA5454D4EB5555B8BF3A
:1002F0006D420CDD2C4480EA020281EA030382EAAB
:10030000000083EA010180EA020281EA0303362D3C
:1003100088BF30BD11F0004F4FEA01314FF4801C0F
:100320004CEA113102D0404261EB410113F0004F21
:100330004FEA03334CEA133302D0524263EB4303D8
:1003400094EA050F00F0A780A4F10104D5F1200E76
:100350000DDB02FA0EFC22FA05F2801841F10001D1
:1003600003FA0EF2801843FA05F359410EE0A5F1A5
:1003700020050EF1200E012A03FA0EFC28BF4CF0D6
:10038000020C43FA05F3C01851EBE37101F000458C
:1003900007D54FF0000EDCF1000C7EEB00006EEB99
:1003A0000101B1F5801F1BD3B1F5001F0CD3490823
:1003B0005FEA30004FEA3C0C04F101044FEA44527A
:1003C00012F5800F80F09A80BCF1004F08BF5FEA01
:1003D000500C50F1000041EB045141EA050130BDE1
:1003E0005FEA4C0C404141EB0101013C28BFB1F5F3
:1003F000801FE9D291F0000F04BF01460020B1FA3E
:1004000081F308BF2033A3F10B03B3F120020CDA10
:100410000C3208DD02F1140CC2F10C0201FA0CF0EE
:1004200021FA02F10CE002F11402D8BFC2F1200C53
:1004300001FA02F120FA0CFCDCBF41EA0C01904009
:10044000E41AA2BF01EB0451294330BD6FEA040452
:100450001F3C1CDA0C340EDC04F11404C4F120023D
:1004600020FA04F001FA02F340EA030021FA04F34F
:1004700045EA030130BDC4F10C04C4F1200220FAA6
:1004800002F001FA04F340EA0300294630BD21FAE4
:1004900004F0294630BD94F0000F83F4801306BFAA
:1004A00081F480110134013D4EE77FEA645C18BF9E
:1004B0007FEA655C29D094EA050F08BF90EA020F35
:1004C00005D054EA000C04BF1946104630BD91EA2D
:1004D000030F1EBF0021002030BD5FEA545C05D130
:1004E0004000494128BF41F0004130BD14F580046F
:1004F0003CBF01F5801130BD01F0004545F0FE41E3
:1005000041F470014FF0000030BD7FEA645C1ABF17
:10051000194610467FEA655C1CBF0B46024650EA4E
:10052000013406BF52EA033591EA030F41F400217A
:1005300030BD00BF90F0000F04BF0021704730B500
:100540004FF4806404F132044FF000054FF00001D5
:1005500050E700BF90F0000F04BF0021704730B596
:100560004FF4806404F1320410F0004548BF40426B
:100570004FF000013EE700BF42004FEAE2014FEAC0
:1005800031014FEA02701FBF12F07F4393F07F4F9B
:1005900081F06051704732F07F4208BF704793F09E
:1005A0007F4F04BF41F40021704730B54FF46074B1
:1005B00001F0004521F000411CE700BF50EA0102B4
:1005C00008BF704730B54FF000050AE050EA01025D
:1005D00008BF704730B511F0004502D5404261EBCD
:1005E00041014FF4806404F132045FEA915C3FF40E
:1005F000D8AE4FF003025FEADC0C18BF03325FEAAB
:10060000DC0C18BF033202EBDC02C2F1200300FA5B
:1006100003FC20FA02F001FA03FE40EA0E0021FA80
:1006200002F11444BDE600BF70B54FF0FF0C4CF46E
:10063000E06C1CEA11541DBF1CEA135594EA0C0F20
:1006400095EA0C0F00F0DEF82C4481EA030621EA5B
:100650004C5123EA4C5350EA013518BF52EA033596
:1006600041F4801143F4801338D0A0FB02CE4FF048
:100670000005E1FB02E506F00042E0FB03E54FF078
:100680000006E1FB03569CF0000F18BF4EF0010E70
:10069000A4F1FF04B6F5007F64F5407404D25FEA6C
:1006A0004E0E6D4146EB060642EAC62141EA55511F
:1006B0004FEAC52040EA5E504FEACE2EB4F1FD0C61
:1006C00088BFBCF5E06F1ED8BEF1004F08BF5FEADF
:1006D000500E50F1000041EB045170BD06F0004691
:1006E00046EA010140EA020081EA0301B4EB5C043E
:1006F000C2BFD4EB0C0541EA045170BD41F4801136
:100700004FF0000E013C00F3AB8014F1360FDEBF5A
:10071000002001F0004170BDC4F10004203C35DA36
:100720000C341BDC04F11404C4F1200500FA05F3B9
:1007300020FA04F001FA05F240EA020001F000425A
:1007400021F0004110EBD37021FA04F642EB0601D0
:100750005EEA430E08BF20EAD37070BDC4F10C04FA
:10076000C4F1200500FA04F320FA05F001FA04F2BE
:1007700040EA020001F0004110EBD37041F10001AA
:100780005EEA430E08BF20EAD37070BDC4F12005B5
:1007900000FA05F24EEA020E20FA04F301FA05F21D
:1007A00043EA020321FA04F001F0004121FA04F2C5
:1007B00020EA020000EBD3705EEA430E08BF20EA95
:1007C000D37070BD94F0000F0FD101F000464000CF
:1007D00041EB010111F4801F08BF013CF7D041EA51
:1007E000060195F0000F18BF704703F00046520055
:1007F00043EB030313F4801F08BF013DF7D043EA26
:100800000603704794EA0C0F0CEA135518BF95EADB
:100810000C0F0CD050EA410618BF52EA4306D1D162
:1008200081EA030101F000414FF0000070BD50EA81
:10083000410606BF1046194652EA430619D094EA0B
:100840000C0F02D150EA013613D195EA0C0F05D1F5
:1008500052EA03361CBF104619460AD181EA030149
:1008600001F0004141F0FE4141F470014FF0000001
:1008700070BD41F0FE4141F4780170BD70B54FF09C
:10088000FF0C4CF4E06C1CEA11541DBF1CEA13551C
:1008900094EA0C0F95EA0C0F00F0A7F8A4EB0504FE
:1008A00081EA030E52EA03354FEA013100F08880F5
:1008B0004FEA03334FF0805545EA131343EA1263BE
:1008C0004FEA022245EA111545EA10654FEA002673
:1008D0000EF000419D4208BF964244F1FD0404F52C
:1008E000407402D25B084FEA3202B61A65EB030588
:1008F0005B084FEA32024FF480104FF4002CB6EB45
:10090000020E75EB030E22BFB61A754640EA0C00C4
:100910005B084FEA3202B6EB020E75EB030E22BF04
:10092000B61A754640EA5C005B084FEA3202B6EB45
:10093000020E75EB030E22BFB61A754640EA9C0004
:100940005B084FEA3202B6EB020E75EB030E22BFD4
:10095000B61A754640EADC0055EA060E18D04FEA92
:10096000051545EA16754FEA06164FEAC30343EA32
:1009700052734FEAC2025FEA1C1CC0D111F4801FFF
:100980000BD141EA00014FF000004FF0004CB6E7F8
:1009900011F4801F04BF01430020B4F1FD0C88BF97
:1009A000BCF5E06F3FF6AFAEB5EB030C04BFB6EBA2
:1009B000020C5FEA500C50F1000041EB045170BD95
:1009C0000EF0004E4EEA113114EB5C04C2BFD4EBC2
:1009D0000C0541EA045170BD41F480114FF0000E46
:1009E000013C90E645EA060E8DE60CEA135594EAC2
:1009F0000C0F08BF95EA0C0F3FF43BAF94EA0C0FC5
:100A00000AD150EA01347FF434AF95EA0C0F7FF439
:100A100025AF104619462CE795EA0C0F06D152EA8D
:100A200003353FF4FDAE1046194622E750EA410671
:100A300018BF52EA43067FF4C5AE50EA41047FF482
:100A40000DAF52EA43057FF4EBAE12E74FF0FF3CE7
:100A500006E000BF4FF0010C02E000BF4FF0010CB8
:100A60004DF804CD4FEA410C7FEA6C5C4FEA430C31
:100A700018BF7FEA6C5C1BD001B050EA410C0CBF80
:100A800052EA430C91EA030F02BF90EA020F0020E2
:100A9000704710F1000F91EA030F58BF994208BF49
:100AA00090422CBFD8176FEAE37040F00100704706
:100AB0004FEA410C7FEA6C5C02D150EA013C07D15D
:100AC0004FEA430C7FEA6C5CD6D152EA033CD3D0A8
:100AD0005DF8040B704700BF8446104662468C46A2
:100AE0001946634600E000BF01B5FFF7B7FF0028D5
:100AF00048BF10F1000F01BD4DF808EDFFF7F4FFFE
:100B00000CBF012000205DF808FB00BF4DF808ED88
:100B1000FFF7EAFF34BF012000205DF808FB00BFAB
:100B20004DF808EDFFF7E0FF94BF012000205DF8CD
:100B300008FB00BF4DF808EDFFF7CEFF94BF012082
:100B400000205DF808FB00BF4DF808EDFFF7C4FF7B
:100B500034BF012000205DF808FB00BF4FEA410CC4
:100B60007FEA6C5C02D150EA013C0AD14FEA430CA7
:100B70007FEA6C5C02D152EA033C02D14FF00000E4
:100B800070474FF0010070474FEA410212F5001222
:100B900015D211D56FF47873B3EB625212D94FEAC4
:100BA000C12343F0004343EA505311F0004F23FAAE
:100BB00002F018BF404270474FF00000704750EA03
:100BC000013005D111F0004008BF6FF000407047C0
:100BD0004FF00000704700BF4A0011D212F500121A
:100BE00011D20DD56FF47873B3EB62520ED44FEA85
:100BF000C12343F0004343EA505323FA02F0704705
:100C00004FF00000704750EA013002D14FF0FF3042
:100C100070474FF0000070474FEA4102B2F1E043E5
:100C200024BFB3F5001CDCF1FE5C0DD901F0004CD3
:100C30004FEAC0024CEA5070B2F1004F40EB830023
:100C400008BF20F00100704711F0804F21D113F14F
:100C50003872BCBF01F00040704741F480114FEA88
:100C60005252C2F11802C2F1200C10FA0CF320FA11
:100C700002F018BF40F001004FEAC1234FEAD3232E
:100C800003FA0CFC40EA0C0023FA02F34FEA430398
:100C9000CCE77FEA625307D150EA01331EBF4FF021
:100CA000FE4040F44000704701F0004040F0FE403C
:100CB00040F40000704700BF53B94AB9002908BF8B
:100CC00000281CBF4FF0FF314FF0FF3000F0BEB9DD
:100CD000ADF1080C6DE904CE00F03CF8DDF804E05D
:100CE000DDE9022304B0704738B500220023044632
:100CF0000D46FFF70BFF28B920462946BDE83840CE
:100D000000F00AB8204605F1004100F005F8404225
:100D100061EB410138BD00BFD0B50C4B0022064647
:100D20000F46FFF781FCFFF757FF0446FFF702FC71
:100D3000074B0022FFF778FC02460B463046394647
:100D4000FFF7BAFAFFF748FF2146D0BD0000F03D9B
:100D50000000F0412DE9F047089D0F4604468C46FF
:100D6000002B48D18A42164661D9B2FA82F34BB1C0
:100D7000C3F1200201FA03FC20FA02F29E4042EA8B
:100D80000C0C9C404FEA164EB7B2BCFBFEF1220C95
:100D90000EFB11CC42EA0C4201FB07F0904209D94C
:100DA000B21801F1FF3C80F0EE80904240F2EB80FF
:100DB00002393244121AA4B2B2FBFEF00EFB10222A
:100DC00044EA024400FB07F7A74209D9341900F1AD
:100DD000FF3280F0DA80A74240F2D78034440238F4
:100DE00040EA0140E41B00211DB1DC400023C5E9BD
:100DF0000043BDE8F0878B4206D90DB1C5E900017B
:100E000000210846BDE8F087B3FA83F1002948D1F4
:100E1000BB4202D3824200F20781841A67EB0302CD
:100E200001209446002DE4D0C5E9004CE1E7002AFA
:100E300000F09280B2FA82F3002B40F0A8808A1A68
:100E40004FEA164E1FFA86FC0121200CB2FBFEF77A
:100E50000EFB172240EA02420CFB07F0904207D932
:100E6000B21807F1FF3802D2904200F2E280474602
:100E7000121AA4B2B2FBFEF00EFB102244EA0244A6
:100E80000CFB00FCA44507D9341900F1FF3202D253
:100E9000A44500F2CB801046A4EB0C0440EA0740C6
:100EA000A2E7C1F120068B4022FA06FC4CEA030CB3
:100EB00007FA01F420FA06F3F7404FEA1C492343EE
:100EC00000FA01F81FFA8CFEB7FBF9F01C0C09FBC5
:100ED000107744EA074400FB0EF7A74202FA01F23A
:100EE0000AD91CEB040400F1FF3A80F09B80A74272
:100EF00040F2988002386444E41B9FB2B4FBF9F3DB
:100F000009FB134447EA044403FB0EFEA64509D936
:100F10001CEB040403F1FF3780F08280A6457FD9E3
:100F2000023B644443EA0040A4EB0E04A0FB02E74A
:100F3000BC427346B94663D360D05DB1B8EB0302DF
:100F400064EB090404FA06F622FA01F31E43CC40CE
:100F5000C5E9006400214CE76208480842EAC17113
:100F60000B0C43EA00438AB242EA0342B3FBF6F1B8
:100F7000E407B4463746B6461F23B0FBF6F0D21B53
:100F800041EA004161E7614614E7104628E7C3F1F2
:100F9000200120FA01F29E4027FA01F19F403A43D6
:100FA0004FEA164E1FFA86FCB1FBFEF70EFB171038
:100FB000110C41EA004107FB0CF8884504FA03F4E0
:100FC0003AD9711807F1FF3001D288451FD8A1EB3B
:100FD0000801B1FBFEF808FB0CF70EFB181192B2EA
:100FE00042EA0142BA422FD2B21808F1FF31C6D20A
:100FF000BA42C4D2A8F102013244C0E7F0459CD203
:10100000BEEB020367EB0C070138B94695E7A6EB88
:1010100008084144B81EB1FBFEF808FB0CF7DCE7FA
:101020003B467FE7504667E70846FBE63444023814
:1010300032E7023F32441BE7A1EB08013846B1FB1F
:10104000FEF808FB0CF7C8E7414698E7704700BF79
:1010500003798B4228BF0431C91AC9B24171704764
:10106000036810B504461B6998476379003B18BFB5
:1010700001231B1A5842584110BD000038B5124CCC
:10108000236800255D622946204619F0BFFF2946E6
:10109000204619F007FC226813699907FCD50A4815
:1010A000002119F0FFFB2268054613699B07FCD558
:1010B0000021054819F0F6FB0021044602481AF009
:1010C0000BF8601B38BD00BF5CD5012010B5144B78
:1010D0001A689403FCD59A6822F0030242F00102D8
:1010E0009A60104A002414661A689201FCD45A6867
:1010F00022F48002104358605A6822F03F021143E4
:101100005960084B01221A66054A13689B01FCD5F9
:10111000936823F0030343F00203936010BD00BF04
:1011200000380240000047427FB510210020FFF741
:10113000CDFFFFF7A3FF134B134A1B6803EB4303D9
:10114000B3FBF2F398421AD91422002101A824F02B
:1011500070FC0223009368460C4B049317F0B0FE1A
:1011600008B120F0F1FE0A4B0122C3F83C2E082101
:101170004FF4800007B05DF804EBFFF7A7BF19211B
:10118000F6E700BFDC00002080841E00000308009A
:101190000000474270B510210020FFF797FF0F4D68
:1011A0000F4E1F24FFF76AFF2B6832680D49B2FB10
:1011B000F1F28242C3F3C4030BD243B1013B2A686C
:1011C00022F0F80242EAC302013C2A60EAD1184642
:1011D00070BDFCD91F2BFAD00133F0E70038024074
:1011E000DC00002040420F0013B5FFF7D3FF044698
:1011F00017F008FF15F0B8FA114A136823F0F80346
:1012000043EAC40313604FF0E02300221A615A61DD
:101210009A610C4B0193019B596862B60A4B1A689C
:1012200022F003021A601A6842F001021A60019B60
:101230001B6883F3088802B0BDE81040084700BF70
:10124000003802400000FF1F0038014010B5FFF7D2
:101250006BFF1848FFF704FF08B1FFF7C5FF09F05F
:1012600093FB154909F0B2FB11F00AF9134A14492E
:1012700011F090F914F0E2FE036812491B6A9847D6
:1012800006F080FE1049002206F0DCFE0F48FFF752
:10129000E7FE30B110F080FA0368BDE810401B682B
:1012A000184704F07BFE0A4904F026FF00F034FDE5
:1012B000F2E700BF480400202C0300204403002074
:1012C0006403002038040020A4D501205804002025
:1012D0009003002000BEFEE7704700002DE9F047B4
:1012E0004249DFF86091424FDFF85C814148424B50
:1012F000C9F800301022C9E902120822FA603F4AF8
:10130000DFF848A1906001250024C8E902054FF4E8
:101310008060C2E90034D060394AB960C2E9021580
:10132000C2E90034374AC9F80450C8E90035C7E9B2
:101330000035354B1360354B94801046C2E90234BA
:1013400013F06CFF4FF06413CAF80430304B314E89
:10135000CAF80030304BCAF808304FF005137360FC
:101360002E4B336006F10C002D4BB36014F0E6FAFF
:101370002C4B2D4A1A602D4AC3F88420A3F88840CC
:101380002B4B2C4818604FF4F0722B481C7603212D
:10139000C3E901124FF4A071C3E903125961057149
:1013A000C180264D0281C3E907A9C3E90987214607
:1013B000234B03604471C6600474C0F81240C0F847
:1013C0001640C0F81A40FFF743FE4FF40040402398
:1013D000C5E900030A234220C5E903462B726C616C
:1013E00011F00CF8E860BDE8F08700BF0000024093
:1013F0006804002000040240582403085804002018
:101400004804002038040020C4240308ECD501203F
:10141000F82403081C04002000D501207C240308C4
:1014200064D301209003002048250308F4D601204E
:101430006403002084B80208440300202C03002029
:101440005CB8020888040020780400202C040020E6
:1014500008B5074BD86810B1012110F0D5FF054839
:10146000054B40F80C3BBDE8084014F071BA00BFD2
:101470002C0300201C0400207C2403084FF00000F3
:1014800070474FF0000070474FF0000070474FF07A
:10149000000070474FF00000704700F50050007EDC
:1014A000003818BF012080007047000010B5074BBE
:1014B000044640F8283B14F048FC04F1140014F0F2
:1014C000A0FA201D14F09DFA204610BDE4990208F0
:1014D00010B50446FFF7EAFF20464C2110F094FFB8
:1014E000204610BD14F0B6B838B570B30B784D78FF
:1014F000DBB900F5AA540834236820465B69984795
:1015000088B1236820465B6C984760B12946204625
:1015100015F0DAF83DB9236820465B6C984710B1A6
:10152000204615F0E0F8002038BD012B03D100F56E
:10153000B5541834E0E7062BF5D1002DF3D003683D
:1015400000F6A8319B699847EDE70220ECE708B563
:101550001FF09AFCBDE808401FF06CBB10B50446B4
:1015600013F026FB044B23600023C4E9083384F8FE
:101570002830E362204610BD90C1020810B5044631
:1015800013F016FB054B23600023C4E90833C4E9BC
:101590000A334FF480332363204610BD98C20208FB
:1015A00010B5044613F004FB094B23604FF0FF32E3
:1015B0000023C4E90B234FF48032A2630122A287E7
:1015C000C4E90833636384F83E30204610BD00BF91
:1015D00038C1020810B5044613F0EAFA0A4B23603A
:1015E0006FF07F420023C4E90833C4E90A33226361
:1015F000A38604F13800FFF7D3FF04F17800FFF76A
:10160000CFFF204610BD00BFA029030810B5034B33
:101610000360044613F0DEFA204610BD90C10208B4
:1016200010B50446FFF7F2FF2046302110F0ECFE23
:10163000204610BD10B5034B0360044613F0CAFAF0
:10164000204610BD98C2020810B50446FFF7F2FF0D
:101650002046342110F0D8FE204610BD38B504468F
:1016600013F0A6FA1C4B236000254FF47F420123A0
:10167000C4E90D234FF00041C4E90F536FF000435C
:10168000C4E911134FF0FF33E364C4E90855A562C0
:1016900084F82C50256304F15000FFF75FFF04F13C
:1016A0008000FFF76BFF04F1B400FFF767FF2946E6
:1016B000182204F1E80024F0BCF91022294604F5B0
:1016C000807024F0B6F984F8105110F0D9FEC4F8F7
:1016D0001401204638BD00BF349A020838B5094BC2
:1016E000094D0360044640F8785F13F073FA204612
:1016F00040F8385F13F06EFA204613F06BFA20467C
:1017000038BD00BFA029030838C1020810B504463F
:10171000FFF7E4FF2046B82110F076FE204610BD0A
:101720002DE9F8430446002613F042FAC4E908669E
:10173000C4E90A662D4BDFF8C0902360266304F1EC
:10174000340504F5DA774FF0FF38284613F030FA05
:10175000C5F80090C5F8288085F82C6085F82D60C4
:10176000C5E908663035BD42EFD104F55576284607
:101770003435FFF703FFAE42F9D1354604F61416AF
:101780002846B835FFF726FFB542F9D1284613F0B1
:101790000FFA0025164BC4F81439C4F8345904F66E
:1017A0003810FFF717FF04F51F60FFF713FF04F66B
:1017B000A820FFF7D3FE04F6D82013F0F9F90D4B5B
:1017C000C4F8D83AC4F8F85AC4F8FC5AC4F8005B14
:1017D00084F8045BC4F8085BC4F80C5B10F050FE9E
:1017E000C4F8100B2046BDE8F88300BF68A10208CA
:1017F00040C20208E8C10208E0B8020810B5094B6F
:10180000044640F8B43BFFF715FF04F18000FFF7F2
:1018100011FF04F15000FFF7F9FE204613F0DAF94A
:10182000204610BD349A020810B50446FFF7E6FFC3
:1018300020464FF48C7110F0E7FD204610BD0000EB
:101840000A22002370B5C0E905230446C0E900332D
:10185000C0E902330374C361203013F06DF804F162
:101860004C00FFF77BFE04F17C0013F0A1F9284B3C
:10187000E36704F19C00FFF781FE04F1D000FFF75D
:10188000EDFE04F5F470FFF7A5FE04F52870FFF7F0
:10189000A1FE04F55670FFF79DFE1E4B93E807006E
:1018A00004F5826585E8070004F21C4603F10C028A
:1018B0003C3310685168354603C508329A422E46BB
:1018C000F7D104F24C40FFF785FE04F20450FFF715
:1018D00081FE10F0D5FD002384F8CC3584F8E43582
:1018E000C4F8BC05C4F8C035C4F8C435C4F8C8355C
:1018F000C4F8D035C4F8D435C4F8D835C4F8DC35CC
:10190000C4F8E035C4F8E835C4F8EC35204670BDBD
:10191000E8C10208C07D0208F8B5204B0360204BE7
:10192000C0F8D83A044600F6D82013F053F904F66C
:10193000A820FFF76BFE04F51F60FFF7CFFE04F64B
:101940003810FFF7CBFE04F61415164BC4F8143903
:10195000284613F03FF904F55576AE4204D0B83D61
:101960002846FFF7BBFEF8E704F5DA75B54204D068
:10197000343E3046FFF75EFEF8E70B4E04F13407C5
:10198000BD4205D045F8306D284613F023F9F7E73E
:10199000204613F01FF92046F8BD00BF68A10208D9
:1019A000E8C1020840C20208E0B802082DE9F0418F
:1019B000534B036000F5D055044605F5A360FFF7CF
:1019C0008DFE04F5F350FFF789FE04F5EB500C3063
:1019D000FFF784FE04F5E5501430FFF77FFE04F5B1
:1019E000DF501C30FFF77AFE05F1E40004F5805665
:1019F000FFF704FF05F1B000FFF71CFEDFF80C81D4
:101A0000C6F8908A04F5D450103013F0E3F804F5CA
:101A1000D350FFF7FBFD3B4FC6F8347A04F5D150A5
:101A200004F5BB55143013F0D5F805F5E470FFF755
:101A300055FE05F58870FFF751FE334BC6F8303878
:101A400004F5C150103013F0C5F805F19C00FFF704
:101A5000F1FD04F5BE50C6F8DC871C3013F0BAF86F
:101A600005F14C00FFF7D2FDC6F8807704F5BC50B5
:101A700013F0B0F804F5B5501830FFF72FFE04F559
:101A8000B050FFF72BFE04F5A75604F5AA50083016
:101A90001436FFF723FE3046FFF7CCFD04F59D55C5
:101AA0001C35B54204D0343E3046FFF7C3FDF8E79D
:101AB00004F62C56B54205D0A5F58C752846FFF7DF
:101AC0009DFEF7E704F6F840FFF7B4FD04F6C440C6
:101AD000FFF7B0FD04F54960FFF7ACFD04F5466083
:101AE000FFF794FD04F6A830FFF7F8FD04F1940029
:101AF000FFF712FF2046FFF7D9FC2046BDE8F08132
:101B00000C9A0208F0C2020838C10208E8C10208B3
:101B100008B50248FFF74AFF08BD00BF9C0400203B
:101B200010B50446FFF742FF204642F2380110F09C
:101B30006BFC204610BD10B50446FFF7EDFE2046B5
:101B400040F6143110F060FC204610BDF8B56D4B26
:101B50000446102240F8043B2221002313F049FFE1
:101B600000230822202104F1140013F042FF04F5A1
:101B700000531833002563621423C4E90A53624BEF
:101B800084F83050C4E90D344FF4C063A4F84430F5
:101B9000032384F8463020465C4BA3645C4B84F8F6
:101BA0003C5029464022256440F84C3B23F041FF3D
:101BB000C4E9235504F19400FFF7B2FD04F6A83000
:101BC000FFF708FD04F54660FFF7C8FC04F549601F
:101BD000FFF7D4FC04F6C440FFF7D0FC04F6F8404D
:101BE000FFF7CCFC04F59D5604F62C551C36284610
:101BF00005F58C75FFF732FDB542F8D104F5A7560F
:101C0000143628463435FFF7B9FCB542F9D12846D9
:101C1000FFF7B4FC04F5AA500830FFF7DBFC04F52D
:101C2000B050FFF7D7FC04F5B55004F580561830D6
:101C30000025FFF7CFFC4FF4807304F5BB57C6F8BF
:101C40007C37C6F87057C6F87457C6F8785704F54D
:101C5000BC5012F071FE07F14C00FFF77FFC04F559
:101C6000BE501C3012F0A4FF2A4BC6F8DC3707F137
:101C70009C00FFF783FC07F1D000FFF791FC07F50C
:101C80008870FFF7A7FC07F5E470FFF7A3FC10F0DE
:101C9000F7FBC6F8E00904F5D050C6F8E459C6F8D9
:101CA000E859C6F8EC5986F8F059C6F8F459C6F860
:101CB000F859C6F8FC59C6F8005AC6F8045A86F80E
:101CC000085AC6F80C5AC6F8105A143004F50056D3
:101CD000FFF7B6FD0323337110F0D2FBB06006F0BE
:101CE00051F9F06004F05AF9306108F04DFE86F8C1
:101CF0002C507061C6E90855C6E90C55B5622046FE
:101D0000F8BD00BFE49902080B58010820820208C0
:101D10000C9A0208E8C1020810B50A4C2368BFF308
:101D20005B8FDB070CD4204621F021F840B1064838
:101D3000FFF70CFF054822F0CFFD204621F023F8E5
:101D4000014810BD980400209C040020111B0008CD
:101D50002DE9F04F00F5005785B0BB680546D3F874
:101D600088400E46002970D0083C032294FBF2F410
:101D7000D3F88CB013F066F80368DB6898478046A8
:101D800013F060F80368DB68984705F5AA5909F174
:101D9000080908EB480800EB40004FF0010AABEBE4
:101DA00008032C49CDF808A00022CDE900404846A0
:101DB00014F0ECFAFFF7CBFB002301461A46484625
:101DC00014F08DFC484614F048FC05F58058DEB14F
:101DD000B8F95025CDF808A0B8F956351D49CDE918
:101DE000004305F5B056B8F94E350532304614F0CB
:101DF000CDFAFFF7ACFB002301461A46304614F03B
:101E00006EFC304614F029FCBB681249D3F88820D8
:101E100001230293B8F95635CDE9004305F5B555D0
:101E20001835B8F94E35121B284614F0AFFAFFF7F3
:101E30008EFB002301461A46284614F050FC284623
:101E400005B0BDE8F04F14F008BC04EBD474641086
:101E5000043C8DE7A284020800F5005300F5AA5067
:101E60001B6993F87033022B0CBF024902490830FA
:101E700014F033BB2C8202083182020800F50052B4
:101E8000126992F87023012A05D821B100F5AA50F1
:101E9000083014F022BBFFF7DFBF000000F500534D
:101EA00000F5B5501A6992F87033052B00F118004F
:101EB00008D192F8F1334F2B02D1054914F00DBB34
:101EC0000449FBE7002BF8D0092BF6D00249F5E7CF
:101ED000968D020835820208B78A020800F5005282
:101EE000126992F87023012A05D121B100F5B5508D
:101EF000183014F0F2BAFFF7D1BF70B500F1480303
:101F00000446002553F8042F8A4218D1D4F89030A3
:101F100004EB8303D86C03681B69984704F19400B1
:101F2000C4F89050294605F005FFD4F8903004EB32
:101F30008303BDE87040D86C0368DB68184701353F
:101F4000102DDFD170BD000070B504468AB004F5D5
:101F5000A955083503A804F5A7561FF08BFD1436C4
:101F6000049B144A2021284623F094FC294630463D
:101F7000012212F088FA04F5005304F580549B689E
:101F8000D3F88820B4F9003503EBD37302EBD27297
:101F90005C10C4EB620412F019FF6FF07F430190F4
:101FA000009322461E232946304612F0ECF90AB06F
:101FB00070BD00BF3C820208D0F8903000EB830374
:101FC00070B50446D86C03680D461B699847C4F881
:101FD000905004F19400294605F0ACFED4F89030FE
:101FE00004EB8304E06C0368BDE87040DB681847CD
:101FF00000F6A833994237B504460D460BD190F848
:10200000B83B43B100F50054206990F8523363B9EE
:1020100004F0CEF90BE004F194039D420BD194F847
:10202000C0102046FFF7C8FF01E004F0F9F94FF0B7
:10203000000003B030BDD4F8903004EB8303294690
:10204000D86C03689B699847C0B20928EFD104F5A2
:10205000AA5308339D420BD104F50054206990F82F
:102060007033022B14BF8121822104F093F9DEE743
:1020700004F5B55318339D42D9D104F500542069B5
:1020800090F87013D0F86823052913D190F8F13334
:10209000C0F86C234F2B4FF0000380F8F13380F829
:1020A000563301D11821E0E70B49019301AA04F04E
:1020B00009FFBCE7002339B1092905D080F8563360
:1020C000C0F86C231921D0E780F8F13380F856333B
:1020D000C0F86C23E6E700BF52820208F7B5044659
:1020E00000F1940504F50056284605F076FC2822F8
:1020F0000821B368CDE9002100221146D3F88830C9
:102100000027284605F02CFEC4F88C7012F024FE3F
:1021100039460346634A284605F09EFD624AD4F8D4
:102120008C10284605F035FDD4F88C707B1CC4F863
:102130008C3002F0B1FE04EB8707F864D4F88C70A1
:1021400012F00AFE3946594A0346284605F084FD36
:10215000D4F88C707B1CC4F88C3009F0FFF804EBC9
:102160008707F864D4F88C7012F0F6FD3946034600
:102170004F4A284605F070FDD4F88C707B1CC4F8DB
:102180008C3001F075FE04EB87073369F86493F82F
:102190001D34022B13D0D4F88C7012F0DDFD3946BB
:1021A0000346444A284605F057FDD4F88C707B1C42
:1021B000C4F88C300DF084FE04EB8707F864D4F883
:1021C0008C7012F0C9FD39463B4A0346284605F09B
:1021D00043FDD4F88C707B1CC4F88C300DF0BAF839
:1021E00004EB8707F864D4F88C7012F0B5FD39461B
:1021F0000346324A284605F02FFDD4F88C707B1C2C
:10220000C4F88C3003F0D6FD04EB87073369F8641B
:1022100093F81D349BB9D4F88C7012F09DFD3946AB
:102220000346274A284605F017FDD4F88C707B1C1E
:10223000C4F88C300AF08CFB04EB8707F864D4F800
:102240008C7012F089FD39461E4A0346284605F077
:1022500003FDD4F88C707B1CC4F88C300EF008FFA2
:1022600004EB8707D4F88C20B368F8640192282225
:10227000009200221146D3F88830284605F070FD00
:10228000284605F01BFE0023214628461A4605F085
:1022900011FE4FF4FA61284603B0BDE8F04005F0A6
:1022A0005CBB00BF56820208140000205A8202085C
:1022B000638202086E8202087B820208888202081A
:1022C000988202089E8202082DE9F04F8BB00446E6
:1022D00008F05AFB08F07EFB04F500555FFA80F821
:1022E000AE6808F051FBC168003918BF01213046C3
:1022F00010F073F92979A86810F087FCAB68B84A28
:10230000C3F88020D3F88C7012F09CFD0368DB6862
:102310009847064612F020FD0368DB689847AB68D3
:10232000D3F888100691834612F016FD03689B6867
:102330009847059012F010FD0268D2689047DDE9D9
:102340000531BA1E06EB4606A64F4FF0060904F506
:10235000466A921B4000002609FB1313A2EB4B02B6
:10236000CDE9017631460090504611F02FFE4FF432
:102370007A71504612F0FFFB04F5BB579A4A1037AA
:1023800011460223384608F05DF9214633463246AD
:10239000384608F052F9286904F042F8AB68D3F8DF
:1023A0008820069212F0D8FC03689B689847B4F91D
:1023B000663C0593834612F0CFFC01688968884724
:1023C000069A059B0121029104F6A83AB4F96E1C05
:1023D000019109FB00F0013A09FB1B22834900909F
:1023E000504613F0D3FF334632465046214614F090
:1023F00076F93146504614F067F94FF47A71504639
:1024000012F0B9FBB4F96E3CB4F9662C03EBD3734C
:1024100002EB6303059312F09FFC0268D2689047B9
:10242000814612F099FC059B6F4901906FF07F4B3C
:1024300004F5496A0422A3EB5903CDF800B05046D5
:1024400011F0A1FFB4F9943C059312F085FC0368E8
:102450009B689847099012F0F5FC03689B689847C1
:10246000B4F96A1C0891069012F0ECFC0368DB6872
:102470009847079012F0E6FC8646DDE905030899C7
:10248000099A03449C46079B04F6C449023902EBAF
:102490008202CDE900BE6244CB1A4846524911F08F
:1024A00072FFB4F9AC2B079212F006FD03689B682B
:1024B0009847B4F9663C06900433059312F0FCFC8F
:1024C000DDE906120190FF2004F6F84B00900B2086
:1024D00000FB1122059B4449584611F054FF40F27D
:1024E000E931504612F047FB40F2EA31484612F01B
:1024F00042FB40F2EB31584612F03DFB2B462033B5
:102500000193432300933A4AE8682346214605F0A5
:10251000BAFD31462046FFF71BFC2046FFF7DEFDE3
:1025200004F59D5904F62C5609F11C09304600218A
:1025300006F58C7600F03BFD4E45F7D112F046FCD7
:102540006FF07F430190009304F5A951002304F537
:10255000A7501A460831143011F015FF04F148094C
:102560000026D4F88C10B1422CD8B8F1000F34D02A
:1025700001390B46C4F8903004F1940005F0DAFB01
:10258000D4F8903004EB8304E06C0368DB68984770
:10259000B8F1000F0AD01749174A0223384608F04D
:1025A00051F842F21071384608F04EF908F0ECF993
:1025B000036913B1286903F0FBFE4FF000000BB074
:1025C000BDE8F08F59F8040FB4F9662C0368283A77
:1025D0009B68282198470136C3E743464146C9E72F
:1025E0004040400080808000A28402085682020899
:1025F000E9140008F0820208A78202082DE9F041E0
:1026000000F500550446286990F8701303F0A2FD08
:102610000022014604F5496011F035FF286990F861
:10262000F11303F09FFD0022014604F6C44011F0AF
:102630002AFF296991F8E923134623F0800381F8E2
:10264000E933D20901F2F23104F6F84011F01BFF30
:1026500004F62C570026F1B2286903F0C1FD0136BB
:102660000146384600F0A3FC062E07F58C77F2D120
:102670002B6993F8521304F6A838002963D001217E
:10268000404614F021F82B6993F8E333002B0CBF7C
:10269000FF214FF47F41404613F062FF2B6993F80E
:1026A0000F24002683F80F64002A39D004F5D05097
:1026B00004F5BB571430103700F08EFA384608F096
:1026C00001F9D4F8903004EB8303D86C03681B69DC
:1026D000984704F66C3012F05EFA404613F0BDFFE6
:1026E0002046FFF7FBFC04F14808D4F88C30B342D5
:1026F00035D8E06C0023C4F890300368DB68984755
:102700002B69D3F818349B060AD41A491A4A0223B3
:10271000384607F097FF42F21071384608F094F8F7
:10272000D4F8903004EB83041421E06C03685B69F7
:102730009847A86800F5C150043013F0B0FA4FF084
:102740000000BDE8F081404613F0BEFF2B6993F80E
:10275000E333002B0CBF6FF07F41FF219BE758F85C
:10276000040FB4F9662C0368283A9B68282198471F
:102770000136BAE788830208FA82020838B50446AF
:10278000B8B109B9002038BDD0F81C31426900F158
:10279000D00501FB0231284600F009FCA369002B9B
:1027A000F0D0D4F81C21284653F8221000F046FC43
:1027B000E8E70220E7E7C0E900128360704741695B
:1027C0004B1E10B559420446594100F5F47013F000
:1027D0007BFF6169A1F10A025142514104F5287061
:1027E00013F072FF6169A1F164004142414104F5B7
:1027F0005670BDE8104013F067BF32B90120704732
:10280000484301339342FBD1704708460123F9E75F
:1028100037B504460D467C3012F0ADF9691C04F161
:10282000200012F0A8F9A91C04F24C4012F0A3F900
:10283000E91C04F2045012F09EF905F0A3FB0546D2
:10284000FEF785FE04F5B86301460D4A009328465D
:10285000234605F062FC05F095FB0546FEF777FE82
:1028600004F5BB6301937F23014600932846054A84
:10287000234605F008FC4FF0000003B030BD00BF58
:102880007D2700081B2C00082DE9F04F8BB01E4659
:102890000023CB4D079204460F4683612B68BFF39C
:1028A0005B8F13F0010FDFF82CA30CD1284620F02A
:1028B0005EFA40B1D4F8BC352846D3F88830CAF85F
:1028C000003020F060FA12F047FA6FF07F4304F115
:1028D0009C05009300231A4639460190284611F0C2
:1028E00052FD28469DF85C1011F0B2FDB4F9A830F5
:1028F000DAF80010C91A082200234908284604F112
:10290000200912F081F94946284612F0F7F8012112
:10291000284612F030F9DAF80030B4F9A670A3F1C5
:10292000100812F08FFA0368DB689847169B029331
:1029300004F1D00508370D2300EB80003A460193DF
:10294000009043460821284600F062FA4FF47F4287
:102950000421284600F01EFB12F074FA0222014600
:10296000284600F05DFCDDE91412284600F060FB0B
:102970003146284600F01BFB12F064FA002603469D
:1029800005220799284600F061FC494684F8E0607A
:10299000284612F0B3F80121284612F0ECF804F2B0
:1029A0000C43069304F21C47A346B4F9DC3003221F
:1029B000083BB3FBF2F3059303F0F0FA169A0546D1
:1029C0000A212046FFF719FF069A009052F8043FAB
:1029D000069239461022284603F068FD3846FDF776
:1029E00009FC079B774AC0F11001384422F052FFDE
:1029F000059BB4F9D420043306FB0322B4F9DA3082
:102A000009920833089312F01DFA0168C9688847D3
:102A10000BF5F478059B0093012500EB8000DDE9C0
:102A20000832394601900295404613F0AFFCFEF79C
:102A30008EFD654A23460146404613F050FE0021B4
:102A4000404613F041FE0321404613F0D1FDDBF870
:102A5000E83149469B6840469847DBF8E83129460B
:102A6000DB6840462E449847032E07F110070BF110
:102A7000B80B9AD1169A022A28BF02220A212046B0
:102A8000FFF7BBFE6061B82000FB0240002629462C
:102A900000F5F47013F018FE02950196B4F9F231C6
:102AA000083304F14C070093DAF80030324631461F
:102AB000384611F08BFA3846042111F0B7FA38463F
:102AC0004FF6FF7111F0C9FA3146384611F0DCFAC1
:102AD0004946384612F012F83146384612F04BF8A3
:102AE000D4F8BC25B4F95A30D2F88C200093D21A0D
:102AF00002EBD272DAF800302A413146484611F032
:102B000056FFD4F8BC35D3F88C20009231463246BB
:102B100004F17C00D3F8883011F0CAFAD4F8BC353F
:102B200084F88C50D3F88CA012F08CF90368DB6821
:102B30009847D4F8BC35D3F8882002EBD27242FA19
:102B400005F7814612F07EF90368DB68984704F2C6
:102B50004C48043F09EB490900EB4000CDE9007007
:102B6000AAEB0903324619490295404613F00EFCC0
:102B7000FEF7EDFC23460146134A404613F0AFFD35
:102B8000D4F8BC35B4F95824D3F888100295B4F9B8
:102B90005A34CDE9002304F20457B4F952348A1AA6
:102BA00038460B4913F0F2FBFEF7D1FC064A01460A
:102BB0002346384613F093FD30460BB0BDE8F08F46
:102BC000D4240020948302081B2C00089883020858
:102BD0009B830208D824002010B5044605F0D2F9E2
:102BE00004F5B86105F0BAFA05F0CCF904F5BB615B
:102BF00005F06DFA04F1200011F0CDFF04F17C0026
:102C000011F0C9FF04F24C4011F0C5FF04F204506A
:102C100011F0C1FF4FF0000010BDF8B504460028C8
:102C20004CD000F24C458D4203D000F204578F4245
:102C300019D16B1A5D425D4125742046FFF7CCFF28
:102C4000D4E9000548B1A2682346294612F089FD5F
:102C50002046FFF7B4FD0020F8BD002DF8D0A06895
:102C60002146A847F4E700F5F473994202D1012305
:102C70006361EDE700F52873994201D10A23F7E774
:102C800000F55673994201D16423F1E70B784E7831
:102C900053B93146284613F017FD002ED8D12946E6
:102CA0002046FFF7BAFFD3E7012BD1D13146384692
:102CB00013F00AFD002ECBD13946F1E70220CBE715
:102CC000B0F904007047B0F906007047B0F9080089
:102CD0007047B0F90A007047B0F90C007047B0F9BE
:102CE0000E007047007C7047017470472DE9F34176
:102CF000089E04461D46B0F90630B0F90400301AAB
:102D00000090EB1A04F1500090460F4610F07DFF42
:102D1000B4F90420B4F90630B21A0092EB1A424614
:102D2000394604F1B40011F096FA94F810317BB1F1
:102D3000B4F90420B4F90630B61AEB1A4246394603
:102D400004F18000089602B0BDE8F04111F083BAAA
:102D500002B0BDE8F0812DE9F341089E04461D460E
:102D6000B0F90430B0F90600301A0090EB1A04F103
:102D7000500090460F4610F09DFFB4F90620B4F9BC
:102D80000430B21A0092EB1A4246394604F1B400FC
:102D900011F0FBF994F810317BB1B4F90620B4F9C5
:102DA0000430B61AEB1A4246394604F18000089600
:102DB00002B0BDE8F04111F0E8B902B0BDE8F08121
:102DC00010B50446052919D8DFE801F0030F1818DB
:102DD00003160B4904F1500011F056F92368204600
:102DE000DB6CBDE8104000211847006A20B1D4E92F
:102DF0000912234612F0B5FC0021EBE710BD00BF1D
:102E00008080800010B103689B68184770470000FD
:102E10002DE9FF470446DDE90C651F464FF0FF3002
:102E2000E0643818A18001440E9B2181711EE2806C
:102E30000A446281EA1AC4E90E23A781E6810121CE
:102E400000204FF00A0C83426BDC216404F5807093
:102E5000002B6AD0009310211346374A22F01AFD46
:102E6000013504F1E8094846FDF7C4F9A8420CD041
:102E700004F1E70100239D4294BF002201220133A7
:102E80005201182B01F8012FF5D1002501232A4604
:102E90002946CDE9015300963B4604F1500011F05C
:102EA00095F811F0CFFF04F1B4086FF07F47494661
:102EB00001902B462A464046009711F064FAD4E967
:102EC0000E3203EB0209D4F8D800B4F90CA009F1D2
:102ED0000109AA4218BF09F10109FFF793FFB4F9EC
:102EE000C2305FFA89F9F61A00FB19A106EBD67613
:102EF0002B4672104908404611F086FE11F0A2FFE1
:102F00002B46CDE900700D4904F180002A4611F0EE
:102F10003AFA2368DB6C2946204604B0BDE8F04746
:102F200018470CFB01F101308DE713461021044ACC
:102F300022F0B0FC95E700BFA2830208A284020839
:102F4000B3830208C36F994210B5044609D05030CC
:102F500011F06CF823682046DB6CBDE810400021BE
:102F6000184710BD10B5036FC0E90C12044690F865
:102F70002C00002818BF114699420AD004F15000D5
:102F800011F06BF823682046DB6CBDE8104000218F
:102F9000184710BD38B515460446FFF7D3FF29463C
:102FA00020464FF47F42BDE83840FFF7DBBF436C5B
:102FB00099420A46B8BF1A46836C9A42A8BF1A467D
:102FC000C36C934273B5044630D0C56BC26400F540
:102FD000807300F1E801B4305DB90092182211F05D
:102FE00094FA23682046DB6C00219847012002B048
:102FF00070BD266C92FBF6F506FB1522002AB8BFC1
:103000005242CDE90052182211F07FFAE36C002BF6
:10301000E7DA226C93FBF2F3002BE2D1A36B012BD6
:10302000C2BF1B192D2283F8E620DAE70020DEE775
:10303000C0E91112C16CFFF7BABF000037B50446F2
:1030400000F1B40500910E4B00F1E801182228466A
:1030500011F05BFAB4F9C230B4F90E20B4F90C10D7
:10306000D21AB4F9C03002EBD272C91A521000233E
:103070004908284603B0BDE8304011F0C5BD00BF87
:10308000958302082DE9F041D0E90E531D44002B31
:1030900018BF013590F81031013B0446042B00F2B3
:1030A000AA80DFE803F03A3303618600B0F90C60D0
:1030B000D0F8D800FFF7A6FEB4F9C230B4F90E205C
:1030C000D21AB4F98C30B11EC91A94F8E6306B43A9
:1030D00000FB131102EBD27200235210490804F1D5
:1030E000B40011F091FDB4F9BC50D4F8A400B4F9C7
:1030F000BE7004F18006023510B10368DB689847A2
:103100003A1A00232946304611F07EFD23682046F6
:10311000DB6CBDE8F04100211847B0F9C230B0F9CE
:103120000E20B0F90C10D21AB0F98E30D21AB0F9C4
:103130008C3002EBD272C91A521000234908803039
:1031400011F062FDD4F8D800B4F90C60FFF75AFE14
:1031500094F8E630B4F98A206B4300FB1361002336
:10316000490804F1B400CFE7B0F90C60D0F8D800FA
:10317000FFF748FEB4F9C230B4F90E20D21A94F821
:10318000E6306B4300FB136102EBD2720023521056
:10319000490804F1B40011F037FDB4F98C30B4F9EA
:1031A0000C10B4F9BE20C91A4908002304F18000AC
:1031B000AAE7B0F90C60D0F8D800FFF723FEB4F905
:1031C000C230B4F90E20D21A94F8E6306B4300FBFB
:1031D000136102EBD27200235210490804F1B400CB
:1031E00011F012FDB4F9BC00B4F98C10B4F9BE2092
:1031F0000023411ADAE7B0F90C60D0F8D800FFF7E5
:1032000001FEB4F9C230B4F90E20D21A94F8E630B7
:1032100002EBD2726B4300FB1361521000239FE755
:1032200070B500F1B40604461546304611F0F4F8C6
:10323000E9B2304611F00CF92046FFF723FF23686E
:103240002046DB6CBDE870400021184770B500F1E6
:10325000800604460D4680F810211946304611F0CC
:10326000DBF829463046002211F00DF92046FFF721
:1032700009FF23682046DB6CBDE870400021184739
:1032800090F82C308B4210B5044611D0D0E90C23B5
:1032900080F82C1000290CBF11461946503010F050
:1032A000DCFE23682046DB6CBDE810400021184797
:1032B00010BDC0E908128362704710B5D0B109B9DA
:1032C000002010BD0379052B0ED84FF48C725343A8
:1032D000C2188468D2F8942103F5A47301FB042179
:1032E0001844FFF764FEEBE7D0F8E83E00F69C6078
:1032F0001944F6E70220E4E72DE9F041044604F022
:1033000041FE04F5935104F029FF04F5A47504F17E
:10331000100700264FF48C782B6828461B699847C5
:10332000FEF7FAFC08FB06F303F62C5203441044A4
:10333000D3F82C3D1B699847D5F8903605F5D26037
:103340001B6998473B6838461B6901369847062E2B
:1033500005F58C7507F13407DED140F6B47541F2FE
:10336000DC16635960191B69B8359847B542F8D126
:1033700004F69C6011F00FFC04F6686011F00BFC81
:1033800004F5905004F580541C3011F004FCD4F87E
:10339000500203681B699847D4F8540203681B69FC
:1033A00098474FF00000BDE8F081000010B50446DA
:1033B00002F0AFFE034B08B1987810BD94F81C24BE
:1033C000985CFAE738A1020800F580532DE9F04F28
:1033D000D3F85C32D3F81034062B8FB028BF062305
:1033E0000233B2FBF3F2A2F108030D1D059304466C
:1033F00011F028FD0368DB689847059B00EB80000F
:10340000984207D211F01EFD0368DB68984700EB75
:1034100080030593059B089508330B9300232646EC
:1034200004F11008069304F5805BDBE99630D3F8CD
:103430008890D0F81034069A062B28BF06239A42AB
:1034400006F58C7708F1340AC0F0F68004F58E5842
:1034500004F58F5708F11C08173704F6B4760025D9
:103460004FF0030A4FF00109DBF85C3293F81C249B
:10347000D3F81034002A14BF39464146DBF85822ED
:103480000791062BD2F8882092FBFAF205FB02F294
:1034900028BF062304320692013B4FF48C7253433B
:1034A00003F5A47023442044D3F848319B6B98471C
:1034B000059BCDF808900193DBF85832D3F888309B
:1034C00093FBFAF3083BDDE90621009300F10803C2
:1034D000304612F05BFFFEF73AF8002301461A4629
:1034E000304613F0FCF801353046032113F080F824
:1034F000032D08F1090807F10C0706F1B806B3D14E
:1035000011F02AFC03689B689847DBF85832B4F93D
:10351000BEAFD3F88880064611F01EFC03689B6896
:103520009847A8F110034FF00A0808FB06F105229E
:10353000002604F69C67CDE901260AF1080A059ADF
:10354000009208FB1033524638460C31FFF760FCFE
:10355000FF2204213846FFF71DFD11F073FC022203
:1035600001463846FFF75CFE42F2107238460121F0
:10357000FFF75EFD4FF496713846FFF718FDDBF854
:103580005C3293F81C24A14B53F822A011F05AFC92
:103590002A46034651463846FFF758FEFDF7D7FF47
:1035A0003346014632463846FFF783FE84F8AC9E28
:1035B00011F0D2FB04F668656FF07F473346324660
:1035C000019093490097284610F0DDFE284602211D
:1035D00010F03EFFB4F9AA3EB4F9A21E03EBD37378
:1035E00001EB6301B4F9763E03EBD372A1EB620207
:1035F00033460421284611F007FB04F58350C4F834
:10360000088001210C3013F05FF8B4F94C51B4F983
:103610004E8111F017FC0835CDE9007008F108085B
:1036200004F590507B4943462A461C3010F0ABFE0F
:1036300030460FB0BDE8F08F9DF81830079319465B
:10364000FFF7B4FEA9F10803072206F5A47501925D
:1036500003EBD373059A02905B1028460092062173
:10366000089A99FBF1F1FFF7D3FBFF2204212846CA
:10367000FFF790FC11F0E6FB022201462846FFF717
:10368000CFFD0799DBF85C0202F0AAFD014628464F
:10369000FFF78DFCDBF85C325F4A93F81C3452F87C
:1036A000239011F0CFFB4946034603222846FFF73B
:1036B000CDFDFDF74CFF00231A4601462846FFF7D3
:1036C000F8FD3B6B012128469B6C98473B6B2846D5
:1036D0005B6B98473B6B09909B6B28469847059B13
:1036E0000A90A3F10409DBF85832D3F888203B6B29
:1036F0000D925B6B2846984707990C90DBF85C02AB
:10370000FFF754FEDDE90C320A9902904FEA59099D
:10371000D31A0822CDE90092A1EB0902099906F516
:10372000FB66083B30460431FFF772FB3B4A02213F
:103730003046FFF72FFC11F085FB01220146304691
:10374000FFF76EFD00213046FFF731FCDBF85C32FD
:10375000314A93F81C3452F8239011F037FB0322BE
:10376000034649463046FFF771FD0799DBF85C02D6
:1037700002F0C5FC064611F0EFFA6FF07F430093AC
:1037800000231A4631460190404610F0FCFD02210C
:10379000404610F05DFE5AF8343CDE693B6B28462B
:1037A000DB6A98475AF8343C8146DB6B40469847C1
:1037B00000EBD07009EBD9734FEA6009C9EB6301E4
:1037C0003B6B07911B6B284698473B6B81461B6CF4
:1037D000284698475AF8343C00EBD0701B6C09EB34
:1037E00060054046984700EBD070A5EB60020023CF
:1037F00040460799B047069B0B9A01330693089BF6
:1038000013440893D0463E460FE600BF48A1020885
:10381000BB830208A284020854A1020880808000B1
:103820002DE9F04F04468BB000F1100A06464FF028
:10383000000900F58058D8F85C32D3F81034062B14
:1038400028BF0623994506F58C753AD340F6B47522
:1038500041F2DC1663596019DB686521B835984779
:10386000B542F7D1642104F69C6011F084F964211B
:1038700004F6686011F07FF904F5905065211C3062
:1038800011F079F9D8F8500203686621DB6898478F
:10389000D8F8540203686621DB68984704F072FB8D
:1038A0000546FDF754FE04F5935301460093284660
:1038B0003D4A234604F031FC4FF000000BB0BDE858
:1038C000F08FFEF729FA4FF48C7303FB09F305938D
:1038D00003F62C57D5F8C036049006F5FB6B074469
:1038E000DB6A584698472B6B069006F5A4761B6B4F
:1038F00030469847D5F8C0360790DB6B5846984756
:10390000D5F8C0260990126C584690475FFA89F1A5
:103910000890D8F85C02FFF749FD089A099B0290CD
:103920000821019100923846DDE90612FFF770FA8E
:103930001E4A02213846FFF72DFB11F083FA0122BF
:1039400001463846FFF76CFCD8F85C3293F81C242B
:10395000174B53F82210069111F038FA0322034650
:1039600006993846FFF772FC2B6B6421DB68304602
:103970009847DDE9043213446421D3F82C3D3846DE
:10398000DB689847D5F8C0366421DB68584698470D
:10399000DAF800305046DB686421984709F10109E4
:1039A0000AF1340A2E4646E7BB32000880808000C8
:1039B00054A102081F4B70B50446036000F59050F7
:1039C0001C30FDF737FE04F589500430FDF786FE04
:1039D00004F583500C30FDF781FE04F6B470FDF75A
:1039E0007DFE04F6686504F69C60FDF707FF284637
:1039F000FDF720FE04F5FB66AE4205D0A5F58C75FB
:103A00002846FDF7FBFEF7E704F5A475B54205D09F
:103A1000A6F58C763046FDF7F1FEF7E704F11006C7
:103A2000B54204D0343D2846FDF704FEF8E72046B1
:103A300070BD00BF8C9A020808B50248FFF7BAFFB4
:103A400008BD00BFE024002010B50446FFF7B2FF18
:103A5000204641F278210EF0D7FC204610BD0179B6
:103A600005292DE9F84398BF0021044688BF0121AC
:103A700000F69C60FFF704FC04F5A476002504F52D
:103A800080594FF6FF77E9B2D9F85C02D6F84C803E
:103A900002F0A6FB4FF47F42404514BF3946FF2198
:103AA0003046FFF75FFA2179A1EB050CDCF100014C
:103AB00041EB0C0130460135FFF7E2FB062D06F520
:103AC0008C76E0D1A1684B1E5942594104F6B4707E
:103AD00012F0FAFDA168A1F10A02514204F58350E7
:103AE00051410C3012F0F0FDA168A1F16400414297
:103AF000414104F589500430BDE8F84312F0E4BDBB
:103B00002DE9F04700F580570446D7F85C3293F86A
:103B10001D2400F59050022A00F11C0034D193F8C6
:103B2000E4132F4D2F4B0022914218BF1D4629460A
:103B300010F0A9FC02F032FA237B90F87063B342D4
:103B400002D0032B23D02673FEF7E6F82649FEF7B2
:103B500095F9FEF7E1F82549FEF7C0F90025A046E2
:103B60002E46D7F85C02D0F81034062B28BF062367
:103B70009D4208F58C7923D316B12046FFF76FFFDD
:103B80004FF00000BDE8F08719490022D0E7012E70
:103B9000D9D104F5A4780025D7F85C02D0F8103408
:103BA000062B28BF06239D42CDD2E9B202F018FBB6
:103BB00001464046FFF7FBF9013508F58C78EBE745
:103BC000E9B2D9F87CA002F00BFBAAEB000108F5E2
:103BD000FB60FFF7ECF93043C6B20135C846C0E7D9
:103BE000CA830208C1830208D1830208D583020870
:103BF000A284020800F6B4739942F7B5044608D1CE
:103C00000123A36000252046FFF729FF284603B0C3
:103C1000F0BD00F583530C33994201D10A23F0E73C
:103C200000F589530433994201D16423E9E700F593
:103C30008055D5F850328B4214D1D5F85C0290F8FB
:103C40007033012B44D10193D4F8E83E64225343EE
:103C50000093D4F8C433D4F8AC22D4F8941103F010
:103C6000BBFACFE7D5F854328B421FD1D5F85C327E
:103C700093F87033012B2BD100F5A4770026D5F8EB
:103C80005C02D0F81034062B28BF06239E42B9D21E
:103C900097F82C3033B1F1B202F0A2FA014638465F
:103CA000FFF785F9013607F58C77E8E700F69C63A6
:103CB000994202D106232371A4E700F5A4720023E0
:103CC0009142F8D00133062B02F58C72F8D199E7B6
:103CD000092598E72DE9F84F604B0360062303712F
:103CE0000A23836000230646037300F1100400F5E5
:103CF000A47520463434FDF741FCAC42F9D106F5F9
:103D0000FB65204604F58C74FDF7A8FCAC42F8D1A5
:103D100006F66865204604F58C74FDF79FFCAC42FE
:103D2000F8D12046FDF72AFC06F69C60FDF796FCCC
:103D300006F58E58DFF830B1DFF830A106F6B4741E
:103D400008F11C080025204610F032FF6FF07F4379
:103D500023630127C4F800B084F8345084F8355048
:103D6000C4E90855C4E90A5504F138004FF0FF3999
:103D700010F01EFFC4F838A0E566A4F8705084F86F
:103D8000727084F8735084F8747084F8755084F8F5
:103D90007650C4E91655C4E9199504F1780010F07D
:103DA00007FFC4F878A0C4F8AC50A4F8B05084F869
:103DB000B27084F8B35084F8B47084F8B55084F8C5
:103DC000B650C4E92655C4E92995B8344445BAD15A
:103DD000234B06F5805404F5EE7203F118071868BA
:103DE0005968154603C50833BB422A46F7D11988DE
:103DF0009B78AB701B4B298004F2F71203F124016E
:103E000053F8040B42F8040B8B42F9D106F590509D
:103E10001C30FDF7B3FBFDF77FFF00F5AA5008301B
:103E2000C4F85002FDF778FF00F5B5501830C4F81B
:103E300054020EF025FBC4F8580202F0AFF800233C
:103E400084F86C32C4F85C02C4E99833C4E99C334A
:103E5000C4F868323046BDE8F88F00BF8C9A02087B
:103E6000FC7D0208177E0208A029030838C1020859
:103E700010B50A4C2368BFF35B8FDB070CD42046D8
:103E80001EF075FF40B10648FFF724FF054820F0FB
:103E900023FD20461EF077FF014810BDDC240020E2
:103EA000E0240020393A0008A0B190F89430052BA6
:103EB00006D800EB8300436E0B4443660020704736
:103EC00000F5805393F8F030002BF7D0036E0B44CD
:103ED0000366F3E7022070472DE9F843044604F037
:103EE00051F804F59C51183104F5805604F036F968
:103EF000201D10F050FED6F88C03FEF76DFE04F185
:103F0000A00804F668074FF4EC7540F66809635999
:103F100060191B699847D8F8003040461B699847DC
:103F20003B6838461B6905F58C7598474D4508F187
:103F3000340807F1B807EAD140F6A45541F28407E6
:103F4000635960191B69B8359847BD42F8D104F62A
:103F5000B84010F020FE04F5576010F01CFE04F588
:103F60008650043010F017FE04F58E501C3010F00F
:103F700012FE04F59050103010F00DFE04F596502E
:103F8000083010F008FED6F8800303681B699847D4
:103F9000D6F8840303681B699847D6F8880303683A
:103FA0001B699847FDF7B8FE0021FDF7D1FE4FF0E1
:103FB0000000BDE8F88300002DE9F743044604F54E
:103FC0008059FDF7A9FEFDF747FFFDF7A5FEFDF7B8
:103FD00065FFD9F8943393F81D24022A0CD193F885
:103FE000E4138848884B0022914218BF18460146C6
:103FF00004F5576010F047FA04F5EC760025D9F87F
:104000009403D0F81034062B28BF06239D42C0F03D
:10401000B68004F16003002653F8045F002D00F021
:10402000C780D4F898305D4326B990F81D34022B30
:1040300008BF6D42F7B2394604EB860602F069F814
:10404000724AF16F4EF66023002818BF134600290C
:10405000726E80F29F80002A80F2A38003F092FFAC
:10406000436FD4F89820142B38BF142353433C22B9
:1040700053430A22B3FBF2F34FF00008CDF800805F
:104080002A46D9F89403394602F0E2FFC6F8648064
:10409000C5B2D9F8943393F8053404F59056103628
:1040A000002B00F08A805A49304612F016FAD9F8EF
:1040B000943393F8043404F596570837002B7ED0D8
:1040C0005449384612F009FAD4F89C004FF47A713A
:1040D00011F01DFE68B1D9F89433D3EDFF7AFCEEF0
:1040E000E77A04F5865017EE903A043099B2FEF75D
:1040F0005EFF236EDBB1D9F81021D4F8981004F5D7
:10410000865001FB03210430FEF751FF0023236694
:1041100011F0FBFDC4F89C00D9F8940390F8043426
:104120002BB190F80524D9F8101103F0A1FBD9F8B0
:10413000943393F8E33304F6B84804F66804002B8C
:1041400042D0D9F8943393F8703303F0FD03012B78
:104150003FD1404612F081FA2046B83412F07DFA81
:10416000A045F9D1384612F078FAD9F8943393F88B
:1041700004343046002B3ED012F08AFA3DE0E9B21A
:1041800002F02EF801463046FEF711FF013506F524
:104190008C7634E705D0002A3FF760AF4FF0FF324E
:1041A00004E0002ACCBF01224FF0FF32F26763E740
:1041B0000136062E7FF430AF6BE7174974E71749D5
:1041C000384612F08AF994E706F0DEFB8368032B89
:1041D000B7D0D9F88C03FEF7FFFC404612F058FA2E
:1041E0002046B83412F054FAA045F9D1384612F0FE
:1041F0004FFA3046C0E712F030FA284603B0BDE867
:10420000F08300BFCA830208C183020880F5200042
:10421000DD830208E1830208DE830208E6830208E8
:1042200010B5044601F075FF044B08B1986810BD45
:1042300094F81C2453F82200F9E700BF54A10208A7
:104240002DE9F04FD14B5B688FB003F03F03CDE910
:1042500009120F1D04460B9310F0F4FD0368DB6890
:1042600098470A9B1D1F04F580532D1AD3F89433E9
:10427000D3F81034062B28BF06230233B5FBF3F521
:10428000A5F10803049310F0DDFD0368DB6898478F
:10429000049B00EB8000984207D210F0D3FD036826
:1042A000DB68984700EB80030493049B089708336E
:1042B0000C9304F6680307930023069304F58053D8
:1042C000264604F1A0080593059B069AD3E9E4303D
:1042D000D3F888B0D0F81034062B28BF06239A42B2
:1042E00006F58C7708F13409C0F05E8104F5845A34
:1042F00004F6A4590AF1040A002704F580564FF485
:104300008C7BD6F89033D3F88810D6F89433D3F852
:104310001034062B28BF0623013B0BFB03F303F5E8
:10432000EC7023441439D3F8D83189089B6B05917C
:10433000204498470599049B0A1D7A434FF00108D1
:10434000CDE90013043200F1080351464846CDF888
:10435000088012F01BF8FDF7FAF8002301461A4610
:10436000484612F0BCF94846032112F041F947448F
:104370004846002112F0A8F9042F09F1B8090AF102
:104380000C0ABED1414604F6147012F09DF9CDF826
:104390000880B4F9E6310193B4F9DC317C49083B7B
:1043A00004F6B8490093B4F9DE313A46484611F0B4
:1043B000EDFFFDF7CCF8002301461A46484612F0FF
:1043C0008EF9B4F9DC91B4F9DEB110F03BFD6FF079
:1043D0007F4A09F108090BF1080B01905B464A4638
:1043E00004F557606A49CDF800A00FF0CCFFD6F86D
:1043F0009033DDE90921D3F888304FF0000B0A44EF
:104400000521CDE9011B04F586590499009103EBC0
:10441000D37309F1040943FA08F3043A063B521A2C
:1044200048463946FEF7F4FC3946FF224846FEF777
:10443000B1FD10F007FD022201464846FEF7F0FEEE
:10444000D6F894334846B3F82214FEF7B0FDD6F8F8
:1044500094334846B3F82024B3F82214FEF7E8FD5D
:1044600010F0F0FC4B49034603224846FEF7EEFEEF
:10447000FDF76DF85B465A4601464846FEF719FFC0
:10448000414686F8D4804846FEF7FAFE10F0DAFC82
:1044900004F58E5909F11C09CDE900A05B465A4686
:1044A00048463D490FF06FFFB6F9CA20B6F9C8106B
:1044B0005B4608320831484610F0A6FB049BB6F96B
:1044C000CC20CDF808800193B6F9D0303349043BB5
:1044D00003EBD37343FA08F304F5905909F110097B
:1044E0000093B6F9CA300532484611F04FFFFDF788
:1044F0002EF85B4601465A46484612F0F0F8049BF7
:10450000B6F91822CDF808800193B6F91C32009351
:1045100004F5965909F10809B6F916322049053211
:10452000484611F033FFFDF712F85B4601465A4644
:10453000484612F0D4F80B9B1A4ACDE9018304F1E6
:10454000380526232821009328465B4621F0A2F94E
:10455000B4F9AE9DB6F9CA6010F074FC0368DB686C
:104560009847804610F06EFCA6EB0906A6EB0806FD
:10457000CDE900A009EB5603201D3A4629460FF06D
:1045800002FF58460FB0BDE8F08F00BF0038024070
:10459000A2840208F0830208F4830208DE83020882
:1045A000E6830208FC8302089DF818A05146FEF736
:1045B000FDFE08220192049A009206F5EC7606228E
:1045C000ABF108030290114630469BFBF1F19B00D2
:1045D00093FBF2F3089AFEF71BFCFF2204213046FE
:1045E000FEF7D8FC10F02EFC022201463046FEF702
:1045F00017FE00213046FEF7DAFC059B5146D3F842
:104600009403FFF70DFE834610F01CFC5946034649
:1046100003223046FEF71AFEFCF799FF00231A46E4
:1046200001463046FEF745FED7F8C03030469B6C59
:1046300001219847059B5146D3F8940301F05FFD93
:10464000824610F089FB6FF07F43009300231A46E7
:104650005146019040460FF096FE022140460FF071
:10466000F7FE59F8343CDB691D46D7F8C0303046B8
:10467000DB6A984759F8343C8346DB6B40469847E1
:1046800000EBD0700BEBDB734FEA600BCBEB630BF3
:10469000D7F8C03030461B6B9847D7F8C0308246F9
:1046A0001B6C3046984759F8343C00EBD0700AEB4D
:1046B000600A1B6C4046984700EBD070AAEB600282
:1046C000594600234046A847D7F8C03030465B6BB8
:1046D0009847D7F8C03082461B6B30469847059BF9
:1046E000D3F89033D3F88810D7F8C0300D915B6BB6
:1046F000834630469847D7F8C0208046126C304633
:1047000090470D99A1EB0808A8F108030122CDE913
:1047100001020E49079800930AF104025B4611F06A
:1047200035FEFCF714FF00231A460146079811F0E6
:10473000D6FF069B0C9A01330693089B13440893FB
:10474000079BB8330793C8463E46BDE5EC83020895
:10475000264B70B50446036000F596500830FCF710
:10476000BDFF04F590501030FCF7B8FF04F58E50F3
:104770001C30FCF75FFF04F586500430FDF73EF86F
:1047800004F58455043504F6A456B54204D0B83D6A
:104790002846FCF7A3FFF8E704F5576004F6B84590
:1047A000FCF748FF2846FCF799FF04F66806AE427E
:1047B00004D0B83D2846FCF791FFF8E704F5EC7506
:1047C000B54205D0A6F58C763046FDF717F8F7E729
:1047D00004F1A006B54204D0343D2846FCF72AFF78
:1047E000F8E7201DFCF726FF204670BDB09A0208AE
:1047F00008B50248FFF7ACFF08BD00BF5C370020DA
:1048000010B50446FFF7A4FF204641F2B0310DF089
:10481000FBFD204610BD10B50021044600F6A45053
:1048200011F052FF04F65C60002111F04DFF04F618
:104830001470002111F048FF04F6CC700021BDE88F
:10484000104011F041BF00002DE9F04F00F58455F4
:1048500000F5855687B004460435103600F6A45896
:10486000002700F5805900232B606B60AB6094F843
:104870009410D9F89403052967D890F81C34002BBC
:1048800014BF4FF0090A4FF0050A01F042FC00285E
:1048900018BF4FF00D0A06F077F8BA445FFA8AFAAB
:1048A00000EB8A00D9F894A3D0F804B094F89410DF
:1048B000C6F804B0504601F02CFC2E4B00283FD027
:1048C0009A6894F89410D9F894030592FFF7A8FC1D
:1048D00094F894100490D9F8940301F01AFC049B06
:1048E000059A0290019300925B460C22294650469D
:1048F00001F058FE6B1E002213F8011F202934D14D
:104900000C2303FB0743134441F284020A21995408
:10491000D8F800306421DB684046984798F8343076
:1049200013B17368C4F898300137042F05F10C05F2
:1049300006F1040608F1B80895D107B0BDE8F08F7C
:104940009AF81C2453F82220BBE767B133680A2287
:104950005343002273600292074A0192012200929F
:1049600029460C22C4E70123F3E701320C2AC3D104
:10497000CEE700BF3CA102081B8402082DE9F74FD7
:1049800004460121043010F0F6F804F5EC7604F644
:10499000680704F1A008B1464FF0000BBA4604F5D1
:1049A0008055D5F89433D3F81034062B28BF06234E
:1049B0009B4578D3062384F894303046002106F5D1
:1049C0008C76FEF75DFCB245F7D12046FFF73CFF41
:1049D0003022002104F1640021F02BF8002323662B
:1049E000D5F8943393F81D34022B09D1652104F5D1
:1049F000576010F0C0F8632104F6B84010F0BBF81F
:104A000004F5865604366421304610F0B4F80021CF
:104A10003046FEF735FC04F58E5065211C3010F051
:104A2000AAF804F590506421103010F0A4F804F5B1
:104A300096506421083010F09EF8D5F89433B3F8FE
:104A40001E34DB070FD5FDF767F90121FDF780F96B
:104A50002149D5F8840311F040FDD5F8840303689B
:104A60006621DB689847D5F8800303686621DB6818
:104A70009847D5F8880303686621DB68984703F0F8
:104A800081FA0546FCF763FD04F59C531833014693
:104A900000932846114A234603F03FFB4FF00000E5
:104AA00003B0BDE8F08FD9F800306421DB684846D8
:104AB0009847D8F800306421DB68404698473B6847
:104AC0003846DB68642198470BF1010B09F58C79B6
:104AD00008F13408B83764E71F840208A93E0008CB
:104AE0002DE9F04F00F580558BB0D5F880338B421F
:104AF00004460E4600F02181D5F888338B4200F041
:104B00001C81D5F884338B420BD100238C49D5F816
:104B10009403099309AA02F0D5F900200BB0BDE86F
:104B2000F08F00F6B84399420DD1D5F8940390F870
:104B3000E43323B100238349099309AAEBE78249AF
:104B4000099309AAE7E7D5F88C338B420AD11A7C7E
:104B5000002AE2D0D3F81C21197BD5F8940302F087
:104B6000A5FCDAE700F59653083399420ED1D5F843
:104B7000940390F8043413B102F0CCFECDE790F822
:104B80000524D5F8101102F073FEC6E700F5905326
:104B90001033994211D000F6A457B94216D000F64E
:104BA0005C67B94222D000F61477B94220D000F6F3
:104BB000CC77B9421ED1032509E0D5F8940390F8CB
:104BC000051481F0010102F083FEA6E7002505F23D
:104BD0002C45204604EB8505FFF71DFE01213846D4
:104BE00011F072FD6B68C4F8983096E70125EEE786
:104BF0000225ECE700F5EC7700F6680AB9464FF0BD
:104C00000008B14540F0908099F82C305FFA88FB9D
:104C1000002B3FD0D5F88C33D5F894030493594634
:104C200001F06DFA0590D5F89403484B90F81C24D8
:104C3000594653F82220D9F84C3007920693FEF7D4
:104C4000B5FB0221CDE90201414B4249CDE90013F8
:104C5000DDE90632DDE90401FDF716FED5F88CB377
:104C6000FCF775FC002301461A465846FDF7A3FDE4
:104C7000D5F88C0342F21071C0F80C80FDF7C8FD26
:104C800008F10108B8F1060F09F58C790AF1B80AA4
:104C9000B7D119E004F6680AB8464046002108F585
:104CA0008C78FEF7EDFAD045F7D104F58650002157
:104CB0000430FEF7E5FA48460121FEF7E1FA84F8F0
:104CC00094B02046FFF7C0FD04F5865808F10408AB
:104CD000B0457FF422AFD5F89403D0F80834642BA4
:104CE0000DD0992101F056FBD5F8940390F80434C7
:104CF0002BB190F80524D5F8101102F0B9FD01216F
:104D00004046FEF7BDFA062384F8943004F66805A1
:104D10003846002107F58C77FEF7B2FAAF42F7D19B
:104D20002046FFF791FDF8E65645A9D1D5F8940342
:104D30005FFA88F102F08CFBA2E70920EEE600BFE3
:104D400024840208288402082C84020854A1020842
:104D500080969800806967FF4E4B70B5044640F816
:104D6000043BFCF70BFC00252822002104F138004D
:104D700020F05FFE29462566182204F1640020F029
:104D800058FE2946182204F17C0020F052FE06232A
:104D900084F894300123C4E9263504F5EC7604F157
:104DA000A00528463435FCF7E9FBB542F9D104F6F5
:104DB0006806284605F58C75FCF750FCB542F8D11D
:104DC00004F6B8462846B835FCF704FCAE42F9D1E3
:104DD0003046FCF7FFFB04F55760FCF7CFFB04F50A
:104DE000845604F6A45504362846B835FCF7F2FB81
:104DF000AE42F9D104F580553022002105F184003E
:104E000020F017FE1022002105F1B40020F011FE61
:104E100004F586500430FCF721FC04F58E501C305C
:104E2000FCF7ACFB04F590501030FCF7D3FB04F515
:104E300096500830FCF7CEFBFCF76EFF00F5AA5049
:104E40000830C5F88003FCF767FF00F5B050C5F8DF
:104E50008403FCF761FF00F5B5501830C5F88803EE
:104E6000FCF75AFF00F5D0501430C5F88C030DF054
:104E700007FBC5F8900301F091F8002385F8A433EF
:104E8000C5F89403C5E9E633C5E9EA33C5F8A033AC
:104E9000204670BDB09A020810B50A4C2368BFF3D3
:104EA0005B8FDB070CD420461DF061FF40B1064844
:104EB000FFF752FF05481FF00FFD20461DF063FF6E
:104EC000014810BD583700205C370020F14700082A
:104ED0004FF00000704738B50446FCF71DFF05464B
:104EE000FDF732F805F5A75004F5815542F210712F
:104EF000143014350FF03FFE4FF4FA6128460CF0E1
:104F0000D4F863681BB9012128460CF047FB2368DD
:104F100029469B69204698474FF0000038BD10B5E0
:104F20000446FCF7F9FE00F5A75014300FF033FEED
:104F300004F50053D3F83001FDF74EFE04F5F850A8
:104F4000103005F08CFA04F5815014300CF0BCF8E8
:104F50004FF0000010BD70B500F1150305460024A8
:104F600013F8012F62B10134152CF9D10323173442
:104F7000E41A2C4405F11706B44206D100201DE0C6
:104F8000032C34BF00230323F1E714F8013D2E2B3B
:104F9000F2D1A07820F0B0FB7328EDD100F0FEFF35
:104FA00090F81D345BB9607820F0A6FB6D2806D11F
:104FB000287AC0F3001080F00100C0B270BD00F08C
:104FC000EDFF90F81D34022B04D1607820F094FBA3
:104FD0006C28EDD000F0E2FF90F81D34032BCBD10C
:104FE000E6E700002DE9F04385B004468846154603
:104FF00000F581560DF044FA28230222CDE9003253
:105000001436D0F888304246002130460CF09BF828
:105010000FF068FE002319462D4A009030460CF030
:10502000F0F90FF05FFE2B4A00900023012130467B
:105030000CF0E7F9FCF78BFA002301461A463046DC
:1050400004F5BC570CF0CDFA103704F59B5304F56A
:10505000F85210333E4610322121C6E900313C3669
:10506000964203F12103F8D1FCF771FA04F5805957
:10507000194B0093014622463046184B05F0F7F8CD
:1050800004F50054B9F942309844D4F86431D3F8A7
:1050900088400FF0D7FE0368DB689847B9F94230C3
:1050A000CDF80080083DED1AA5EB40050023202235
:1050B0003946CDE90145304605F0C4F930460021B6
:1050C00005F0FEF94FF0000005B0BDE8F08300BF29
:1050D000328E020830840208B9550008695700086A
:1050E00010B50446FCF733FAA04205D1BDE81040E4
:1050F0000021283010F05DBE10BD10B50446FCF74D
:1051000026FA844206D104F128000021BDE81040AF
:1051100010F087BE4FF00D0010BD0000204B2DE9B0
:10512000F041044603601F4BC0F8F8321E4FDFF811
:10513000808000F53E7004F532750FF04BFDC4F829
:10514000C87228460FF046FD04F5C876AE4205D079
:1051500045F8348D28460FF03DFDF7E7DFF8548021
:1051600004F58075B54205D046F8308D30460FF015
:1051700031FDF7E704F17006B54205D045F8307D02
:1051800028460FF027FDF7E72046084B40F8443F3C
:105190000FF020FD20460FF01DFD2046BDE8F081F8
:1051A00054B10208E8C1020890C10208F0C2020826
:1051B00098C20208E0B80208F8B5194B036004462B
:1051C00000F5F85500F50150FCF788FA04F5805613
:1051D00005F18800FCF782FA124BC6F8543F04F53B
:1051E000FA5014300FF0F6FC0F4BC6F8203F04F5D0
:1051F000F9500FF0EFFC04F5BC560C4F103510368B
:10520000B54206D03C3D284640F8087F0FF0E2FC4E
:10521000F6E704F581501430FFF780FF2046F8BD13
:10522000D49A020890C10208F0C2020898C202088B
:1052300008B50248FFF7C0FF08BD00BF104B0020B3
:1052400010B50446FFF7B8FF204642F26C110DF08E
:10525000DBF8204610BD10B50446FFF75FFF20467F
:105260004FF447710DF0D0F8204610BD08B500226C
:105270001146083003F053F80AF06CF8BDE8084016
:1052800009F0B4BC13B50446FFF7F0FF606818B12D
:105290000DF0B8F8002363600022114604F1080005
:1052A00003F034F80FF01EFD0023009004F5815048
:1052B000054A194614300CF0A4F8FCF72DFD02B095
:1052C000BDE81040FCF740BE328E020838B50D46EE
:1052D0000446FFF7D7FF074928460DF091F86060B4
:1052E00008B100230370FCF717FDFCF72DFE606882
:1052F00038BD00BF602E030870B50D460646FFF7A7
:10530000B5FF0AF027F8294609F0BEFD2A680446D1
:10531000014606F1080003F002F8204670BD0000C7
:10532000F7B51446002501AA0830089F01951E46CE
:1053300003F021F820BB002003B0F0BD3B2B08BFD9
:1053400001320131019101990B780D2B1BD9BA4221
:10535000F4D30B78202B0A4601F101011AD0092B56
:1053600018D00D2B05D842F2014121FA03F3DD07D5
:10537000E1D4013AA519AC420ED1002EDCD016E0E2
:105380002A460F4DDFE745FA03F3DB07E1D5BA42C2
:10539000D7D3DEE70191DCE712F8013F0D2B0AD8E5
:1053A00042F20141D940C90707D5002323700023E9
:1053B00005F8013CC0E73B2BF7D004F8013BDAE7E6
:1053C000FEDBFFFF2DE9F3410024009405460E4665
:1053D00017469846FFF7A4FF044630B943463A46BD
:1053E000314605F1080003F02FF9204602B0BDE870
:1053F000F08137B5022500951446FFF791FF00B9FB
:10540000207003B030BD37B5069D023500951446B7
:10541000FFF786FF08B904B1207003B030BD73B543
:1054200005460E460024002300941A4631462846BD
:10543000FFF7E9FF10B9204602B070BD0134F2E772
:10544000F7B51646002401AA08301F46019402F061
:1054500092FF054648B90025284603B0F0BD3B2918
:1054600000F1010008BF01340190019801780A2978
:1054700006D00D2904D019B1BC42F0D30D2904D8AF
:1054800042F20143CB40DB07E5D41FF02EFA306037
:10549000E2E710B501231446FFF7D2FF08B9012354
:1054A000236010BD07B5002301AA0193FFF7F1FFA8
:1054B00018B10198B0FA80F0400903B000BD0000B7
:1054C0002DE9F04F95B005461822002108A820F0DC
:1054D000B0FA0DF11809182200210EA820F0A9FA3F
:1054E0000024012305F5BC5705F5F856D5F880A032
:1054F0000694C9F80440049310371036A346544567
:1055000042D01F2C01D11F214CE005AA214605F1F4
:105510000800CDF814B002F011FF182308AA2146A4
:105520002846FFF74FFF21462846FFF7BBFF80467E
:1055300080B1059B00930EAA182321462846FFF749
:1055400062FF0EAB394608AA304604F097FE0134DC
:105550003C37D4E704AA21462846FFF79AFF0823E0
:105560004A4621462846FFF744FFCDE90198049BAF
:10557000009305F50050059BD0F8680118220EA98C
:1055800001F010F80346DDE71F2CBCD03C2303FBE1
:10559000045101F5BC511031054B064A304604F068
:1055A0006DFE611C304604F08BFF15B0BDE8F08F36
:1055B000A28402083884020810B5044690B100F5B0
:1055C0008052D26E5AB9D0F88020914205D208306C
:1055D00003F071FE2046FFF773FF002010BDFFF7B8
:1055E00051FEFAE70220F9E72DE9F04100F5815577
:1055F00014358D429AB0044679D100F58057FB6E80
:10560000012B60D1FBF7A3FFFFF777FD1CF0BAFA7F
:1056100044494548002219F069FAD8B1002504F53B
:105620009B522B4610320021202B47D104F5F85411
:10563000FBF78DFF1034FFF753FD2946204604F099
:105640003FFF6421204604F089FF4FF000001AB0AC
:10565000BDE8F08135490DA819F0B1FE05460028D6
:10566000DCD104F5BC56183602A90DA819F008FFC4
:1056700000BB9DF81E30EBB102A8FFF76CFC0028C0
:10568000F2D0029B01930DF11E03009356E9021222
:105690003046274B01350EF038FF202DB04606F17D
:1056A0003C06E1D1234BD7F8D82ED7F8D41E40467C
:1056B0000EF02BFF0DA819F0CBFEB0E703EB431063
:1056C00001331154B0E7436800F5F854103453B176
:1056D000FFF7F6FE6421204604F040FF0021284633
:1056E0000BF05CFFB1E7204604F0B9FEADE700F532
:1056F0000052D2F830318B420CD11A7C002AA4D04F
:10570000D3F81C21D968083002F027FE2046FFF7A5
:10571000D7FE9AE7D2F82C318B4296D1FFF7A6FD3F
:1057200093E700BF10CC0120D8C9012030840208C3
:10573000418402085084020810B503231446FFF781
:105740007FFE08B9014B236010BD00BF806967FF71
:1057500010B504231446FFF773FE08B9014B23600C
:1057600010BD00BF809698002DE9F0430D46A9B00A
:105770000446002800F0FA8100F58053DE6E002E0A
:1057800040F0E5804368002B61D0D0F880308B4238
:105790006FD100F50055D5F8683193F87033012BBF
:1057A00008D810A91096FFF7A7FD074680B9B74A99
:1057B000022301E0B64A0223B649D5F82C0104F0D1
:1057C00041FFD5F82C0142F2107105F03DF83EE0A2
:1057D0000834204604F04AFA00283CD005F0D4F8FA
:1057E000436933B3FBF7B3FEFFF787FCAA49AB4825
:1057F000324619F07BF9C0B9A949AA480A2219F022
:10580000B1F990B909F0A6FD056909F0A3FD006999
:1058100010B1FAF7EFFC0646A2481BAB3246294608
:1058200019F075FB9F4819F0A1FCFBF790FEFFF7FC
:1058300057FCFCF771FA054609F08CFD0146284635
:10584000FCF75BFB00221146204602F068FD0020B9
:1058500029B0BDE8F0838F49D5F82C0102233A46E0
:1058600004F0F0FED5F82C0142F2107104F0ECFFC8
:10587000E8E700F1080904F50458012306AA4846A0
:1058800008F134080793069602F058FD202342469B
:1058900029462046FFF796FD07AA29462046FFF72E
:1058A000F8FD079FA7B9069B2946013320460693BA
:1058B000FFF7B5FD069A9042D8BF3A4629464846BA
:1058C000D8BF069702F049FD2046FFF7F9FDBEE775
:1058D00010AA2946204604F5055910961B9609F191
:1058E0001409FFF729FF1BAA29462046FFF730FFBE
:1058F00010234A4629462046FFF77BFD0A23092F3D
:1059000021DC0123CDE902631B9B019304F50057C1
:10591000109B00934A46069BD7F830014146FCF79E
:10592000B3FFD7F83061FBF712FE002301461A4699
:105930003046FCF740FFD7F8300142F21071C560E5
:10594000FCF766FFC0E7013697FBF3F7D7E7564948
:105950001BA819F034FD0746002800F084800025BC
:105960001D22002107A820F064F8002D00F0F98026
:105970004C4F4E4A0DF156031D2107A81FF08AFF18
:10598000012207A9384619F0EDF80546002840F035
:10599000E880D7F80C8008F1010631462046FFF771
:1059A00095FC002800F0D88005AB3246616805956B
:1059B000384619F0E5F96268059BD55420B9059D74
:1059C000A5EB08035D425D4104F1080732466168BA
:1059D000384602F09BFC002606A920460696FFF7F3
:1059E0008BFC8046002800F0A080002D00F09D80F8
:1059F000384604F096FA0746002879D004F59A5202
:105A00000DF155000F32334610F8011F02F8011F47
:105A100021B12E2902D001331F2BF5D1E11841F21B
:105A200050370026CE550FF05DF904F58155143539
:105A30003346E2193146009028460BF0E2FC20463E
:105A4000FFF73EFD04F5F8506421103004F086FDA8
:105A5000284631460BF0A2FD2046FFF707FC11480F
:105A600019F084FBF3E610A91BA819F009FDF8B999
:105A70009DF85660EEB110A8FFF76DFA06460028B3
:105A8000F1D0AF4215D00137EDE700BF66840208C0
:105A9000A3840208618B020810CC0120D8C9012020
:105AA000CE840208A8C7012030840208D8840208E6
:105AB00000261BA819F0CCFC002E3FF450AF1F2D80
:105AC0003FF64DAF109B2A4A009321210DF156035A
:105AD00007A81FF0DFFE3C2305FB034341F2907251
