:020000040800F2
:1000000000000220ED390208A1300208A3300208E6
:10001000A5300208A7300208A9300208000000003D
:10002000000000000000000000000000A122020803
:10003000AB3002080000000031230208AD30020896
:100040003D3A02083D3A02083D3A02083D3A0208AC
:100050003D3A02083D3A02083D3A02083D3A02089C
:100060003D3A02083D3A02083D3A02083D3A02088C
:100070003D3A02083D3A02083D3A02083D3A02087C
:100080003D3A02083D3A02083D3A020800000000ED
:100090000000000000000000000000003D3A0208DF
:1000A0003D3A02083D3A02083D3A02083D3A02084C
:1000B0003D3A02083D3A02083D3A02083D3A02083C
:1000C0003D3A02083D3A02083D3A02083D3A02082C
:1000D0003D3A0208C53002083D3A0208000000001F
:1000E0003D3A02083D3A02083D3A0208000000008D
:1000F0000000000000000000000000003D3A02087F
:1001000000000000D13002083D3A02083D3A0208E2
:1001100000000000000000000000000000000000DF
:100120003D3A02083D3A0208DD300208E930020893
:100130003D3A02080000000000000000000000003E
:10014000000000000000000000000000F530020880
:10015000013102083D3A02080D3102083D3A020819
:100160003D3A02083D3A020800000000000000008D
:10017000000000000000000000000000000000007F
:10018000000000003D3A02080000000000000000EE
:080190003D3A02083D3A020865
:1001A00010B5054C237833B9044B13B10448AFF3B1
:1001B00000800123237010BD100300200000000008
:1001C000788A020808B5034B1BB103490348AFF313
:1001D000008008BD0000000014030020788A020897
:1001E00010F8012B11F8013B012A28BF9A42F7D0E1
:1001F000D01A7047034613F8012B002AFBD1181AB6
:1002000001387047000000000000000000000000FE
:1002100001F0FF01102A2BDB10F0070F08D010F8B7
:10022000013B013A8B422DD010F0070F42B3F6D1BB
:10023000F0B441EA012141EA014122F007047FF0D4
:1002400000070023F0E80256083C85EA010586EA2B
:10025000010685FA47F5A3FA87F586FA47F6A5FA67
:1002600087F68EB9EED1F0BC01F0FF0102F0070273
:1002700032B110F8013B013A83EA010313B1F8D11E
:100280000020704701387047002D06BF35460338FF
:10029000073815F0010F07D1013015F4807F02BF38
:1002A000013015F4C03F0130F0BC0138704700BF89
:1002B00081F0004102E000BF83F0004330B54FEA17
:1002C00041044FEA430594EA050F08BF90EA020F84
:1002D0001FBF54EA000C55EA020C7FEA645C7FEA17
:1002E000655C00F0E2804FEA5454D4EB5555B8BF3A
:1002F0006D420CDD2C4480EA020281EA030382EAAB
:10030000000083EA010180EA020281EA0303362D3C
:1003100088BF30BD11F0004F4FEA01314FF4801C0F
:100320004CEA113102D0404261EB410113F0004F21
:100330004FEA03334CEA133302D0524263EB4303D8
:1003400094EA050F00F0A780A4F10104D5F1200E76
:100350000DDB02FA0EFC22FA05F2801841F10001D1
:1003600003FA0EF2801843FA05F359410EE0A5F1A5
:1003700020050EF1200E012A03FA0EFC28BF4CF0D6
:10038000020C43FA05F3C01851EBE37101F000458C
:1003900007D54FF0000EDCF1000C7EEB00006EEB99
:1003A0000101B1F5801F1BD3B1F5001F0CD3490823
:1003B0005FEA30004FEA3C0C04F101044FEA44527A
:1003C00012F5800F80F09A80BCF1004F08BF5FEA01
:1003D000500C50F1000041EB045141EA050130BDE1
:1003E0005FEA4C0C404141EB0101013C28BFB1F5F3
:1003F000801FE9D291F0000F04BF01460020B1FA3E
:1004000081F308BF2033A3F10B03B3F120020CDA10
:100410000C3208DD02F1140CC2F10C0201FA0CF0EE
:1004200021FA02F10CE002F11402D8BFC2F1200C53
:1004300001FA02F120FA0CFCDCBF41EA0C01904009
:10044000E41AA2BF01EB0451294330BD6FEA040452
:100450001F3C1CDA0C340EDC04F11404C4F120023D
:1004600020FA04F001FA02F340EA030021FA04F34F
:1004700045EA030130BDC4F10C04C4F1200220FAA6
:1004800002F001FA04F340EA0300294630BD21FAE4
:1004900004F0294630BD94F0000F83F4801306BFAA
:1004A00081F480110134013D4EE77FEA645C18BF9E
:1004B0007FEA655C29D094EA050F08BF90EA020F35
:1004C00005D054EA000C04BF1946104630BD91EA2D
:1004D000030F1EBF0021002030BD5FEA545C05D130
:1004E0004000494128BF41F0004130BD14F580046F
:1004F0003CBF01F5801130BD01F0004545F0FE41E3
:1005000041F470014FF0000030BD7FEA645C1ABF17
:10051000194610467FEA655C1CBF0B46024650EA4E
:10052000013406BF52EA033591EA030F41F400217A
:1005300030BD00BF90F0000F04BF0021704730B500
:100540004FF4806404F132044FF000054FF00001D5
:1005500050E700BF90F0000F04BF0021704730B596
:100560004FF4806404F1320410F0004548BF40426B
:100570004FF000013EE700BF42004FEAE2014FEAC0
:1005800031014FEA02701FBF12F07F4393F07F4F9B
:1005900081F06051704732F07F4208BF704793F09E
:1005A0007F4F04BF41F40021704730B54FF46074B1
:1005B00001F0004521F000411CE700BF50EA0102B4
:1005C00008BF704730B54FF000050AE050EA01025D
:1005D00008BF704730B511F0004502D5404261EBCD
:1005E00041014FF4806404F132045FEA915C3FF40E
:1005F000D8AE4FF003025FEADC0C18BF03325FEAAB
:10060000DC0C18BF033202EBDC02C2F1200300FA5B
:1006100003FC20FA02F001FA03FE40EA0E0021FA80
:1006200002F11444BDE600BF70B54FF0FF0C4CF46E
:10063000E06C1CEA11541DBF1CEA135594EA0C0F20
:1006400095EA0C0F00F0DEF82C4481EA030621EA5B
:100650004C5123EA4C5350EA013518BF52EA033596
:1006600041F4801143F4801338D0A0FB02CE4FF048
:100670000005E1FB02E506F00042E0FB03E54FF078
:100680000006E1FB03569CF0000F18BF4EF0010E70
:10069000A4F1FF04B6F5007F64F5407404D25FEA6C
:1006A0004E0E6D4146EB060642EAC62141EA55511F
:1006B0004FEAC52040EA5E504FEACE2EB4F1FD0C61
:1006C00088BFBCF5E06F1ED8BEF1004F08BF5FEADF
:1006D000500E50F1000041EB045170BD06F0004691
:1006E00046EA010140EA020081EA0301B4EB5C043E
:1006F000C2BFD4EB0C0541EA045170BD41F4801136
:100700004FF0000E013C00F3AB8014F1360FDEBF5A
:10071000002001F0004170BDC4F10004203C35DA36
:100720000C341BDC04F11404C4F1200500FA05F3B9
:1007300020FA04F001FA05F240EA020001F000425A
:1007400021F0004110EBD37021FA04F642EB0601D0
:100750005EEA430E08BF20EAD37070BDC4F10C04FA
:10076000C4F1200500FA04F320FA05F001FA04F2BE
:1007700040EA020001F0004110EBD37041F10001AA
:100780005EEA430E08BF20EAD37070BDC4F12005B5
:1007900000FA05F24EEA020E20FA04F301FA05F21D
:1007A00043EA020321FA04F001F0004121FA04F2C5
:1007B00020EA020000EBD3705EEA430E08BF20EA95
:1007C000D37070BD94F0000F0FD101F000464000CF
:1007D00041EB010111F4801F08BF013CF7D041EA51
:1007E000060195F0000F18BF704703F00046520055
:1007F00043EB030313F4801F08BF013DF7D043EA26
:100800000603704794EA0C0F0CEA135518BF95EADB
:100810000C0F0CD050EA410618BF52EA4306D1D162
:1008200081EA030101F000414FF0000070BD50EA81
:10083000410606BF1046194652EA430619D094EA0B
:100840000C0F02D150EA013613D195EA0C0F05D1F5
:1008500052EA03361CBF104619460AD181EA030149
:1008600001F0004141F0FE4141F470014FF0000001
:1008700070BD41F0FE4141F4780170BD70B54FF09C
:10088000FF0C4CF4E06C1CEA11541DBF1CEA13551C
:1008900094EA0C0F95EA0C0F00F0A7F8A4EB0504FE
:1008A00081EA030E52EA03354FEA013100F08880F5
:1008B0004FEA03334FF0805545EA131343EA1263BE
:1008C0004FEA022245EA111545EA10654FEA002673
:1008D0000EF000419D4208BF964244F1FD0404F52C
:1008E000407402D25B084FEA3202B61A65EB030588
:1008F0005B084FEA32024FF480104FF4002CB6EB45
:10090000020E75EB030E22BFB61A754640EA0C00C4
:100910005B084FEA3202B6EB020E75EB030E22BF04
:10092000B61A754640EA5C005B084FEA3202B6EB45
:10093000020E75EB030E22BFB61A754640EA9C0004
:100940005B084FEA3202B6EB020E75EB030E22BFD4
:10095000B61A754640EADC0055EA060E18D04FEA92
:10096000051545EA16754FEA06164FEAC30343EA32
:1009700052734FEAC2025FEA1C1CC0D111F4801FFF
:100980000BD141EA00014FF000004FF0004CB6E7F8
:1009900011F4801F04BF01430020B4F1FD0C88BF97
:1009A000BCF5E06F3FF6AFAEB5EB030C04BFB6EBA2
:1009B000020C5FEA500C50F1000041EB045170BD95
:1009C0000EF0004E4EEA113114EB5C04C2BFD4EBC2
:1009D0000C0541EA045170BD41F480114FF0000E46
:1009E000013C90E645EA060E8DE60CEA135594EAC2
:1009F0000C0F08BF95EA0C0F3FF43BAF94EA0C0FC5
:100A00000AD150EA01347FF434AF95EA0C0F7FF439
:100A100025AF104619462CE795EA0C0F06D152EA8D
:100A200003353FF4FDAE1046194622E750EA410671
:100A300018BF52EA43067FF4C5AE50EA41047FF482
:100A40000DAF52EA43057FF4EBAE12E74FF0FF3CE7
:100A500006E000BF4FF0010C02E000BF4FF0010CB8
:100A60004DF804CD4FEA410C7FEA6C5C4FEA430C31
:100A700018BF7FEA6C5C1BD001B050EA410C0CBF80
:100A800052EA430C91EA030F02BF90EA020F0020E2
:100A9000704710F1000F91EA030F58BF994208BF49
:100AA00090422CBFD8176FEAE37040F00100704706
:100AB0004FEA410C7FEA6C5C02D150EA013C07D15D
:100AC0004FEA430C7FEA6C5CD6D152EA033CD3D0A8
:100AD0005DF8040B704700BF8446104662468C46A2
:100AE0001946634600E000BF01B5FFF7B7FF0028D5
:100AF00048BF10F1000F01BD4DF808EDFFF7F4FFFE
:100B00000CBF012000205DF808FB00BF4DF808ED88
:100B1000FFF7EAFF34BF012000205DF808FB00BFAB
:100B20004DF808EDFFF7E0FF94BF012000205DF8CD
:100B300008FB00BF4DF808EDFFF7CEFF94BF012082
:100B400000205DF808FB00BF4DF808EDFFF7C4FF7B
:100B500034BF012000205DF808FB00BF4FEA410CC4
:100B60007FEA6C5C02D150EA013C0AD14FEA430CA7
:100B70007FEA6C5C02D152EA033C02D14FF00000E4
:100B800070474FF0010070474FEA410212F5001222
:100B900015D211D56FF47873B3EB625212D94FEAC4
:100BA000C12343F0004343EA505311F0004F23FAAE
:100BB00002F018BF404270474FF00000704750EA03
:100BC000013005D111F0004008BF6FF000407047C0
:100BD0004FF00000704700BF4A0011D212F500121A
:100BE00011D20DD56FF47873B3EB62520ED44FEA85
:100BF000C12343F0004343EA505323FA02F0704705
:100C00004FF00000704750EA013002D14FF0FF3042
:100C100070474FF0000070474FEA4102B2F1E043E5
:100C200024BFB3F5001CDCF1FE5C0DD901F0004CD3
:100C30004FEAC0024CEA5070B2F1004F40EB830023
:100C400008BF20F00100704711F0804F21D113F14F
:100C50003872BCBF01F00040704741F480114FEA88
:100C60005252C2F11802C2F1200C10FA0CF320FA11
:100C700002F018BF40F001004FEAC1234FEAD3232E
:100C800003FA0CFC40EA0C0023FA02F34FEA430398
:100C9000CCE77FEA625307D150EA01331EBF4FF021
:100CA000FE4040F44000704701F0004040F0FE403C
:100CB00040F40000704700BF53B94AB9002908BF8B
:100CC00000281CBF4FF0FF314FF0FF3000F0BEB9DD
:100CD000ADF1080C6DE904CE00F03CF8DDF804E05D
:100CE000DDE9022304B0704738B500220023044632
:100CF0000D46FFF70BFF28B920462946BDE83840CE
:100D000000F00AB8204605F1004100F005F8404225
:100D100061EB410138BD00BFD0B50C4B0022064647
:100D20000F46FFF781FCFFF757FF0446FFF702FC71
:100D3000074B0022FFF778FC02460B463046394647
:100D4000FFF7BAFAFFF748FF2146D0BD0000F03D9B
:100D50000000F0412DE9F047089D0F4604468C46FF
:100D6000002B48D18A42164661D9B2FA82F34BB1C0
:100D7000C3F1200201FA03FC20FA02F29E4042EA8B
:100D80000C0C9C404FEA164EB7B2BCFBFEF1220C95
:100D90000EFB11CC42EA0C4201FB07F0904209D94C
:100DA000B21801F1FF3C80F0EE80904240F2EB80FF
:100DB00002393244121AA4B2B2FBFEF00EFB10222A
:100DC00044EA024400FB07F7A74209D9341900F1AD
:100DD000FF3280F0DA80A74240F2D78034440238F4
:100DE00040EA0140E41B00211DB1DC400023C5E9BD
:100DF0000043BDE8F0878B4206D90DB1C5E900017B
:100E000000210846BDE8F087B3FA83F1002948D1F4
:100E1000BB4202D3824200F20781841A67EB0302CD
:100E200001209446002DE4D0C5E9004CE1E7002AFA
:100E300000F09280B2FA82F3002B40F0A8808A1A68
:100E40004FEA164E1FFA86FC0121200CB2FBFEF77A
:100E50000EFB172240EA02420CFB07F0904207D932
:100E6000B21807F1FF3802D2904200F2E280474602
:100E7000121AA4B2B2FBFEF00EFB102244EA0244A6
:100E80000CFB00FCA44507D9341900F1FF3202D253
:100E9000A44500F2CB801046A4EB0C0440EA0740C6
:100EA000A2E7C1F120068B4022FA06FC4CEA030CB3
:100EB00007FA01F420FA06F3F7404FEA1C492343EE
:100EC00000FA01F81FFA8CFEB7FBF9F01C0C09FBC5
:100ED000107744EA074400FB0EF7A74202FA01F23A
:100EE0000AD91CEB040400F1FF3A80F09B80A74272
:100EF00040F2988002386444E41B9FB2B4FBF9F3DB
:100F000009FB134447EA044403FB0EFEA64509D936
:100F10001CEB040403F1FF3780F08280A6457FD9E3
:100F2000023B644443EA0040A4EB0E04A0FB02E74A
:100F3000BC427346B94663D360D05DB1B8EB0302DF
:100F400064EB090404FA06F622FA01F31E43CC40CE
:100F5000C5E9006400214CE76208480842EAC17113
:100F60000B0C43EA00438AB242EA0342B3FBF6F1B8
:100F7000E407B4463746B6461F23B0FBF6F0D21B53
:100F800041EA004161E7614614E7104628E7C3F1F2
:100F9000200120FA01F29E4027FA01F19F403A43D6
:100FA0004FEA164E1FFA86FCB1FBFEF70EFB171038
:100FB000110C41EA004107FB0CF8884504FA03F4E0
:100FC0003AD9711807F1FF3001D288451FD8A1EB3B
:100FD0000801B1FBFEF808FB0CF70EFB181192B2EA
:100FE00042EA0142BA422FD2B21808F1FF31C6D20A
:100FF000BA42C4D2A8F102013244C0E7F0459CD203
:10100000BEEB020367EB0C070138B94695E7A6EB88
:1010100008084144B81EB1FBFEF808FB0CF7DCE7FA
:101020003B467FE7504667E70846FBE63444023814
:1010300032E7023F32441BE7A1EB08013846B1FB1F
:10104000FEF808FB0CF7C8E7414698E7704700BF79
:1010500003798B4228BF0431C91AC9B24171704764
:10106000036810B504461B6998476379003B18BFB5
:1010700001231B1A5842584110BD000038B5124CCC
:10108000236800255D62294620461AF029FE29467C
:1010900020461AF071FA226813699907FCD50A48AC
:1010A00000211AF069FA2268054613699B07FCD5EE
:1010B000002105481AF060FA0021044602481AF09F
:1010C00075FE601B38BD00BF64DB012010B5144BFA
:1010D0001A689403FCD59A6822F0030242F00102D8
:1010E0009A60104A002414661A689201FCD45A6867
:1010F00022F48002104358605A6822F03F021143E4
:101100005960084B01221A66054A13689B01FCD5F9
:10111000936823F0030343F00203936010BD00BF04
:1011200000380240000047427FB510210020FFF741
:10113000CDFFFFF7A3FF134B134A1B6803EB4303D9
:10114000B3FBF2F398421AD91422002101A825F02A
:10115000D8FA0223009368460C4B049318F01AFD4A
:1011600008B121F059FD0A4B0122C3F83C2E082199
:101170004FF4800007B05DF804EBFFF7A7BF19211B
:10118000F6E700BFDC00002080841E00000308009A
:101190000000474270B510210020FFF797FF0F4D68
:1011A0000F4E1F24FFF76AFF2B6832680D49B2FB10
:1011B000F1F28242C3F3C4030BD243B1013B2A686C
:1011C00022F0F80242EAC302013C2A60EAD1184642
:1011D00070BDFCD91F2BFAD00133F0E70038024074
:1011E000DC00002040420F0013B5FFF7D3FF044698
:1011F00018F072FD16F022F9114A136823F0F80373
:1012000043EAC40313604FF0E02300221A615A61DD
:101210009A610C4B0193019B596862B60A4B1A689C
:1012200022F003021A601A6842F001021A60019B60
:101230001B6883F3088802B0BDE81040084700BF70
:10124000003802400000FF1F0038014070B5FFF772
:101250006BFF3448FFF704FF08B1FFF7C5FF09F043
:10126000CBFF314909F0EAFF11F068FF2F4A3049FE
:1012700011F0EEFF15F04CFD03682E491B6A9847EC
:1012800007F0B8FA2C49002207F014FB2B48FFF7AF
:10129000E7FE30B111F0DEF80368BDE870401B686E
:1012A0001847274C274D09F0A7FF09F0CBFF09F09D
:1012B000A3FFD4F89022C168234BB3FBF1F3142AA7
:1012C00003F1060338BF14226068C4F88C125B0077
:1012D00093422CBFC4F89432C4F8942203681B696B
:1012E000984709F089FF4169204603F00BFF09F098
:1012F00083FF8169204603F00EFF09F07DFF03693B
:10130000003B18BF01232B7005F064FA29780F4BBE
:10131000002918BF2346194605F006FB00F08AFD98
:10132000BAE700BF14070020F805002010060020CF
:101330003006002004070020ACDB01202407002039
:10134000300300202C030020607214005C06002093
:1013500000BEFEE7704700002DE9F84F6849DFF84E
:10136000FC91684EDFF8F8816748684BC9F8003097
:101370001022C9E902120822F260654ADFF8E4B1DE
:10138000906001250024C8E902054FF48060C2E99D
:101390000034D0605F4AB160C2E90034C2E902158E
:1013A0005D4AC9F80450C6E90035C8E900355B4B11
:1013B00013605B4B94801046C2E9023414F08CFD3C
:1013C0004FF06413CBF80430564B574FCBF8003036
:1013D000564BCBF808304FF005137B60544BDFF8C9
:1013E00088A13B6007F10C00524BBB6015F010F96F
:1013F000514BCAF80030514BCAF88430504B514819
:1014000018604FF4F07250481C760321C3E90112B2
:101410004FF4A071C3E90312C3E9098659614B4E29
:10142000C180C3E907B92146494B02810360447179
:10143000C7600474C0F81240C0F81640C0F81A40E3
:101440000571AAF88840FFF703FE4FF400404023DF
:10145000C6E900030A2342203372C6E903477461D8
:1014600011F02AFE3B4B3C4AF060C3E9002A0422FB
:10147000C3F860214FF4E132C3E9A3242222C3E977
:10148000A52403F12402C3E90644C3E92F44C3E9B8
:101490005544C3E99A44C3E99C44C3E99E44C3E963
:1014A000A7441C84A3F8C44083F8CF40A3F8D040DD
:1014B00083F8D240A3F85C41A3F86441C3F88042AA
:1014C00083F88B42C3E9A9449A608622C3E90324C6
:1014D00003F1C802C3F8AC209C820722A3F8B840ED
:1014E000C3E9AB44C3E9AD44C3E9AF44C3E92C2429
:1014F000C3F8C4429D7583F8BA40BDE8F88F00BFB9
:101500000000024034070020000402409432030827
:1015100024070020140700200407002000330308DC
:10152000F4DB012034330308E806002008DB012047
:10153000B83203086CD9012084330308FCDC012095
:1015400030060020C0C6020810060020F805002062
:1015500098C6020830030020E0A8020854070020C3
:1015600044070020F80600205C06002008B5074B61
:10157000D86810B1012111F0A5FD0548054B40F8D0
:101580000C3BBDE8084015F04DB800BFF805002041
:10159000E8060020B83203084FF0000070474FF013
:1015A000000070474FF0000070474FF00000704798
:1015B0004FF00000704700F50050007E003818BF63
:1015C000012080007047000010B5074B044640F82A
:1015D000283B15F024FA04F1140015F07CF8201DC6
:1015E00015F079F8204610BDF0A7020810B50446A2
:1015F000FFF7EAFF20464C2111F064FD204610BDA4
:1016000014F092BE38B570B30B784D78DBB900F5A5
:10161000AA540834236820465B69984788B1236838
:1016200020465B6C984760B12946204615F0B6FE0F
:101630003DB9236820465B6C984710B1204615F0F1
:10164000BCFE002038BD012B03D100F5B554183481
:10165000E0E7062BF5D1002DF3D0036800F6A831A2
:101660009B699847EDE70220ECE708B520F076FA91
:10167000BDE8084020F048B910B5044614F0F6F86B
:10168000044B23600023C4E9083384F82830E36264
:10169000204610BDCCCF020810B5044614F0E6F881
:1016A000054B23600023C4E90833C4E90A334FF42F
:1016B00080332363204610BDD4D0020810B5044601
:1016C00014F0D4F8094B23604FF0FF320023C4E933
:1016D0000B234FF48032A2630122A287C4E90833AE
:1016E000636384F83E30204610BD00BF74CF02080B
:1016F00010B5044614F0BAF80A4B23606FF07F422D
:101700000023C4E90833C4E90A332263A38604F141
:101710003800FFF7D3FF04F17800FFF7CFFF204632
:1017200010BD00BFE037030810B5034B036004464B
:1017300014F0AEF8204610BDCCCF020810B5044618
:10174000FFF7F2FF2046302111F0BCFC204610BD0F
:1017500010B5034B0360044614F09AF8204610BD00
:10176000D4D0020810B50446FFF7F2FF204634211A
:1017700011F0A8FC204610BD38B5044614F076F8E8
:101780001C4B236000254FF47F420123C4E90D2345
:101790004FF00041C4E90F536FF00043C4E9111347
:1017A0004FF0FF33E364C4E90855A56284F82C5078
:1017B000256304F15000FFF75FFF04F18000FFF79D
:1017C0006BFF04F1B400FFF767FF2946182204F10C
:1017D000E80024F096FF1022294604F5807024F0DA
:1017E00090FF84F8105111F0A9FCC4F814012046B0
:1017F00038BD00BF40A8020838B5094B094D036049
:10180000044640F8785F14F043F8204640F8385F0B
:1018100014F03EF8204614F03BF8204638BD00BFD7
:10182000E037030874CF020810B50446FFF7E4FF61
:101830002046B82111F046FC204610BD2DE9F843A2
:101840000446002614F012F8C4E90866C4E90A66E2
:101850002D4BDFF8C0902360266304F1340504F5B6
:10186000DA774FF0FF38284614F000F8C5F80090FA
:10187000C5F8288085F82C6085F82D60C5E90866D4
:101880003035BD42EFD104F5557628463435FFF7A3
:1018900003FFAE42F9D1354604F614162846B83592
:1018A000FFF726FFB542F9D1284613F0DFFF0025E8
:1018B000164BC4F81439C4F8345904F63810FFF73D
:1018C00017FF04F51F60FFF713FF04F6A820FFF7CA
:1018D000D3FE04F6D82013F0C9FF0D4BC4F8D83A54
:1018E000C4F8F85AC4F8FC5AC4F8005B84F8045BE6
:1018F000C4F8085BC4F80C5B11F020FCC4F8100BB2
:101900002046BDE8F88300BFA4AF02087CD00208DF
:1019100024D002081CC7020810B5094B044640F841
:10192000B43BFFF715FF04F18000FFF711FF04F14E
:101930005000FFF7F9FE204613F0AAFF204610BD25
:1019400040A8020810B50446FFF7E6FF20464FF412
:101950008C7111F0B7FB204610BD00000A22002355
:1019600070B5C0E905230446C0E90033C0E902337D
:101970000374C361203013F03DFE04F14C00FFF707
:101980007BFE04F17C0013F071FF284BE36704F148
:101990009C00FFF781FE04F1D000FFF7EDFE04F597
:1019A000F470FFF7A5FE04F52870FFF7A1FE04F51B
:1019B0005670FFF79DFE1E4B93E8070004F5826505
:1019C00085E8070004F21C4603F10C023C33106862
:1019D0005168354603C508329A422E46F7D104F2C3
:1019E0004C40FFF785FE04F20450FFF781FE11F032
:1019F000A5FB002384F8CC3584F8E435C4F8BC0595
:101A0000C4F8C035C4F8C435C4F8C835C4F8D035F6
:101A1000C4F8D435C4F8D835C4F8DC35C4F8E0359A
:101A2000C4F8E835C4F8EC35204670BD24D002086F
:101A3000908A0208F8B5204B0360204BC0F8D83AD2
:101A4000044600F6D82013F023FF04F6A820FFF781
:101A50006BFE04F51F60FFF7CFFE04F63810FFF7AA
:101A6000CBFE04F61415164BC4F81439284613F0AF
:101A70000FFF04F55576AE4204D0B83D2846FFF777
:101A8000BBFEF8E704F5DA75B54204D0343E3046C3
:101A9000FFF75EFEF8E70B4E04F13407BD4205D0B8
:101AA00045F8306D284613F0F3FEF7E7204613F0B3
:101AB000EFFE2046F8BD00BFA4AF020824D0020804
:101AC0007CD002081CC702082DE9F041534B03608B
:101AD00000F5D055044605F5A360FFF78DFE04F52B
:101AE000F350FFF789FE04F5EB500C30FFF784FE4E
:101AF00004F5E5501430FFF77FFE04F5DF501C308D
:101B0000FFF77AFE05F1E40004F58056FFF704FFC5
:101B100005F1B000FFF71CFEDFF80C81C6F8908AD3
:101B200004F5D450103013F0B3FE04F5D350FFF792
:101B3000FBFD3B4FC6F8347A04F5D15004F5BB5594
:101B4000143013F0A5FE05F5E470FFF755FE05F51A
:101B50008870FFF751FE334BC6F8303804F5C1509A
:101B6000103013F095FE05F19C00FFF7F1FD04F530
:101B7000BE50C6F8DC871C3013F08AFE05F14C001D
:101B8000FFF7D2FDC6F8807704F5BC5013F080FE55
:101B900004F5B5501830FFF72FFE04F5B050FFF7ED
:101BA0002BFE04F5A75604F5AA5008301436FFF7AB
:101BB00023FE3046FFF7CCFD04F59D551C35B5429C
:101BC00004D0343E3046FFF7C3FDF8E704F62C5648
:101BD000B54205D0A5F58C752846FFF79DFEF7E7C1
:101BE00004F6F840FFF7B4FD04F6C440FFF7B0FD7B
:101BF00004F54960FFF7ACFD04F54660FFF794FD7E
:101C000004F6A830FFF7F8FD04F19400FFF712FF87
:101C10002046FFF7D9FC2046BDE8F08118A802084D
:101C20002CD1020874CF020824D0020808B502485B
:101C3000FFF74AFF08BD00BF6807002010B5044643
:101C4000FFF742FF204642F2380111F03BFA2046EE
:101C500010BD10B50446FFF7EDFE204640F61431E6
:101C600011F030FA204610BDF8B56D4B0446102235
:101C700040F8043B2221002314F025FD0023082214
:101C8000202104F1140014F01EFD04F50053183354
:101C9000002563621423C4E90A53624B84F8305070
:101CA000C4E90D344FF4C063A4F84430032384F82E
:101CB000463020465C4BA3645C4B84F83C5029467C
:101CC0004022256440F84C3B24F01BFDC4E9235519
:101CD00004F19400FFF7B2FD04F6A830FFF708FD09
:101CE00004F54660FFF7C8FC04F54960FFF7D4FC33
:101CF00004F6C440FFF7D0FC04F6F840FFF7CCFC34
:101D000004F59D5604F62C551C36284605F58C75B1
:101D1000FFF732FDB542F8D104F5A7561436284630
:101D20003435FFF7B9FCB542F9D12846FFF7B4FCCA
:101D300004F5AA500830FFF7DBFC04F5B050FFF7BC
:101D4000D7FC04F5B55004F5805618300025FFF790
:101D5000CFFC4FF4807304F5BB57C6F87C37C6F848
:101D60007057C6F87457C6F8785704F5BC5013F08E
:101D700041FC07F14C00FFF77FFC04F5BE501C301E
:101D800013F074FD2A4BC6F8DC3707F19C00FFF70F
:101D900083FC07F1D000FFF791FC07F58870FFF78F
:101DA000A7FC07F5E470FFF7A3FC11F0C7F9C6F82C
:101DB000E00904F5D050C6F8E459C6F8E859C6F869
:101DC000EC5986F8F059C6F8F459C6F8F859C6F82F
:101DD000FC59C6F8005AC6F8045A86F8085AC6F8DC
:101DE0000C5AC6F8105A143004F50056FFF7B6FD29
:101DF0000323337111F0A2F9B06006F0FBFCF06030
:101E000004F0E8FC306109F0F7F986F82C507061B5
:101E1000C6E90855C6E90C55B5622046F8BD00BFB5
:101E2000F0A70208DF640108208F020818A8020842
:101E300024D0020810B50A4C2368BFF35B8FDB0780
:101E40000CD4204621F0FBFD40B10648FFF70CFF03
:101E5000054823F0A9FB204621F0FDFD014810BDF7
:101E600064070020680700202D1C00082DE9F04FB2
:101E700000F5005785B0BB680546D3F888400E468C
:101E8000002970D0083C032294FBF2F4D3F88CB004
:101E900013F036FE0368DB689847804613F030FE87
:101EA0000368DB68984705F5AA5909F1080908EBAA
:101EB000480800EB40004FF0010AABEB08032C4947
:101EC000CDF808A00022CDE90040484615F0C8F83A
:101ED000FFF7CBFB002301461A46484615F069FA86
:101EE000484615F024FA05F58058DEB1B8F95025BA
:101EF000CDF808A0B8F956351D49CDE9004305F5E0
:101F0000B056B8F94E350532304615F0A9F8FFF74E
:101F1000ACFB002301461A46304615F04AFA30461B
:101F200015F005FABB681249D3F888200123029303
:101F3000B8F95635CDE9004305F5B5551835B8F96A
:101F40004E35121B284615F08BF8FFF78EFB002349
:101F500001461A46284615F02CFA284605B0BDE879
:101F6000F04F15F0E4B904EBD4746410043C8DE731
:101F7000A291020800F5005300F5AA501B6993F8DE
:101F80007033022B0CBF02490249083015F00FB91B
:101F90002C8F0208318F020800F50052126992F866
:101FA0007023012A05D821B100F5AA50083015F098
:101FB000FEB8FFF7DFBF000000F5005300F5B55095
:101FC0001A6992F87033052B00F1180008D192F8C5
:101FD000F1334F2B02D1054915F0E9B80449FBE76D
:101FE000002BF8D0092BF6D00249F5E7969A0208A3
:101FF000358F0208B797020800F50052126992F86F
:102000007023012A05D121B100F5B550183015F023
:10201000CEB8FFF7D1BF70B500F1480304460025E4
:1020200053F8042F8A4218D1D4F8903004EB83037C
:10203000D86C03681B69984704F19400C4F8905069
:10204000294606F0AFFAD4F8903004EB8303BDE8DC
:102050007040D86C0368DB6818470135102DDFD15C
:1020600070BD000070B504468AB004F5A955083566
:1020700003A804F5A75620F065FB1436049B144A08
:102080002021284624F06EFA29463046012213F01A
:1020900058F804F5005304F580549B68D3F8882061
:1020A000B4F9003503EBD37302EBD2725C10C4EBCE
:1020B000620413F0E9FC6FF07F4301900093224625
:1020C0001E232946304612F0BCFF0AB070BD00BF87
:1020D0003C8F0208D0F8903000EB830370B50446C3
:1020E000D86C03680D461B699847C4F8905004F1FA
:1020F0009400294606F056FAD4F8903004EB830495
:10210000E06C0368BDE87040DB68184700F6A83350
:10211000994237B504460D460BD190F8B83B43B110
:1021200000F50054206990F8533363B904F058FD6A
:102130000BE004F194039D420BD194F8C0102046AB
:10214000FFF7C8FF01E004F085FD4FF0000003B089
:1021500030BDD4F8903004EB83032946D86C036873
:102160009B699847C0B20928EFD104F5AA530833F8
:102170009D420BD104F50054206990F87033022B76
:1021800014BF8121822104F01DFDDEE704F5B55363
:1021900018339D42D9D104F50054206990F870138A
:1021A000D0F86823052913D190F8F133C0F86C23D7
:1021B0004F2B4FF0000380F8F13380F8573301D1F3
:1021C0001821E0E70B49019301AA05F0B3FABCE737
:1021D000002339B1092905D080F85733C0F86C23A2
:1021E0001921D0E780F8F13380F85733C0F86C2319
:1021F000E6E700BF528F0208F7B5044600F19405E8
:1022000004F50056284606F020F828220821B36875
:10221000CDE9002100221146D3F888300027284656
:1022200006F0D6F9C4F88C7013F0F4FB3946034677
:10223000634A284606F048F9624AD4F88C102846CA
:1022400006F0DFF8D4F88C707B1CC4F88C3002F0F8
:10225000C1FE04EB8707F864D4F88C7013F0DAFB46
:102260003946594A0346284606F02EF9D4F88C70B0
:102270007B1CC4F88C3009F0A9FC04EB8707F864D8
:10228000D4F88C7013F0C6FB394603464F4A2846F3
:1022900006F01AF9D4F88C707B1CC4F88C3001F06D
:1022A00085FE04EB87073369F86493F81D34022B2D
:1022B00013D0D4F88C7013F0ADFB39460346444A72
:1022C000284606F001F9D4F88C707B1CC4F88C30D9
:1022D0000EF036FA04EB8707F864D4F88C7013F02C
:1022E00099FB39463B4A0346284606F0EDF8D4F8F8
:1022F0008C707B1CC4F88C300DF06CFC04EB8707F1
:10230000F864D4F88C7013F085FB39460346324AE2
:10231000284606F0D9F8D4F88C707B1CC4F88C30B1
:1023200004F064F904EB87073369F86493F81D340B
:102330009BB9D4F88C7013F06DFB39460346274ADD
:10234000284606F0C1F8D4F88C707B1CC4F88C3099
:102350000AF03EFF04EB8707F864D4F88C7013F0A2
:1023600059FB39461E4A0346284606F0ADF8D4F814
:102370008C707B1CC4F88C300FF0D8FC04EB870702
:10238000D4F88C20B368F8640192282200920022CD
:102390001146D3F88830284606F01AF9284606F088
:1023A000C5F90023214628461A4606F0BBF94FF42A
:1023B000FA61284603B0BDE8F04005F006BF00BF53
:1023C000568F0208140000205A8F0208638F0208FB
:1023D0006E8F02087B8F0208888F0208988F020890
:1023E0009E8F02082DE9F04F8BB0044608F004FFE1
:1023F00008F028FF04F500555FFA80F8AE6808F091
:10240000FBFE416A003918BF0121304610F043FF3E
:102410002979A86811F057FAAB68B84AC3F8802048
:10242000D3F88C7013F06CFB0368DB6898470646A2
:1024300013F0F0FA0368DB689847AB68D3F88810AC
:102440000691834613F0E6FA03689B689847059067
:1024500013F0E0FA0268D2689047DDE90531BA1E50
:1024600006EB4606A64F4FF0060904F5466A921B96
:102470004000002609FB1313A2EB4B02CDE90176C5
:1024800031460090504612F0FFFB4FF47A715046EF
:1024900013F0CFF904F5BB579A4A103711460223BF
:1024A000384608F007FD214633463246384608F0E4
:1024B000FCFC286904F0CEFBAB68D3F888200692B8
:1024C00013F0A8FA03689B689847B4F9663C059333
:1024D000834613F09FFA016889688847069A059B2E
:1024E0000121029104F6A83AB4F96E1C019109FB8E
:1024F00000F0013A09FB1B2283490090504614F07A
:10250000AFFD334632465046214614F052FF314665
:10251000504614F043FF4FF47A71504613F089F996
:10252000B4F96E3CB4F9662C03EBD37302EB63038E
:10253000059313F06FFA0268D2689047814613F052
:1025400069FA059B6F4901906FF07F4B04F5496A6A
:102550000422A3EB5903CDF800B0504612F071FDF0
:10256000B4F9943C059313F055FA03689B689847B7
:10257000099013F0C5FA03689B689847B4F96A1C80
:102580000891069013F0BCFA0368DB68984707903F
:1025900013F0B6FA8646DDE905030899099A034463
:1025A0009C46079B04F6C449023902EB8202CDE93E
:1025B00000BE6244CB1A4846524912F042FDB4F9BB
:1025C000AC2B079213F0D6FA03689B689847B4F9CE
:1025D000663C06900433059313F0CCFADDE906124D
:1025E0000190FF2004F6F84B00900B2000FB112215
:1025F000059B4449584612F024FD40F2E93150460B
:1026000013F017F940F2EA31484613F012F940F29C
:10261000EB31584613F00DF92B4620330193432339
:1026200000933A4AE8682346214606F064F93146A9
:102630002046FFF71BFC2046FFF7DEFD04F59D5901
:1026400004F62C5609F11C093046002106F58C765B
:1026500000F04BFD4E45F7D113F016FA6FF07F43B3
:102660000190009304F5A951002304F5A7501A46E0
:102670000831143012F0E5FC04F148090026D4F8C2
:102680008C10B1422CD8B8F1000F34D001390B4670
:10269000C4F8903004F1940005F084FFD4F8903031
:1026A00004EB8304E06C0368DB689847B8F1000F23
:1026B0000AD01749174A0223384608F0FBFB42F2BA
:1026C0001071384608F0F8FC08F096FDC36913B1A4
:1026D000286904F085FA4FF000000BB0BDE8F08FD8
:1026E00059F8040FB4F9662C0368283A9B6828212E
:1026F00098470136C3E743464146C9E7404040009A
:1027000080808000A2910208568F020805160008FA
:10271000F08F0208A78F02082DE9F04100F500555F
:102720000446286990F8701304F02CF90022014641
:1027300004F5496012F005FD286990F8F11304F0E2
:1027400029F90022014604F6C44012F0FAFC296976
:1027500091F8E923134623F0800381F8E933D20985
:1027600001F2F23104F6F84012F0EBFC04F62C57BB
:102770000026F1B2286904F04BF9013601463846CB
:1027800000F0B3FC062E07F58C77F2D12B6993F895
:10279000531304F6A838002963D00121404614F0F1
:1027A000FDFD2B6993F8E333002B0CBFFF214FF4A1
:1027B0007F41404614F03EFD2B6993F80F2400261C
:1027C00083F80F64002A39D004F5D05004F5BB57C4
:1027D0001430103700F09EFA384608F0ABFCD4F8FD
:1027E000903004EB8303D86C03681B69984704F6A8
:1027F0006C3013F02EF8404614F099FD2046FFF798
:10280000FBFC04F14808D4F88C30B34235D8E06CB6
:102810000023C4F890300368DB6898472B69D3F82D
:1028200018349B060AD41A491A4A0223384608F07B
:1028300041FB42F21071384608F03EFCD4F890306B
:1028400004EB83041421E06C03685B699847A86873
:1028500000F5C150043014F08CF84FF00000BDE8D2
:10286000F081404614F09AFD2B6993F8E333002B76
:102870000CBF6FF07F41FF219BE758F8040FB4F9BC
:10288000662C0368283A9B68282198470136BAE7E6
:1028900088900208FA8F02080CB413B5044628B1D8
:1028A00021B105AB049A019323F004FF204602B046
:1028B000BDE8104002B0704738B50446B8B109B958
:1028C000002038BDD0F81C31426900F1D00501FB71
:1028D0000231284600F009FCA369002BF0D0D4F89F
:1028E0001C21284653F8221000F046FCE8E702209D
:1028F000E7E7C0E900128360704741694B1E10B5DD
:1029000059420446594100F5F47014F047FD6169DD
:10291000A1F10A025142514104F5287014F03EFD24
:102920006169A1F164004142414104F55670BDE87E
:10293000104014F033BD32B90120704748430133D1
:102940009342FBD1704708460123F9E737B50446A7
:102950000D467C3012F06DFF691C04F1200012F06E
:1029600068FFA91C04F24C4012F063FFE91C04F25A
:10297000045012F05EFF05F03DFF0546FEF775FEC0
:1029800004F5B86301460D4A00932846234605F036
:10299000FCFF05F02FFF0546FEF767FE04F5BB635D
:1029A00001937F23014600932846054A234605F0FC
:1029B000A2FF4FF0000003B030BD00BFB9280008EF
:1029C000572D00082DE9F04F8BB01E460023CB4D4C
:1029D000079204460F4683612B68BFF35B8F13F0A9
:1029E000010FDFF82CA30CD1284621F028F840B1C4
:1029F000D4F8BC352846D3F88830CAF8003021F026
:102A00002AF813F007F86FF07F4304F19C05009358
:102A100000231A4639460190284612F012FB284638
:102A20009DF85C1012F072FBB4F9A830DAF80010CF
:102A3000C91A082200234908284604F1200912F087
:102A400041FF4946284612F0B7FE0121284612F000
:102A5000F0FEDAF80030B4F9A670A3F1100813F014
:102A60004FF80368DB689847169B029304F1D00582
:102A700008370D2300EB80003A460193009043464F
:102A80000821284600F062FA4FF47F4204212846CC
:102A900000F01EFB13F034F802220146284600F035
:102AA0005DFCDDE91412284600F060FB3146284643
:102AB00000F01BFB13F024F80026034605220799BB
:102AC000284600F061FC494684F8E060284612F090
:102AD00073FE0121284612F0ACFE04F20C4306936B
:102AE00004F21C47A346B4F9DC300322083BB3FBD5
:102AF000F2F3059303F06EFE169A05460A2120466E
:102B0000FFF719FF069A009052F8043F06923946E3
:102B10001022284604F0E4F83846FDF76BFB079BCB
:102B2000774AC0F11001384423F01CFD059BB4F92D
:102B3000D420043306FB0322B4F9DA3009920833B7
:102B4000089312F0DDFF0168C96888470BF5F47837
:102B5000059B0093012500EB8000DDE90832394632
:102B600001900295404614F07BFAFEF77EFD654A1F
:102B700023460146404614F01CFC0021404614F058
:102B80000DFC0321404614F09DFBDBF8E83149467B
:102B90009B6840469847DBF8E8312946DB684046A9
:102BA0002E449847032E07F110070BF1B80B9AD16A
:102BB000169A022A28BF02220A212046FFF7BBFEEE
:102BC0006061B82000FB02400026294600F5F47041
:102BD00014F0E4FB02950196B4F9F231083304F1E4
:102BE0004C070093DAF8003032463146384612F08E
:102BF0004BF83846042112F077F838464FF6FF714B
:102C000012F089F83146384612F09CF849463846A9
:102C100012F0D2FD3146384612F00BFED4F8BC2536
:102C2000B4F95A30D2F88C200093D21A02EBD27247
:102C3000DAF800302A413146484612F016FDD4F841
:102C4000BC35D3F88C2000923146324604F17C002A
:102C5000D3F8883012F08AF8D4F8BC3584F88C5058
:102C6000D3F88CA012F04CFF0368DB689847D4F8C7
:102C7000BC35D3F8882002EBD27242FA05F78146C0
:102C800012F03EFF0368DB68984704F24C48043FAB
:102C900009EB490900EB4000CDE90070AAEB0903FC
:102CA000324619490295404614F0DAF9FEF7DDFC88
:102CB00023460146134A404614F07BFBD4F8BC354A
:102CC000B4F95824D3F888100295B4F95A34CDE9F0
:102CD000002304F20457B4F952348A1A38460B49D7
:102CE00014F0BEF9FEF7C1FC064A014623463846F9
:102CF00014F05FFB30460BB0BDE8F08FA02700203A
:102D000094900208572D0008989002089B900208A2
:102D1000A427002010B5044605F06CFD04F5B86149
:102D200005F054FE05F066FD04F5BB6105F007FEF5
:102D300004F1200012F08DFD04F17C0012F089FDF9
:102D400004F24C4012F085FD04F2045012F081FDB3
:102D50004FF0000010BDF8B5044600284CD000F23A
:102D60004C458D4203D000F204578F4219D16B1AA3
:102D70005D425D4125742046FFF7CCFFD4E9000594
:102D800048B1A2682346294613F055FB2046FFF7B9
:102D9000B4FD0020F8BD002DF8D0A0682146A8475A
:102DA000F4E700F5F473994202D101236361EDE782
:102DB00000F52873994201D10A23F7E700F556730D
:102DC000994201D16423F1E70B784E7853B931462B
:102DD000284614F0E3FA002ED8D129462046FFF702
:102DE000BAFFD3E7012BD1D13146384614F0D6FAD9
:102DF000002ECBD13946F1E70220CBE7B0F9040031
:102E00007047B0F906007047B0F908007047B0F994
:102E10000A007047B0F90C007047B0F90E00704717
:102E2000007C7047017470472DE9F341089E044609
:102E30001D46B0F90630B0F90400301A0090EB1AC4
:102E400004F1500090460F4611F03DFDB4F9042006
:102E5000B4F90630B21A0092EB1A4246394604F130
:102E6000B40012F056F894F810317BB1B4F9042094
:102E7000B4F90630B61AEB1A4246394604F180001E
:102E8000089602B0BDE8F04112F043B802B0BDE8C8
:102E9000F0812DE9F341089E04461D46B0F9043047
:102EA000B0F90600301A0090EB1A04F15000904679
:102EB0000F4611F05DFDB4F90620B4F90430B21AE2
:102EC0000092EB1A4246394604F1B40011F0BBFF00
:102ED00094F810317BB1B4F90620B4F90430B61A75
:102EE000EB1A4246394604F18000089602B0BDE86C
:102EF000F04111F0A8BF02B0BDE8F08110B5044662
:102F0000052919D8DFE801F0030F181803160B493B
:102F100004F1500011F016FF23682046DB6CBDE879
:102F2000104000211847006A20B1D4E90912234655
:102F300013F081FA0021EBE710BD00BF8080800014
:102F400010B103689B681847704700002DE9FF47E0
:102F50000446DDE90C651F464FF0FF30E064381889
:102F6000A18001440E9B2181711EE2800A4462818E
:102F7000EA1AC4E90E23A781E681012100204FF05F
:102F80000A0C83426BDC216404F58070002B6AD04C
:102F9000009310211346374A23F0E4FA013504F177
:102FA000E8094846FDF726F9A8420CD004F1E701EC
:102FB00000239D4294BF0022012201335201182BAD
:102FC00001F8012FF5D1002501232A462946CDE934
:102FD000015300963B4604F1500011F055FE12F0EB
:102FE0008FFD04F1B4086FF07F47494601902B46EE
:102FF0002A464046009712F024F8D4E90E3203EB3B
:103000000209D4F8D800B4F90CA009F10109AA42C8
:1030100018BF09F10109FFF793FFB4F9C2305FFA55
:1030200089F9F61A00FB19A106EBD6762B46721029
:103030004908404612F046FC12F062FD2B46CDE9ED
:1030400000700D4904F180002A4611F0FAFF236850
:10305000DB6C2946204604B0BDE8F04718470CFB5E
:1030600001F101308DE713461021044A23F07AFA6A
:1030700095E700BFA2900208A2910208B39002084F
:10308000C36F994210B5044609D0503011F02CFEA0
:1030900023682046DB6CBDE810400021184710BDB6
:1030A00010B5036FC0E90C12044690F82C000028FC
:1030B00018BF114699420AD004F1500011F02BFEBE
:1030C00023682046DB6CBDE810400021184710BD86
:1030D00038B515460446FFF7D3FF294620464FF47E
:1030E0007F42BDE83840FFF7DBBF436C99420A4698
:1030F000B8BF1A46836C9A42A8BF1A46C36C934263
:1031000073B5044630D0C56BC26400F5807300F11E
:10311000E801B4305DB90092182212F054F8236827
:103120002046DB6C00219847012002B070BD266C60
:1031300092FBF6F506FB1522002AB8BF5242CDE9F4
:103140000052182212F03FF8E36C002BE7DA226CF1
:1031500093FBF2F3002BE2D1A36B012BC2BF1B192F
:103160002D2283F8E620DAE70020DEE7C0E911121D
:10317000C16CFFF7BABF000037B5044600F1B405D3
:1031800000910E4B00F1E8011822284612F01BF8BE
:10319000B4F9C230B4F90E20B4F90C10D21AB4F953
:1031A000C03002EBD272C91A5210002349082846D7
:1031B00003B0BDE8304012F085BB00BF9590020817
:1031C0002DE9F041D0E90E531D44002B18BF013505
:1031D00090F81031013B0446042B00F2AA80DFE88E
:1031E00003F03A3303618600B0F90C60D0F8D800E0
:1031F000FFF7A6FEB4F9C230B4F90E20D21AB4F922
:103200008C30B11EC91A94F8E6306B4300FB1311E1
:1032100002EBD27200235210490804F1B40012F0FC
:1032200051FBB4F9BC50D4F8A400B4F9BE7004F159
:103230008006023510B10368DB6898473A1A00230C
:103240002946304612F03EFB23682046DB6CBDE881
:10325000F04100211847B0F9C230B0F90E20B0F9A2
:103260000C10D21AB0F98E30D21AB0F98C3002EBB1
:10327000D272C91A521000234908803012F022FB82
:10328000D4F8D800B4F90C60FFF75AFE94F8E63091
:10329000B4F98A206B4300FB13610023490804F151
:1032A000B400CFE7B0F90C60D0F8D800FFF748FEC3
:1032B000B4F9C230B4F90E20D21A94F8E6306B4358
:1032C00000FB136102EBD27200235210490804F193
:1032D000B40012F0F7FAB4F98C30B4F90C10B4F968
:1032E000BE20C91A4908002304F18000AAE7B0F9FA
:1032F0000C60D0F8D800FFF723FEB4F9C230B4F95F
:103300000E20D21A94F8E6306B4300FB136102EBF7
:10331000D27200235210490804F1B40012F0D2FA1C
:10332000B4F9BC00B4F98C10B4F9BE200023411AE2
:10333000DAE7B0F90C60D0F8D800FFF701FEB4F975
:10334000C230B4F90E20D21A94F8E63002EBD272F1
:103350006B4300FB1361521000239FE770B500F12F
:10336000B40604461546304611F0B4FEE9B23046C4
:1033700011F0CCFE2046FFF723FF23682046DB6CCC
:10338000BDE870400021184770B500F18006044682
:103390000D4680F810211946304611F09BFE294653
:1033A0003046002211F0CDFE2046FFF709FF2368CA
:1033B0002046DB6CBDE870400021184790F82C30A7
:1033C0008B4210B5044611D0D0E90C2380F82C10A4
:1033D00000290CBF11461946503011F09CFC23689F
:1033E0002046DB6CBDE810400021184710BDC0E945
:1033F00008128362704710B5D0B109B9002010BD22
:103400000379052B0ED84FF48C725343C21884688D
:10341000D2F8942103F5A47301FB04211844FFF7AB
:1034200064FEEBE7D0F8E83E00F69C601944F6E74E
:103430000220E4E72DE9F041044605F0DBF904F54C
:10344000935105F0C3FA04F5A47504F110070026A2
:103450004FF48C782B6828461B699847FEF7EAFCE6
:1034600008FB06F303F62C5203441044D3F82C3D1A
:103470001B699847D5F8903605F5D2601B699847C7
:103480003B6838461B6901369847062E05F58C7552
:1034900007F13407DED140F6B47541F2DC1663590A
:1034A00060191B69B8359847B542F8D104F69C609D
:1034B00012F0CFF904F6686012F0CBF904F59050E1
:1034C00004F580541C3012F0C4F9D4F8500203689B
:1034D0001B699847D4F8540203681B6998474FF05A
:1034E0000000BDE8F081000010B5044603F029FAA1
:1034F000034B08B1987810BD94F81C24985CFAE747
:1035000074AF020800F580532DE9F04FD3F85C3218
:10351000D3F81034062B8FB028BF06230233B2FB3A
:10352000F3F2A2F108030D1D0593044612F0E8FA28
:103530000368DB689847059B00EB8000984207D240
:1035400012F0DEFA0368DB68984700EB800305930E
:10355000059B089508330B930023264604F11008B9
:10356000069304F5805BDBE99630D3F88890D0F8B9
:103570001034069A062B28BF06239A4206F58C774C
:1035800008F1340AC0F0F68004F58E5804F58F5720
:1035900008F11C08173704F6B47600254FF0030A2B
:1035A0004FF00109DBF85C3293F81C24D3F8103497
:1035B000002A14BF39464146DBF858220791062BF2
:1035C000D2F8882092FBFAF205FB02F228BF06230C
:1035D00004320692013B4FF48C72534303F5A470FE
:1035E00023442044D3F848319B6B9847059BCDF882
:1035F00008900193DBF85832D3F8883093FBFAF344
:10360000083BDDE90621009300F10803304613F082
:1036100027FDFEF72AF8002301461A46304613F02C
:10362000C8FE01353046032113F04CFE032D08F18E
:10363000090807F10C0706F1B806B3D112F0EAF950
:1036400003689B689847DBF85832B4F9BEAFD3F8EB
:103650008880064612F0DEF903689B689847A8F157
:1036600010034FF00A0808FB06F10522002604F6B5
:103670009C67CDE901260AF1080A059A009208FB29
:103680001033524638460C31FFF760FCFF2204210C
:103690003846FFF71DFD12F033FA02220146384684
:1036A000FFF75CFE42F2107238460121FFF75EFD23
:1036B0004FF496713846FFF718FDDBF85C3293F84B
:1036C0001C24A14B53F822A012F01AFA2A460346F2
:1036D00051463846FFF758FEFDF7C7FF334601460F
:1036E00032463846FFF783FE84F8AC9E12F092F91A
:1036F00004F668656FF07F47334632460190934980
:103700000097284611F09DFC2846022111F0FEFC8E
:10371000B4F9AA3EB4F9A21E03EBD37301EB630123
:10372000B4F9763E03EBD372A1EB62023346042177
:10373000284612F0C7F804F58350C4F80880012128
:103740000C3013F02BFEB4F94C51B4F94E8112F049
:10375000D7F90835CDE9007008F1080804F5905054
:103760007B4943462A461C3011F06BFC30460FB0B3
:10377000BDE8F08F9DF8183007931946FFF7B4FEA7
:10378000A9F10803072206F5A475019203EBD37390
:10379000059A02905B10284600920621089A99FB30
:1037A000F1F1FFF7D3FBFF2204212846FFF790FC3D
:1037B00012F0A6F9022201462846FFF7CFFD07992D
:1037C000DBF85C0203F024F901462846FFF78DFC84
:1037D000DBF85C325F4A93F81C3452F8239012F005
:1037E0008FF94946034603222846FFF7CDFDFDF732
:1037F0003CFF00231A4601462846FFF7F8FD3B6BC5
:10380000012128469B6C98473B6B28465B6B984789
:103810003B6B09909B6B28469847059B0A90A3F148
:103820000409DBF85832D3F888203B6B0D925B6BB0
:103830002846984707990C90DBF85C02FFF754FE86
:10384000DDE90C320A9902904FEA5909D31A08228D
:10385000CDE90092A1EB0902099906F5FB66083B48
:1038600030460431FFF772FB3B4A02213046FFF736
:103870002FFC12F045F9012201463046FFF76EFD9C
:1038800000213046FFF731FCDBF85C32314A93F817
:103890001C3452F8239012F0F7F8032203464946ED
:1038A0003046FFF771FD0799DBF85C0203F03FF843
:1038B000064612F0AFF86FF07F43009300231A46DC
:1038C00031460190404611F0BCFB0221404611F008
:1038D0001DFC5AF8343CDE693B6B2846DB6A98478E
:1038E0005AF8343C8146DB6B4046984700EBD07079
:1038F00009EBD9734FEA6009C9EB63013B6B079190
:103900001B6B284698473B6B81461B6C28469847A3
:103910005AF8343C00EBD0701B6C09EB6005404654
:10392000984700EBD070A5EB600200234046079952
:10393000B047069B0B9A01330693089B13440893E8
:10394000D0463E460FE600BF84AF0208BB90020897
:10395000A291020890AF0208808080002DE9F04F0C
:1039600004468BB000F1100A06464FF0000900F53E
:103970008058D8F85C32D3F81034062B28BF0623C1
:10398000994506F58C753AD340F6B47541F2DC16CC
:1039900063596019DB686521B8359847B542F7D19E
:1039A000642104F69C6011F044FF642104F6686011
:1039B00011F03FFF04F5905065211C3011F039FFE4
:1039C000D8F8500203686621DB689847D8F854029B
:1039D00003686621DB68984704F00CFF0546FDF795
:1039E00044FE04F593530146009328463D4A23467E
:1039F00004F0CBFF4FF000000BB0BDE8F08FFEF7F6
:103A000019FA4FF48C7303FB09F3059303F62C5753
:103A1000D5F8C036049006F5FB6B0744DB6A5846C0
:103A200098472B6B069006F5A4761B6B304698479B
:103A3000D5F8C0360790DB6B58469847D5F8C026B6
:103A40000990126C584690475FFA89F10890D8F8AF
:103A50005C02FFF749FD089A099B02900821019139
:103A600000923846DDE90612FFF770FA1E4A02217D
:103A70003846FFF72DFB12F043F801220146384685
:103A8000FFF76CFCD8F85C3293F81C24174B53F802
:103A90002210069111F0F8FF0322034606993846DA
:103AA000FFF772FC2B6B6421DB6830469847DDE939
:103AB000043213446421D3F82C3D3846DB68984720
:103AC000D5F8C0366421DB6858469847DAF80030EC
:103AD0005046DB686421984709F101090AF1340A6C
:103AE0002E4646E7F73300088080800090AF02083A
:103AF0001F4B70B50446036000F590501C30FDF775
:103B000027FE04F589500430FDF776FE04F5835056
:103B10000C30FDF771FE04F6B470FDF76DFE04F68F
:103B2000686504F69C60FDF7F7FE2846FDF710FE79
:103B300004F5FB66AE4205D0A5F58C752846FDF769
:103B4000EBFEF7E704F5A475B54205D0A6F58C7633
:103B50003046FDF7E1FEF7E704F11006B54204D068
:103B6000343D2846FDF7F4FDF8E7204670BD00BF60
:103B700098A8020808B50248FFF7BAFF08BD00BFC1
:103B8000AC27002010B50446FFF7B2FF204641F2F3
:103B900078210FF097FA204610BD017905292DE90B
:103BA000F84398BF0021044688BF012100F69C60BD
:103BB000FFF704FC04F5A476002504F580594FF6C0
:103BC000FF77E9B2D9F85C02D6F84C8002F020FF0A
:103BD0004FF47F42404514BF3946FF213046FFF77E
:103BE0005FFA2179A1EB050CDCF1000141EB0C013E
:103BF00030460135FFF7E2FB062D06F58C76E0D165
:103C0000A1684B1E5942594104F6B47013F0C6FB2B
:103C1000A168A1F10A02514204F5835051410C30D0
:103C200013F0BCFBA168A1F164004142414104F5DD
:103C300089500430BDE8F84313F0B0BB2DE9F047DC
:103C400000F580570446D7F85C3293F81D2400F540
:103C50009050022A00F11C0034D193F8E4132F4D48
:103C60002F4B0022914218BF1D46294611F069FAD8
:103C700002F0B0FD237B90F87063B34202D0032BB7
:103C800023D02673FEF7D6F82649FEF785F9FEF70E
:103C9000D1F82549FEF7B0F90025A0462E46D7F801
:103CA0005C02D0F81034062B28BF06239D4208F58D
:103CB0008C7923D316B12046FFF76FFF4FF0000039
:103CC000BDE8F08719490022D0E7012ED9D104F5CB
:103CD000A4780025D7F85C02D0F81034062B28BF52
:103CE00006239D42CDD2E9B202F092FE0146404643
:103CF000FFF7FBF9013508F58C78EBE7E9B2D9F865
:103D00007CA002F085FEAAEB000108F5FB60FFF73E
:103D1000ECF93043C6B20135C846C0E7CA90020884
:103D2000C1900208D1900208D5900208A291020821
:103D300000F6B4739942F7B5044608D10123A36095
:103D400000252046FFF729FF284603B0F0BD00F507
:103D500083530C33994201D10A23F0E700F58953CC
:103D60000433994201D16423E9E700F58055D5F881
:103D700050328B4214D1D5F85C0290F87033012B8D
:103D800044D10193D4F8E83E642253430093D4F81D
:103D9000C433D4F8AC22D4F8941103F055FECFE725
:103DA000D5F854328B421FD1D5F85C3293F870337A
:103DB000012B2BD100F5A4770026D5F85C02D0F8B2
:103DC0001034062B28BF06239E42B9D297F82C3018
:103DD00033B1F1B202F01CFE01463846FFF785F917
:103DE000013607F58C77E8E700F69C63994202D12B
:103DF00006232371A4E700F5A47200239142F8D0B2
:103E00000133062B02F58C72F8D199E7092598E762
:103E10002DE9F84F604B0360062303710A2383608A
:103E200000230646037300F1100400F5A475204634
:103E30003434FDF731FCAC42F9D106F5FB65204680
:103E400004F58C74FDF798FCAC42F8D106F6686571
:103E5000204604F58C74FDF78FFCAC42F8D1204667
:103E6000FDF71AFC06F69C60FDF786FC06F58E58F9
:103E7000DFF830B1DFF830A106F6B47408F11C08A1
:103E80000025204611F0F2FC6FF07F4323630127E9
:103E9000C4F800B084F8345084F83550C4E90855AB
:103EA000C4E90A5504F138004FF0FF3911F0DEFC87
:103EB000C4F838A0E566A4F8705084F8727084F8ED
:103EC000735084F8747084F8755084F87650C4E99F
:103ED0001655C4E9199504F1780011F0C7FCC4F82F
:103EE00078A0C4F8AC50A4F8B05084F8B27084F84C
:103EF000B35084F8B47084F8B55084F8B650C4E96F
:103F00002655C4E92995B8344445BAD1234B06F562
:103F1000805404F5EE7203F11807186859681546C5
:103F200003C50833BB422A46F7D119889B78AB708A
:103F30001B4B298004F2F71203F1240153F8040B00
:103F400042F8040B8B42F9D106F590501C30FDF776
:103F5000A3FBFDF76FFF00F5AA500830C4F850022C
:103F6000FDF768FF00F5B5501830C4F854020FF0A3
:103F7000E5F8C4F8580202F02DFC002384F86C32F6
:103F8000C4F85C02C4E99833C4E99C33C4F86832CD
:103F90003046BDE8F88F00BF98A80208CC8A020816
:103FA000E78A0208E037030874CF020810B50A4C0C
:103FB0002368BFF35B8FDB070CD420461FF03FFD67
:103FC00040B10648FFF724FF054821F0EDFA2046EE
:103FD0001FF041FD014810BDA8270020AC2700209C
:103FE000753B0008A0B190F89430052B06D800EB83
:103FF0008300436E0B4443660020704700F58053F6
:1040000093F8F030002BF7D0036E0B440366F3E710
:10401000022070472DE9F843044604F0EBFB04F559
:104020009C51183104F5805604F0D0FC201D11F08D
:1040300010FCD6F88C03FEF76DFE04F1A00804F620
:1040400068074FF4EC7540F66809635960191B69FD
:104050009847D8F8003040461B6998473B68384677
:104060001B6905F58C7598474D4508F1340807F133
:10407000B807EAD140F6A45541F2840763596019A4
:104080001B69B8359847BD42F8D104F6B84011F025
:10409000E0FB04F5576011F0DCFB04F586500430BA
:1040A00011F0D7FB04F58E501C3011F0D2FB04F553
:1040B0009050103011F0CDFB04F59650083011F0FF
:1040C000C8FBD6F8800303681B699847D6F88403B9
:1040D00003681B699847D6F8880303681B699847EB
:1040E000FDF7A8FE0021FDF7C1FE4FF00000BDE87E
:1040F000F88300002DE9F743044604F58059FDF7E5
:1041000099FEFDF737FFFDF795FEFDF755FFD9F84E
:10411000943393F81D24022A0CD193F8E4138848B1
:10412000884B0022914218BF1846014604F557609B
:1041300011F007F804F5EC760025D9F89403D0F8CF
:104140001034062B28BF06239D42C0F0B68004F130
:104150006003002653F8045F002D00F0C780D4F8F8
:1041600098305D4326B990F81D34022B08BF6D428C
:10417000F7B2394604EB860602F0E3FB724AF16FB0
:104180004EF66023002818BF13460029726E80F295
:104190009F80002A80F2A38004F02CFB436FD4F8A8
:1041A0009820142B38BF142353433C2253430A2234
:1041B000B3FBF2F34FF00008CDF800802A46D9F89F
:1041C0009403394603F07CFBC6F86480C5B2D9F885
:1041D000943393F8053404F590561036002B00F014
:1041E0008A805A49304612F0E2FFD9F8943393F8A6
:1041F000043404F596570837002B7ED054493846CE
:1042000012F0D5FFD4F89C004FF47A7112F0E9FB5C
:1042100068B1D9F89433D3EDFF7AFCEEE77A04F570
:10422000865017EE903A043099B2FEF75EFF236E87
:10423000DBB1D9F81021D4F8981004F5865001FBB1
:1042400003210430FEF751FF0023236612F0C7FB61
:10425000C4F89C00D9F8940390F804342BB190F87A
:104260000524D9F8101103F03BFFD9F8943393F8E3
:10427000E33304F6B84804F66804002B42D0D9F8BA
:10428000943393F8703303F0FD03012B3FD1404684
:1042900013F04DF82046B83413F049F8A045F9D191
:1042A000384613F044F8D9F8943393F80434304680
:1042B000002B3ED013F056F83DE0E9B202F0A8FB27
:1042C00001463046FEF711FF013506F58C7634E7DE
:1042D00005D0002A3FF760AF4FF0FF3204E0002A1C
:1042E000CCBF01224FF0FF32F26763E70136062EA2
:1042F0007FF430AF6BE7174974E71749384612F07F
:1043000056FF94E706F078FF8368032BB7D0D9F8FF
:104310008C03FEF7FFFC404613F024F82046B83427
:1043200013F020F8A045F9D1384613F01BF83046B9
:10433000C0E712F0FCFF284603B0BDE8F08300BFE1
:10434000CA900208C190020880F52000DD900208A2
:10435000E1900208DE900208E690020810B50446DB
:1043600002F0EFFA044B08B1986810BD94F81C24D1
:1043700053F82200F9E700BF90AF02082DE9F04F93
:10438000D14B5B688FB003F03F03CDE909120F1DDD
:1043900004460B9311F0B4FB0368DB6898470A9B53
:1043A0001D1F04F580532D1AD3F89433D3F810341D
:1043B000062B28BF06230233B5FBF3F5A5F108034E
:1043C000049311F09DFB0368DB689847049B00EBA6
:1043D0008000984207D211F093FB0368DB6898478E
:1043E00000EB80030493049B089708330C9304F6B6
:1043F000680307930023069304F58053264604F1CF
:10440000A0080593059B069AD3E9E430D3F888B059
:10441000D0F81034062B28BF06239A4206F58C7775
:1044200008F13409C0F05E8104F5845A04F6A459F9
:104430000AF1040A002704F580564FF48C7BD6F865
:104440009033D3F88810D6F89433D3F81034062B71
:1044500028BF0623013B0BFB03F303F5EC70234459
:104460001439D3F8D83189089B6B059120449847BB
:104470000599049B0A1D7A434FF00108CDE900130A
:10448000043200F1080351464846CDF8088012F086
:10449000E7FDFDF7EAF8002301461A46484612F008
:1044A00088FF4846032112F00DFF4744484600218B
:1044B00012F074FF042F09F1B8090AF10C0ABED1F9
:1044C000414604F6147012F069FFCDF80880B4F983
:1044D000E6310193B4F9DC317C49083B04F6B84974
:1044E0000093B4F9DE313A46484612F0B9FDFDF7C3
:1044F000BCF8002301461A46484612F05AFFB4F9A8
:10450000DC91B4F9DEB111F0FBFA6FF07F4A09F1EA
:1045100008090BF1080B01905B464A4604F5576009
:104520006A49CDF800A010F08CFDD6F89033DDE993
:104530000921D3F888304FF0000B0A440521CDE95A
:10454000011B04F586590499009103EBD37309F11B
:10455000040943FA08F3043A063B521A484639461E
:10456000FEF7F4FC3946FF224846FEF7B1FD11F094
:10457000C7FA022201464846FEF7F0FED6F8943309
:104580004846B3F82214FEF7B0FDD6F894334846F7
:10459000B3F82024B3F82214FEF7E8FD11F0B0FAC6
:1045A0004B49034603224846FEF7EEFEFDF75DF851
:1045B0005B465A4601464846FEF719FF414686F8D3
:1045C000D4804846FEF7FAFE11F09AFA04F58E59A7
:1045D00009F11C09CDE900A05B465A4648463D4911
:1045E00010F02FFDB6F9CA20B6F9C8105B460832A4
:1045F0000831484611F066F9049BB6F9CC20CDF895
:1046000008800193B6F9D0303349043B03EBD373F0
:1046100043FA08F304F5905909F110090093B6F92B
:10462000CA300532484612F01BFDFDF71EF85B4606
:1046300001465A46484612F0BCFE049BB6F91822C1
:10464000CDF808800193B6F91C32009304F5965911
:1046500009F10809B6F9163220490532484612F028
:10466000FFFCFDF702F85B4601465A46484612F049
:10467000A0FE0B9B1A4ACDE9018304F138052723DC
:104680002821009328465B4621F06CFFB4F9AE9DCB
:10469000B6F9CA6011F034FA0368DB6898478046BF
:1046A00011F02EFAA6EB0906A6EB0806CDE900A04C
:1046B00009EB5603201D3A46294610F0C2FC584625
:1046C0000FB0BDE8F08F00BF00380240A291020891
:1046D000F0900208F4900208DE900208E6900208CA
:1046E000FC9002089DF818A05146FEF7FDFE082236
:1046F0000192049A009206F5EC760622ABF10803CB
:104700000290114630469BFBF1F19B0093FBF2F3C4
:10471000089AFEF71BFCFF2204213046FEF7D8FC66
:1047200011F0EEF9022201463046FEF717FE002195
:104730003046FEF7DAFC059B5146D3F89403FFF7A9
:104740000DFE834611F0DCF959460346032230463C
:10475000FEF71AFEFCF789FF00231A460146304691
:10476000FEF745FED7F8C03030469B6C01219847D4
:10477000059B5146D3F8940302F0D9F8824611F014
:1047800049F96FF07F43009300231A465146019088
:10479000404610F056FC0221404610F0B7FC59F894
:1047A000343CDB691D46D7F8C0303046DB6A984799
:1047B00059F8343C8346DB6B4046984700EBD07099
:1047C0000BEBDB734FEA600BCBEB630BD7F8C0301E
:1047D00030461B6B9847D7F8C03082461B6C30467A
:1047E000984759F8343C00EBD0700AEB600A1B6C18
:1047F0004046984700EBD070AAEB60025946002370
:104800004046A847D7F8C03030465B6B9847D7F88A
:10481000C03082461B6B30469847059BD3F89033D7
:10482000D3F88810D7F8C0300D915B6B83463046C3
:104830009847D7F8C0208046126C304690470D99B3
:10484000A1EB0808A8F108030122CDE901020E49F5
:10485000079800930AF104025B4612F001FCFCF792
:1048600004FF00231A460146079812F0A2FD069B9A
:104870000C9A01330693089B13440893079BB833A3
:104880000793C8463E46BDE5EC900208264B70B53E
:104890000446036000F596500830FCF7ADFF04F5C0
:1048A00090501030FCF7A8FF04F58E501C30FCF738
:1048B0004FFF04F586500430FDF72EF804F58455BB
:1048C000043504F6A456B54204D0B83D2846FCF79A
:1048D00093FFF8E704F5576004F6B845FCF738FF96
:1048E0002846FCF789FF04F66806AE4204D0B83DBE
:1048F0002846FCF781FFF8E704F5EC75B54205D0D2
:10490000A6F58C763046FDF707F8F7E704F1A00628
:10491000B54204D0343D2846FCF71AFFF8E7201DC5
:10492000FCF716FF204670BDBCA8020808B5024877
:10493000FFF7ACFF08BD00BF283A002010B50446C1
:10494000FFF7A4FF204641F2B0310EF0BBFB20463A
:1049500010BD10B50021044600F6A45012F01EFD53
:1049600004F65C60002112F019FD04F614700021B9
:1049700012F014FD04F6CC700021BDE8104012F0D6
:104980000DBD00002DE9F04F00F5845500F585566A
:1049900087B004460435103600F6A458002700F509
:1049A000805900232B606B60AB6094F89410D9F8A9
:1049B0009403052967D890F81C34002B14BF4FF0DE
:1049C0000D0A4FF0090A01F0BCFF002818BF4FF094
:1049D000110A06F011FCBA445FFA8AFA00EB8A0069
:1049E000D9F894A3D0F804B094F89410C6F804B0A1
:1049F000504601F0A6FF2E4B00283FD09A6894F84D
:104A00009410D9F894030592FFF7A8FC94F8941039
:104A10000490D9F8940301F094FF049B059A029046
:104A2000019300925B460C222946504602F0D4F9CD
:104A30006B1E002213F8011F202934D10C2303FB25
:104A40000743134441F284020A219954D8F80030F4
:104A50006421DB684046984798F8343013B1736896
:104A6000C4F898300137042F05F10C0506F104064F
:104A700008F1B80895D107B0BDE8F08F9AF81C246A
:104A800053F82220BBE767B133680A225343002260
:104A900073600292074A01920122009229460C2279
:104AA000C4E70123F3E701320C2AC3D1CEE700BFEC
:104AB00078AF02081B9102082DE9F74F0446012147
:104AC000043010F0B6FE04F5EC7604F6680704F145
:104AD000A008B1464FF0000BBA4604F58055D5F852
:104AE0009433D3F81034062B28BF06239B4578D384
:104AF000062384F894303046002106F58C76FEF7C4
:104B00005DFCB245F7D12046FFF73CFF3022002183
:104B100004F1640021F0F5FD00232366D5F89433F9
:104B200093F81D34022B09D1652104F5576010F06C
:104B300080FE632104F6B84010F07BFE04F5865633
:104B400004366421304610F074FE00213046FEF732
:104B500035FC04F58E5065211C3010F06AFE04F51A
:104B600090506421103010F064FE04F596506421DA
:104B7000083010F05EFED5F89433B3F81E34DB072E
:104B80000FD5FDF757F90121FDF770F92149D5F847
:104B9000840312F00CFBD5F8840303686621DB68FC
:104BA0009847D5F8800303686621DB689847D5F8F5
:104BB000880303686621DB68984703F01BFE0546FF
:104BC000FCF753FD04F59C53183301460093284627
:104BD000114A234603F0D9FE4FF0000003B0BDE8B0
:104BE000F08FD9F800306421DB6848469847D8F840
:104BF00000306421DB68404698473B683846DB68F4
:104C0000642198470BF1010B09F58C7908F1340800
:104C1000B83764E71F910208E53F00082DE9F04F1F
:104C200000F580558BB0D5F880338B4204460E4694
:104C300000F02181D5F888338B4200F01C81D5F833
:104C400084338B420BD100238C49D5F8940309930C
:104C500009AA02F06FFD00200BB0BDE8F08F00F64E
:104C6000B84399420DD1D5F8940390F8E43323B1B9
:104C700000238349099309AAEBE78249099309AA0A
:104C8000E7E7D5F88C338B420AD11A7C002AE2D0B0
:104C9000D3F81C21197BD5F8940303F03FF8DAE729
:104CA00000F59653083399420ED1D5F8940390F845
:104CB000043413B103F066FACDE790F80524D5F873
:104CC000101103F00DFAC6E700F590531033994226
:104CD00011D000F6A457B94216D000F65C67B9426D
:104CE00022D000F61477B94220D000F6CC77B94232
:104CF0001ED1032509E0D5F8940390F8051481F03E
:104D0000010103F01DFAA6E7002505F22C45204617
:104D100004EB8505FFF71DFE0121384612F03EFB2E
:104D20006B68C4F8983096E70125EEE70225ECE7BA
:104D300000F5EC7700F6680AB9464FF00008B14577
:104D400040F0908099F82C305FFA88FB002B3FD020
:104D5000D5F88C33D5F894030493594601F0E7FD58
:104D60000590D5F89403484B90F81C24594653F805
:104D70002220D9F84C3007920693FEF7B5FB0221AA
:104D8000CDE90201414B4249CDE90013DDE906328C
:104D9000DDE90401FDF716FED5F88CB3FCF765FCE0
:104DA000002301461A465846FDF7A3FDD5F88C03AB
:104DB00042F21071C0F80C80FDF7C8FD08F101083F
:104DC000B8F1060F09F58C790AF1B80AB7D119E0E4
:104DD00004F6680AB8464046002108F58C78FEF7CC
:104DE000EDFAD045F7D104F5865000210430FEF7E6
:104DF000E5FA48460121FEF7E1FA84F894B020462E
:104E0000FFF7C0FD04F5865808F10408B0457FF4AB
:104E100022AFD5F89403D0F80834642B0DD0992133
:104E200001F0D0FED5F8940390F804342BB190F83B
:104E30000524D5F8101103F053F901214046FEF77F
:104E4000BDFA062384F8943004F66805384600213C
:104E500007F58C77FEF7B2FAAF42F7D12046FFF79D
:104E600091FDF8E65645A9D1D5F894035FFA88F18B
:104E700002F026FFA2E70920EEE600BF2491020817
:104E8000289102082C91020890AF020880969800A1
:104E9000806967FF4E4B70B5044640F8043BFCF751
:104EA000FBFB00252822002104F1380021F029FC19
:104EB00029462566182204F1640021F022FC2946C7
:104EC000182204F17C0021F01CFC062384F89430A5
:104ED0000123C4E9263504F5EC7604F1A005284643
:104EE0003435FCF7D9FBB542F9D104F668062846FB
:104EF00005F58C75FCF740FCB542F8D104F6B846D0
:104F00002846B835FCF7F4FBAE42F9D13046FCF741
:104F1000EFFB04F55760FCF7BFFB04F5845604F67D
:104F2000A45504362846B835FCF7E2FBAE42F9D169
:104F300004F580553022002105F1840021F0E1FBC9
:104F40001022002105F1B40021F0DBFB04F58650AE
:104F50000430FCF711FC04F58E501C30FCF79CFB70
:104F600004F590501030FCF7C3FB04F59650083060
:104F7000FCF7BEFBFCF75EFF00F5AA500830C5F851
:104F80008003FCF757FF00F5B050C5F88403FCF729
:104F900051FF00F5B5501830C5F88803FCF74AFFFB
:104FA00000F5D0501430C5F88C030EF0C7F8C5F8E2
:104FB000900301F00FFC002385F8A433C5F8940397
:104FC000C5E9E633C5E9EA33C5F8A033204670BD2C
:104FD000BCA8020810B50A4C2368BFF35B8FDB073F
:104FE0000CD420461EF02BFD40B10648FFF752FFBF
:104FF000054820F0D9FA20461EF02DFD014810BDCD
:10500000243A0020283A00202D49000880EA012097
:10501000082241F2210103B2002BB5BF81EA43030C
:10502000400098B280B2013AF5D17047F8B5044615
:105030009DF81850617021460220A270207001F87E
:10504000035F002295420FD82F1D4FF6FF700126F7
:10505000A15D0136FFF7DAFFBE42F9D3E0552C44DB
:10506000000A6071A81DF8BD985C01F8010F0132BB
:10507000E8E7002380F88B3240680368DB68184754
:1050800007B503688DF807101B6A01220DF10701AF
:10509000984703B000BD90F8203023B190F8C400C9
:1050A00080F00100704701207047704710B54FF441
:1050B000327104460EF006F8204610BDD0F88C225E
:1050C000084BB3FBF2F3D0F890220633142A4FEAD0
:1050D000430338BF142293422CBFC0F89432C0F867
:1050E000942270476072140070B50546C0F88C12A7
:1050F0000C46FFF7E3FF6868036821461B69BDE8BB
:1051000070401847142928BF1421012938BF0121F4
:10511000C0F86011704708B5B1F5FA6F28BF4FF4B9
:10512000FA61C0F89012FFF7C9FF08BDD0E99A23D1
:1051300093420BD0034493F866310B70D0F86C3275
:105140000133DBB2C0F86C32002070472320704777
:1051500038B5D0F860214B69934204460D460CD215
:1051600001334B6111F03BFC012328616B76D4F8CD
:105170009C320133C4F89C3238BD00230B830B7B77
:105180000133DBB2012B38BF01230B73D0F8C032DF
:105190000133C0F8C0328B7B13B1012380F8643136
:1051A00094F88B32002BE7D0002384F88B32D4F8AC
:1051B000C4320133C4F8C432012384F86531DBE71B
:1051C00038B50B7E05460C466BB111F008FC23691F
:1051D000C01AD5F89432984205D321462846BDE836
:1051E0003840FFF7B5BF38BD0023C0E99A33C0E9A6
:1051F0009F3380F8CF30C0F8543180F85D31A0F88B
:10520000643103840375A0F8C43080F8B83080F8A6
:105210008B32704710B50446406803689B68984716
:1052200002462046FFF7E0FF104610BD30B50446A9
:105230004068036885B05B6A9847002841D0D4E98C
:105240009F23934224D003EB4303234404F52175A9
:1052500093F8722293F870128DF80F2093F8712250
:105260000123009328460DF10F03FFF7DFFED4F86A
:105270008032024660680133016803F00303C4F81A
:1052800080320C6A2946234605B0BDE830401847F5
:1052900094F8C53053B16068D4F8B420D4F8AC1099
:1052A000002384F8C53003681B6AEDE794F82120D9
:1052B0003AB1606884F82130036822691B6AA168EA
:1052C000E2E705B030BD2DE9F3410D7E06460C4600
:1052D0009DF820009046FDB96768811DB9421DD830
:1052E0000090217B2068FFF7A1FE01236361A0608D
:1052F00084F80D8011F073FB40F2011320612383C9
:10530000D6F8983201333046C6F89832FFF78EFF50
:10531000284602B0BDE8F0812420FAE70320F8E730
:1053200070B50E7E054666B162B10A7B9A4208D11D
:105330000132D2B2012A4FF0000338BF01220B76AE
:105340000A7370BDFFF704FF2846BDE87040FFF701
:105350006DBFF0B4D0E99F45651B05F00305032D33
:105360009DF8107021D004EB44060644650086F8D1
:10537000702286F8711207B11F782B190344032994
:1053800083F872720CBFD0F8B032D0F8B43204F1A6
:10539000010404F003040CBF01330133C0F87C4264
:1053A0000CBFC0F8B032C0F8B432F0BCFFF73EBF5B
:1053B000D0F86C32D0F86802013B181AC0B27047BE
:1053C00070B59E1804461D46FFF7F2FF86421BD8B3
:1053D0004DB1D4F86832E01801331825DBB280F8FB
:1053E0006651C4F868320A440AE0D4F8683211F809
:1053F000015BE0180133DBB280F86651C4F8683213
:105400009142F2D1012070BD0020FCE730B5B0F828
:105410005A21B0F858319A4285B0044610D0D0F8DD
:10542000B8320133C0F8B8320022012300938DF85E
:105430000F200DF10F030421FFF78BFF05B030BDE6
:1054400090F8D1100123994280F88B321DD0CB1EE9
:10545000012BF3D890F8D230012B64D0002303291C
:105460000BBFD4F8A002D4F8A402013001300BBF66
:1054700001220022C4F8A002C4F8A402022B55D1D4
:1054800094F8D03004F1AC0156E090F85D3190F81A
:10549000D0507BB190F85C21AA420BD1D0F8AC324D
:1054A0008DF80F100133C0F8AC3200910DF10F03ED
:1054B0000321C1E794F8650194F8D22004F1D301E7
:1054C00020BB4BB194F85C310133DBB2012B38BF08
:1054D00001235B1B18BF01232046FFF771FF012347
:1054E0008DF80F30A0B1002284F86521D4F8A822ED
:1054F00084F85D311A44C4F8A82284F85C512A4625
:10550000009303210DF10F03204695E70346E3E7DF
:10551000D4F8BC220132C4F8BC22042100932A46EC
:105520000DF10F03F0E790F8D33098E7012B09D184
:1055300094F8D03004F10801204605B0BDE83040B1
:10554000FFF7EEBE03293FF479AF237D002204F17B
:1055500008012046FFF7E4FE94F8B830002291E7F6
:1055600090F8CF3070B504460D46062B55D8DFE8CD
:1055700003F0040E182234484C00022906D14FF6DD
:10558000FF73A0F85831012384F8CF3070BD80F844
:10559000D010B0F85801FFF739FD0223A4F85801E4
:1055A000F2E780F8D110B0F85801FFF72FFD032380
:1055B000A4F85801E8E780F8D210B0F85801FFF7D6
:1055C00025FD0023802DA4F85801C4F85431DBD800
:1055D000002D0CBF05230423D6E7D0F854618319AE
:1055E000013683F8D310C0F85461B0F85801FFF7C2
:1055F0000DFD94F8D230A4F858019E42C6D305237D
:10560000C2E7A0F85A110623BEE7B0F85A3143EAC0
:105610000123A0F85A31FFF7F9FE0023B4E713B5D0
:10562000002304468DF80630606803680DF106011A
:105630005B699847C0B2F8B104F108012046FFF752
:10564000BFFD04F1AC012046FFF7BAFD94F86431C8
:105650006BB115238DF80730012200230DF10701EE
:105660002046FFF7ADFE10B1002384F864312046D8
:10567000FFF7DCFD02B010BD9DF806102046FFF7D5
:105680006FFFD1E738B504460D46FFF7C8FF29463E
:105690002046BDE83840FFF749BDF8B50E4607463D
:1056A0001546FFF7BCFF96B90220F8BD01342B6800
:1056B000A34206D931193846FFF738FDC0B2002899
:1056C000F4D0002C2C600CBF23200020EDE7002438
:1056D000EDE773B50E4605461446FFF7A0FFB6B1D9
:1056E000631E7F2B15D8012C0AD100943346022269
:1056F00005F1AC012846FFF7E6FDC0B202B070BD6F
:10570000E4B200943346012205F10801F2E70220D9
:10571000F4E70320F2E74FF00000704738B5044685
:10572000FCF788FB0546FCF79DFC05F5A75004F542
:10573000815542F210711430143510F07AF84FF49C
:10574000FA6128460CF00FFB63681BB9012128465B
:105750000CF082FD236829469B69204698474FF04C
:10576000000038BD10B50446FCF764FB00F5A750F7
:10577000143010F06EF804F50053D3F8F801FDF77B
:10578000C9FA04F5FE50183005F0A1FA04F581506D
:1057900014300CF0F7FA4FF0000010BD70B500F1B6
:1057A00015030546002413F8012F62B10134152CAE
:1057B000F9D103231734E41A2C4405F11706B44237
:1057C00006D100201DE0032C34BF00230323F1E7A2
:1057D00014F8013D2E2BF2D1A07820F0F5FD7328AE
:1057E000EDD100F0F7FF90F81D345BB9607820F040
:1057F000EBFD6D2806D1287AC0F3001080F001007F
:10580000C0B270BD00F0E6FF90F81D34022B04D149
:10581000607820F0D9FD6C28EDD000F0DBFF90F827
:105820001D34032BCBD1E6E72DE9F04385B00446C8
:105830008846154600F581560DF080FC282302228B
:10584000CDE900321436D0F8883042460021304687
:105850000CF0D7FA10F0A4F8002319462D4A009056
:1058600030460CF02CFC10F09BF82B4A00900023E3
:10587000012130460CF023FCFBF7F7FE0023014624
:105880001A46304604F5C2570CF009FD183704F5E6
:10589000A15304F5FE5218333E4618322121C6E9C1
:1058A00000313C36964203F12103F8D1FBF7DDFECF
:1058B00004F58059194B0093014622463046184B97
:1058C00005F00DF904F50054B9F942309844D4F8C4
:1058D0002C32D3F8884010F013F90368DB6898473E
:1058E000B9F94230CDF80080083DED1AA5EB40052E
:1058F000002320223946CDE90145304605F0DAF98A
:105900003046002105F014FA4FF0000005B0BDE864
:10591000F08300BF329B020830910208015E00084C
:10592000AD5F000810B50446FBF79FFEA04205D10D
:10593000BDE810400021283011F0A5B810BD10B509
:105940000446FBF792FE844206D104F128000021B0
:10595000BDE8104011F0CFB84FF00D0010BD0000B1
:10596000204B2DE9F041044603601F4BC0F8C033C3
:105970001E4FDFF8808000F5707004F564750FF03D
:1059800087FFC4F8907328460FF082FF04F5F8767D
:10599000AE4205D045F8348D28460FF079FFF7E781
:1059A000DFF8548004F59875B54205D046F8308D7F
:1059B00030460FF06DFFF7E704F17006B54205D0F1
:1059C00045F8307D28460FF063FFF7E72046084B87
:1059D00040F8443F0FF05CFF20460FF059FF20468F
:1059E000BDE8F08190BF020824D00208CCCF0208A5
:1059F0002CD10208D4D002081CC70208F8B51A4BF3
:105A0000036000F5FE55044605F5A470FBF7F4FEAF
:105A100005F19000FBF7F0FE04F50053134ADA613C
:105A200018461C300FF034FF04F58053104AC3F8B9
:105A3000E82F04F5FF5008300FF02AFF04F5C25696
:105A40000C4F18351836B54206D03C3D284640F874
:105A5000087F0FF01DFFF6E704F581501430FFF7C3
:105A60007FFF2046F8BD00BF10A90208CCCF020876
:105A70002CD10208D4D0020808B50248FFF7BEFFB7
:105A800008BD00BFDC4D002010B50446FFF7B6FF8F
:105A9000204642F234210DF015FB204610BD10B512
:105AA0000446FFF75DFF20464FF479710DF00AFBC5
:105AB000204610BD08B500221146083003F067F8F3
:105AC0000AF088F8BDE8084009F0D0BC13B50446D8
:105AD000FFF7F0FF606818B10DF0F2FA0023636081
